:020000040800F2
:10000000A00400209D010008EB1300084B1300081A
:10001000E9130008A9020008B11900080000000057
:10002000000000000000000000000000EF130008C6
:10003000AB02000800000000ED130008F1130008F7
:10004000B7010008B7010008B7010008B7010008B0
:10005000B7010008B7010008B7010008B7010008A0
:10006000B7010008B7010008B7010008B701000890
:10007000B7010008B7010008B7010008B701000880
:10008000B7010008B7010008B7010008B701000870
:10009000B7010008B7010008B7010008B701000860
:1000A000B7010008B7010008B7010008B701000850
:1000B000B7010008B7010008B7010008B701000840
:1000C000B7010008B7010008B7010008B701000830
:1000D000B701000881190008B7010008B70100083E
:1000E000B7010008B7010008B7010008B701000810
:1000F000B7010008B7010008B7010008B701000800
:10010000000000000000000000000000B70100082F
:10011000B7010008B7010008B7010008B7010008DF
:10012000B7010008B7010008B7010008B7010008CF
:10013000B7010008B701000800000000000000003F
:10014000B7010008B7010008B7010008000000006F
:10015000000000000000000000000000000000009F
:100160000000000000000000B7010008B70100080F
:10017000B7010008000000000000000000000000BF
:1001800000000000B7010008DFF80CD000F07AF89A
:1001900000480047F1190008A004002006488047E5
:1001A00006480047FEE7FEE7FEE7FEE7FEE7FEE75C
:1001B000FEE7FEE7FEE7FEE75514000889010008A8
:1001C0002DE9F05F0546002092469B46884606468C
:1001D000814640241BE0284641464746224600F01F
:1001E00020F853465A46C01A914110D3114618467A
:1001F000224600F038F82D1A67EB01084F462246D8
:100200000120002100F02FF817EB00094E41201EBD
:10021000A4F10104DFDC484631462A464346BDE8E6
:10022000F09F202A04DB203A21FA02F000217047D7
:1002300021FA02F3D040C2F120029140084319464E
:100240007047D2B201E000F8012B491EFBD2704783
:100250000022F6E710B513460A4604461946FFF792
:10026000F0FF204610BD202A04DB203A00FA02F1FC
:10027000002070479140C2F1200320FA03F3194394
:1002800090407047064C074D06E0E06840F00103DF
:1002900094E8070098471034AC42F6D3FFF778FF94
:1002A000781A0008981A0008FEE7704710B590F811
:1002B00021100024022903D004218163012418E0C5
:1002C00001680A6822F00E020A6001680A6822F0DA
:1002D00001020A6090F84020C36B012101FA02F28A
:1002E0005A6080F82110002180F82010416B01B184
:1002F0008847204610BD000070B5044600F0DEF8C7
:100300000546601C02D004480078044400F0D6F88A
:10031000401BA042FAD370BD0C0000202DE9F84F1D
:10032000DFF864B100234FF0010C4FF0030A4FF0E7
:100330000F090BF1040EA0E00CFA03F6324072D064
:100340004C68022C01D0122C0ED1DC0800EB840882
:10035000D8F820405D07EF0E09FA07F5AC430D69A8
:10036000BD402543C8F8205007685D0091F804801F
:100370000AFA05F408F00308A74308FA05F848EA62
:100380000708C0F800804F68012F05D0022F03D066
:10039000112F01D0122F11D18768D1F80C80A743FB
:1003A00008FA05F848EA0708C0F808804768B74324
:1003B0000E79C6F300169E403E434660C668A643CB
:1003C0008C68AC403443C4604C68E40054D52F4C76
:1003D000A56945F00105A561A46923F0030504F0B2
:1003E000010400942A4C2E19B4689D072F0F09FAB6
:1003F00007F5AC43B0F1904F04D0264DA84203D18D
:10040000012512E0002510E0234DA84201D102256C
:100410000BE0224DA84201D1032506E0204DA84261
:1004200002D1042501E027E00525BD402543B56044
:10043000DBF800405D464E689443F60300D5144354
:100440002C60DEF8004075464E689443B60300D534
:1004500014432C600C4D08352C684E689443F6020A
:1004600000D514432C60084D0C352C684E6894431D
:10047000B60200D514432C605B1C0A6832FA03F400
:100480007FF45AAFBDE8F88F00040140001002402D
:10049000000001400004004800080048000C00482B
:1004A0000010004842690A4200D009048161704787
:1004B0000AB181617047816270470000014880681D
:1004C000704700000C000020024881680278114447
:1004D000816070470C000020074810B5016841F0AA
:1004E00010010160032000F06DF8002000F006F814
:1004F00000F024F8002010BD0020024070B50D4D22
:1005000004464FF47A712878B1FBF0F00A49096883
:10051000B1FBF0F000F062FD48B9102C07D20022C8
:100520002146501E00F02EF800206C6070BD0120A6
:1005300070BD00000C00002018000020094808B51C
:10054000816941F001018161816901F0010100913E
:10055000C16941F08051C161C06900F080500090D4
:1005600008BD000000100240002809DB00F01F0257
:10057000012191404009800000F1E020C0F8001105
:1005800070470000F0B40E4B1B680C46C3F3022307
:10059000C3F10705042D00D90425191D072901D22F
:1005A000002300E0DB1E012606FA05F1491E21406A
:1005B00099409E40761E16403143F0BC01F0F9B9D7
:1005C0000CED00E0064900F0070208684FF6FF0353
:1005D000184040EA0220034A1043086070470000B8
:1005E0000CED00E00000FA052DE9F84F0446006824
:1005F000804DC0036FD5E8690026C00008D4E869C3
:1006000040F08050E861E869012600F080500090D9
:1006100079480168C90512D40168804641F48071A7
:100620000160FFF74BFF074605E000BFFFF746FFFD
:10063000C01B642835D8D8F80000C005F6D5286A54
:1006400010F4407053D0A18801F4407181424ED023
:10065000286A4FF4803191FAA1F2B2FA82F297003F
:10066000664A4FF00108174420F44070C7F8008430
:1006700091FAA1F1B1FA81F102EB81010023C1F8F5
:1006800000342862C00732D0FFF718FF074641F256
:10069000883A4FF0020907E0FFF710FFC11B5145F0
:1006A00002D90320BDE8F88F99FAA9F1B1FA81F1D6
:1006B00041F040014846B8EB511F01D129680CE0D8
:1006C00090FAA0F1B1FA81F141F04001B0EB511F75
:1006D00002D1296A01E015E0696A99FAA9F0B0FA35
:1006E00080F000F01F0008FA00F21142D4D0286A0E
:1006F000616820F44070084328621EB1E86920F068
:100700008050E8612078C00705D0286BA16820F0F0
:100710000300084328632078800705D5286BE1682B
:1007200020F44030084328632078400705D5286B23
:10073000216920F44020084328632078800605D5ED
:10074000286BE16920F010000843286320688003CB
:1007500005D56868A16B20F48000084368602078A4
:10076000400605D5286B216A20F020000843286345
:100770002078000705D5286B616920F440100843F4
:1007800028632078C00605D5286BA16920F44000B5
:10079000084328632088800505D56868E16A20F44D
:1007A0000000084368602078000605D5E86A616AA1
:1007B00020F4F8700843E8622088C00505D5E86A8F
:1007C000A16A20F478500843E8622088C00405D567
:1007D000286B216B20F480700843286320888004F4
:1007E00005D5286B616B20F4007008432863002056
:1007F00058E7000000100240007000400000424234
:100800002DE9F0470F46050069D04A4E306800F0E8
:100810000700B84209D2306820F007003843306042
:10082000306800F00700B84259D12878424C800760
:1008300005D56068A96820F0F0000843606028785A
:10084000C0073DD06968012001290DD0022923D0BD
:100850005FF0020393FAA3F2B2FA82F242F02002AE
:10086000520904D0226803E04FF40033F2E7626AD1
:1008700093FAA3F3B3FA83F303F01F039840024201
:100880002DD0606820F0030008436060FFF716FE7B
:10089000804641F288390CE04FF00073DAE700BF80
:1008A000FFF70CFEA0EB0801494502D90320BDE883
:1008B000F0876068696800F00C00B0EB810FEFD141
:1008C000306800F00700B8420BD9306820F007000C
:1008D00038433060306800F00700B84201D0012092
:1008E000E5E72878400705D56068E96820F4E0600E
:1008F000084360602878000706D56068296920F4FD
:10090000605040EAC100606000F04EF86168F0227B
:1009100092FAA2F201F0F001B2FA82F2D140074A53
:10092000515CC8400649086006480068FFF7E6FDCC
:100930000020BCE70020024000100240541A0008CA
:100940001800002010000020084809490068496884
:100950004FF4E06292FAA2F201F4E061B2FA82F29C
:10096000D140044A515CC840704700001800002084
:1009700000100240641A00080848094900684968E4
:100980004FF4605292FAA2F201F46051B2FA82F28C
:10099000D140044A515CC840704700001800002054
:1009A00000100240641A0008164A10B55168164833
:1009B00001F00C03042B20D0082B1ED14FF470142F
:1009C00094FAA4F401F47013B4FA84F4E3400F4CE5
:1009D000D26AE45C0F2393FAA3F302F00F02B3FA96
:1009E00083F3DA40094B1033C9039A5C06D5002320
:1009F0001946FFF7E5FBA0FB040110BD0448A4FB6A
:100A0000000110BD0010024000127A00341A0008E4
:100A100000093D002DE9F84F050071D02878FC4E03
:100A2000C0074FF0010425D070686704C0F381004F
:100A3000012807D07068C0F3810002281BD17068BC
:100A4000C00318D597FAA7F0B0FA80F040F0200064
:100A5000400901D0306800E0706A97FAA7F1B1FA56
:100A600081F101F01F0104FA01F1084265D06868C4
:100A70000028D2D061E06868B0F5803F0BD010B19B
:100A8000B0F5A02F17D0306820F480303060306887
:100A900020F4802002E0306840F480303060F06A5A
:100AA000A96820F00F000843F062686820B3FFF7E0
:100AB00005FD80460AE0306840F480203060EAE7B7
:100AC000FFF7FCFCA0EB0800642871D897FAA7F0A8
:100AD000B0FA80F040F02000400901D0306800E01A
:100AE000706A97FAA7F1B1FA81F101F01F0104FAD7
:100AF00001F10842E4D020E0FFF7E0FC804607E087
:100B0000C2E000BFFFF7DAFCA0EB08006428DCD8E5
:100B100097FAA7F0B0FA80F040F02000400901D029
:100B2000306800E0706A97FAA7F1B1FA81F101F03C
:100B30001F0104FA01F10842E4D12878DFF8D482D9
:100B400080074FF0000A4FF0020730D570684FF071
:100B5000F80B10F00C0F07D07068C0F3810002286A
:100B600027D17068C00324D497FAA7F0B0FA80F0B8
:100B700040F02000400901D0306800E0706A97FA28
:100B8000A7F1B1FA81F101F01F0104FA01F1084265
:100B900002D02869012877D130689BFAABF220F0A7
:100BA000F8016869B2FA82F29040014331605AE07C
:100BB00064E1286988B394FAA4F0B0FA80F048F8A8
:100BC0002040FFF77BFC814606E000BFFFF776FC84
:100BD000A0EB090002289AD897FAA7F0B0FA80F0A3
:100BE00040F02000400901D0306800E0706A97FAB8
:100BF000A7F1B1FA81F101F01F0104FA01F10842F5
:100C0000E4D030689BFAABF26969B2FA82F220F064
:100C1000F80091400843306025E0FFE794FAA4F023
:100C2000B0FA80F048F820A0FFF748FC814605E0C4
:100C3000FFF744FCA0EB09000228CCD897FAA7F0F4
:100C4000B0FA80F040F02000400901D0306800E0A8
:100C5000706A97FAA7F1B1FA81F101F01F0104FA65
:100C600001F10842E4D1287800076CD5A869A8B33F
:100C700094FAA4F0B0FA80F008EB8000C0F8804449
:100C8000FFF71CFC814607E0A4E100BFFFF716FC5C
:100C9000A0EB090002289ED897FAA7F0B0FA80F0DE
:100CA00040F06000B4EB501F01D130680BE097FAC0
:100CB000A7F0B0FA80F040F06000B7EB501F01D110
:100CC000306A00E0706A97FAA7F1B1FA81F101F099
:100CD0001F0104FA01F21042D8D034E0FFE794FA81
:100CE000A4F1B1FA81F108EB8101C1F880A4FFF70A
:100CF000E5FB814606E000BFFFF7E0FBA0EB090043
:100D000002289AD897FAA7F0B0FA80F040F0600075
:100D1000B4EB501F01D130680BE097FAA7F0B0FA9E
:100D200080F040F06000B7EB501F01D1306A00E066
:100D3000706A97FAA7F1B1FA81F101F01F0104FA84
:100D400001F21042D8D12878400768D5F0694FF0F9
:100D50000009C00009D4F06940F08050F061F069EA
:100D60004FF0010900F0805000902B480168C90540
:100D700012D4016841F480710160FFF79FFB834644
:100D800006E000BFFFF79AFBA0EB0B00642875D8C4
:100D900021480068C005F5D5E86801280AD008B1E7
:100DA000052811D0306A20F001003062306A20F04E
:100DB000040002E0306A40F001003062E86868B385
:100DC000FFF77CFB83460DE0306A40F004003062A0
:100DD000F0E700BFFFF772FBA0EB0B0141F2883098
:100DE00081424BD897FAA7F0B0FA80F040F040006B
:100DF000B4EB501F01D1306813E097FAA7F0B0FAB6
:100E000080F040F04000B7EB501F09D1306A08E095
:100E10000010024000004242007000400CE040E040
:100E2000706A97FAA7F1B1FA81F101F01F0104FA93
:100E300001F21042CED02DE0FFF740FB834607E0E1
:100E4000FFF73CFBA0EB0B0141F28830814215D843
:100E500097FAA7F0B0FA80F040F04000B4EB501FD2
:100E600001D130680CE097FAA7F0B0FA80F040F0BA
:100E70004000B7EB501F02D1306A01E083E0706A96
:100E800097FAA7F1B1FA81F101F01F0104FA01F21A
:100E90001042D5D1B9F1000F03D0F06920F0805095
:100EA000F061E86980B37168C1F38101022977D0EC
:100EB0004FF080714F000228504609D091FAA1F1FD
:100EC000B1FA81F148F82100FFF7F8FA05465DE034
:100ED000894691FAA1F1B1FA81F1C24648F82100A0
:100EE000FFF7ECFA804605E0FFF7E8FAA0EB080010
:100EF000022848D897FAA7F0B0FA80F040F0200016
:100F0000400902D0306801E066E0706A97FAA7F104
:100F1000B1FA81F101F01F0104FA01F10842E3D1B5
:100F2000D5E908100843716821F474110843706012
:100F300099FAA9F0B0FA80F04AF82040FFF7BEFA1B
:100F4000054604E0FFF7BAFA401B02281BD897FABF
:100F5000A7F0B0FA80F040F02000400901D03068DE
:100F600000E0706A97FAA7F1B1FA81F101F01F0170
:100F700004FA01F10842E5D02EE000BFFFF79EFA27
:100F8000401B022802D90320BDE8F88F97FAA7F08A
:100F9000B0FA80F040F02000400902D0306801E053
:100FA0000BE0706A97FAA7F1B1FA81F101F01F0125
:100FB00004FA01F10842E1D10EE00128E4D07068A2
:100FC0002A6A00F48031914204D1696A00F47010F9
:100FD000884201D00120D7E70020D5E710B5401E98
:100FE000B0F1807F01D3012010BD4FF0E02460619B
:100FF0000F21601700F0DDFC0020A06107202061B8
:10100000002010BD704770472DE9F041026804468A
:10101000D0691168936840F60F0528424FF000052B
:1010200005D186067BD58E0679D5216E88E003F042
:10103000010601F49077374371D0C70707D0CF0579
:1010400005D501271762E26F42F00102E2678207CD
:1010500008D5DA0706D0276802223A62E26F42F02A
:101060000402E267420708D5DA0706D023680422A3
:101070001A62E26F42F00202E26702070AD501F04B
:101080002002324306D0236808221A62E26F42F03F
:101090000802E267020509D54A0107D523684FF423
:1010A00000621A62E26F42F02002E267E26F002AF9
:1010B0002ED0800605D5880603D5216E09B12046BD
:1010C0008847E06F21688968490602D410F0280F2C
:1010D00020D0204600F066FA20688168490614D5C1
:1010E000816821F040018160E06E70B11D4941636B
:1010F000E06EFFF7DBF800280AD0E06E416B00E0FD
:101100002046BDE8F041084709E02046FFF77BFF95
:10111000BDE8F0812046FFF776FFE567F8E7C602F5
:1011200009D55B0207D54FF4801010622046BDE858
:10113000F041FFF767BF030605D50B0603D5616EC7
:101140000029DDD1E4E74006E2D54806E0D5116884
:10115000204621F04001116020216167656600F0A2
:10116000F3F8D5E79115000810B5040002D0606FC0
:1011700010B107E0012010BD002084F87000204667
:1011800000F026F8242060672068016821F0010142
:101190000160204600F070FA0128ECD0606A10B1BE
:1011A000204600F065F92068416821F490414160D3
:1011B0002068816821F02A0181602068016841F07F
:1011C000010101602046BDE8104000F0B5B9000003
:1011D00010B586B0044614216846FFF739F8164961
:1011E0002068884226D11548816941F48041816197
:1011F000816901F480410591416941F40021416117
:101200004069694600F400200590302000900220DB
:1012100001900020029003200390072004900848CA
:10122000FFF77CF8002211462520FFF7ABF92520B7
:10123000FFF79AF906B010BD0038014000100240D7
:101240000008004810B5836F202B42D1B1B1AAB17C
:1012500090F87030012B3CD0012380F8703041654C
:10126000A0F85820A0F85A20002101661C038268CB
:10127000FF23A24207D1026912B125E0012010BD6F
:1012800040F2FF121DE0CAB1A0F85C10C167222233
:1012900082670268936843F0010393608268A24208
:1012A00001D102699AB10C4A026680F87010006898
:1012B000016841F490710160002010BD02691AB10B
:1012C0007F22A0F85C20E1E7A0F85C30DEE7034A6B
:1012D000EAE7022010BD00001D160008C315000833
:1012E00070470000436F202B28D1B1B1AAB190F80C
:1012F0007030012B22D0012380F87030C164A0F837
:101300005020A0F8522000214166C1672122426787
:101310008268B2F5805F02D003E001207047026965
:1013200052B1074A426680F870100068016841F0C7
:101330008001016000207047024AF3E702207047F5
:10134000A1180008611800087047FEE730B587B0A3
:1013500014216846FEF77CFF1648416941F480017C
:101360004161416901F480010591416941F4002125
:101370004161416901F400210591416941F4001185
:10138000416140690C4D00F400104FF40844059091
:10139000002221462846FFF78BF801200021009407
:1013A000CDE90101039169462846FEF7B7FF07B072
:1013B00030BD0000001002400010004809480849F4
:1013C00001604FF416514160002181600C22C16020
:1013D000C0E904128161C16101624162FFF7C4BECC
:1013E000003801401C000020FEE77047704770473E
:1013F000FFF76AB870B59EB028216846FEF728FF4F
:10140000142119A8FEF724FF3C210AA8FEF720FFAB
:1014100001252804CDE900500024029402260495F9
:10142000CDE907604FF4E01009906846FFF7F2FA43
:101430000F20CDE91906A802CDE91B40022119A809
:101440001D94FFF7DDF90AA80A950C94FFF7CCF874
:101450001EB070BD0548016841F470010160034988
:101460004FF00060803908607047000088ED00E0B0
:1014700090F82410C90706D001684A68836A22F4EC
:1014800000321A434A6090F82410890706D5016893
:101490004A68C36A22F480321A434A6090F82410E2
:1014A000490706D501684A68036B22F480221A4373
:1014B0004A6090F82410090706D501684A68436B12
:1014C00022F400421A434A6090F82410C90606D557
:1014D00001688A68836B22F480521A438A6090F80C
:1014E0002410890606D501688A68C36B22F400526D
:1014F0001A438A6090F82410490611D501684A6899
:10150000036C22F480121A434A60016CB1F5801F0B
:1015100006D101684A68436C22F4C0021A434A604B
:1015200090F82410090606D501684A68806C22F4F8
:10153000002202434A607047F8B500260446C66799
:10154000FEF7BCFF0546206800686FF07E47000785
:1015500008D52B4600224FF400112046009700F0DA
:10156000BDF960B92068006840070AD52B46002203
:101570004FF480012046009700F0B0F908B1032035
:10158000F8BD20206067A06784F870600020F8BD77
:1015900010B5406A0021A0F85A10A0F85210FFF7C9
:1015A00032FD10BD01680A6822F490720A60016879
:1015B0008A6822F001028A60202181670021016689
:1015C000704710B5B0F85C20836F0168222B04D0FF
:1015D000886940F00800886110BD898C436D114016
:1015E0001980416D891C4165B0F85A10491EA0F858
:1015F0005A10B0F85A100029EED101680A6822F496
:1016000090720A6001688A6822F001028A602021D3
:10161000816700210166FFF763FE10BD10B5B0F8C9
:101620005C20836F0168222B04D0886940F0080099
:10163000886110BD898C1140426D1170416D491C4B
:101640004165B0F85A10491EA0F85A10B0F85A1067
:101650000029EED101680A6822F490720A600168DC
:101660008A6822F001028A602021816700210166D8
:10167000FFF736FE10BD000070B504468068216992
:10168000E2690843616900251143084321680A683B
:1016900049F20C639A4302430A6020684168E26899
:1016A00021F4405111434160A169206A0843216837
:1016B0008A6822F4306202438A60614B2068614983
:1016C0004FF4803298420CD1086B10F0030006D022
:1016D00001285DD002285DD0032844D156E00121C5
:1016E00042E0594B98420CD1086B10F440304BD07B
:1016F00090424DD0B0F5003F4CD0B0F5403F32D1D4
:1017000044E0524B98420DD1086B10F440203BD07E
:10171000B0F5802F3CD0B0F5002F3BD0B0F5402F76
:1017200021D133E04A4B98420DD1086B10F44010A0
:101730002AD0B0F5801F2BD0B0F5001F2AD0B0F50D
:10174000401F10D122E0434B98420CD1086B10F49B
:10175000400019D0B0F5800F1AD0B0F5000F19D0A5
:10176000B0F5400F12D01021E0694FF400434FF65E
:10177000EF76984234D109295BD2DFE801F00D10F1
:10178000275A2A5A5A5A2D000021EDE70221EBE789
:101790000421E9E70821E7E7FFF7D6F801E0FFF7C2
:1017A000EBF84100D4F8040001EB5001B1FBF0F07C
:1017B00080B2A0F11001B1423BD84FF6F071014068
:1017C000C0F3420001432068C16033E022496068F1
:1017D000EAE7FFF7E9F8E4E7606802EB5001E5E7C4
:1017E000092926D2DFE801F0050817251C25252543
:1017F0001F00FFF7A9F801E0FFF7BEF8616800EBF2
:101800005100B0FBF1F080B2A0F11001B14210D84C
:101810002168C8600EE01149606801EB500105E0E5
:10182000FFF7C2F8EAE7606803EB5001B1FBF0F0A4
:10183000E9E70125002020666066284670BD0000AB
:1018400000380140001002400044004000480040C1
:10185000004C0040005000400024F40000127A00C8
:10186000416F212910D1B0F8521071B1C16C0268DA
:101870000988C1F308011185C16C891CC164B0F8E5
:101880005210491EA0F85210704701680A6822F0F1
:1018900080020A600068016841F040010160704701
:1018A000416F21290ED1B0F8521061B1C16C0268AC
:1018B00009781185C16C491CC164B0F85210491EE9
:1018C000A0F85210704701680A6822F080020A608E
:1018D0000068016841F04001016070472DE9F04760
:1018E0009A4617460E4604464FF000094FF020086E
:1018F000089D39E0681C37D0FEF7E0FDA0EB0A0038
:10190000A84222D80DB32068016849072CD5C069C8
:10191000C043000528D421684FF4006008622068A5
:10192000016821F4D07101602068816821F0010113
:101930008160C4F87480C4F87880C4F87C8000BFEB
:1019400084F870900320BDE8F0872068016821F4D6
:10195000D07101602068816821F001018160C4F8C4
:101960007480C4F87880EBE72068C06936EA00002C
:1019700004D00020B842BDD00020E4E70120F9E700
:1019800010B50848FFF740FB052207490548FFF757
:1019900059FC064808220168BDE810400148FFF7DD
:1019A000A1BC00001C00002004000020000000205A
:1019B000FEE70907090E002804DB00F1E02080F8AB
:1019C0000014704700F00F0000F1E02080F8141DB3
:1019D000704702E008C8121F08C1002AFAD17047F8
:1019E0007047002001E001C1121F002AFBD170479F
:1019F000FEF772FDFFF7FEFCFFF7A8FCFFF7DEFC29
:101A00000A4801680A6842F020020A60006801681A
:101A100041F040010160064D4FF40844214628463C
:101A2000FEF740FDC820FEF767FCF7E71C0000202A
:101A30000010004802030405060708090A0B0C0DF4
:101A40000E0F10100102030405060708090A0B0C0B
:101A50000D0E0F1000000000000000000102030442
:101A600006070809000000000102030448656C6CC9
:101A70006F210A0D00000000981A000800000020E5
:101A80001C000000D2190008B41A00081C00002035
:101A900084040000E21900086C1A0008000000002D
:101AA0000000000001000000100000000000000025
:041AB00000127A00A6
:040000050800018965
:00000001FF
