:020000040800F2
:10000000701E00205D020008FF1800083D1800085F
:10001000FD180008B9030008AD200008000000002A
:100020000000000000000000000000009D0100082A
:100030002F04000800000000F9010008CD1A000894
:1000400077020008770200087702000877020008AC
:10005000770200087702000877020008770200089C
:10006000770200087702000877020008770200088C
:100070007702000877020008BD0300087702000835
:10008000770200087702000877020008770200086C
:10009000770200087702000877020008770200085C
:1000A000770200087702000877020008770200084C
:1000B000770200087702000877020008770200083C
:1000C000770200087702000877020008770200082C
:1000D00077020008A12000087702000877020008D4
:1000E000770200087702000877020008770200080C
:1000F00077020008770200087702000877020008FC
:10010000000000000000000000000000770200086E
:10011000770200087702000877020008751B0008C4
:1001200077020008770200087702000877020008CB
:1001300077020008770200080000000000000000BD
:10014000770200087702000877020008000000002C
:10015000000000000000000000000000000000009F
:10016000000000000000000077020008770200088D
:1001700077020008000000000000000000000000FE
:100180000000000077020008DFF80CD000F002F950
:100190000048004779220008701E00202C4B196887
:1001A0000868B0E8F04F80F30988BFF36F8F4FF015
:1001B000000080F3118870470000000008480068C4
:1001C000006880F308884FF0000080F3148862B65E
:1001D00061B6BFF34F8FBFF36F8F00DF00BF00BF6B
:1001E00008ED00E0DFF80C00016841F470010160E7
:1001F000704700BF88ED00E0EFF30980BFF36F8F19
:10020000134B1A681EF0100F08BF20ED108A20E96A
:10021000F04F106009B44FF0500080F31188BFF325
:100220004F8FBFF36F8F03F03BF84FF0000080F368
:10023000118809BC19680868B0E8F04F1EF0100F6B
:1002400008BFB0EC108A80F30988BFF36F8F704746
:100250001C000020EFF3058070470000064880472F
:1002600006480047FEE7FEE7FEE7FEE7FEE7FEE79B
:10027000FEE7FEE7FEE7FEE7591B000889010008DC
:100280002DE9F05F0546002092469B4688460646CB
:10029000814640241BE0284641464746224600F05E
:1002A00020F853465A46C01A914110D311461846B9
:1002B000224600F060F82D1A67EB01084F462246EF
:1002C0000120002100F057F817EB00094E41201ED5
:1002D000A4F10104DFDC484631462A464346BDE826
:1002E000F09F202A04DB203A21FA02F00021704717
:1002F00021FA02F3D040C2F120029140084319468E
:10030000704740EA01039B0703D009E008C9121FA8
:1003100008C0042AFAD203E011F8013B00F8013BBF
:10032000521EF9D27047D2B201E000F8012B491EEB
:10033000FBD270470022F6E710B513460A46044682
:100340001946FFF7F0FF204610BD30B50B460146B9
:1003500000202022012409E021FA02F59D4205D364
:1003600003FA02F5491B04FA02F52844151EA2F10E
:100370000102F1DC30BD202A04DB203A00FA02F150
:10038000002070479140C2F1200320FA03F3194383
:1003900090407047064C074D06E0E06840F00103CE
:1003A00094E8070098471034AC42F6D3FFF7F0FE0C
:1003B000683E0008883E0008FEE70000014800F0A3
:1003C0005DB80000140100200B4B01681422994213
:1003D00007D20A4B1944B1FBF2F1890001640849C4
:1003E00008E0054B5B421944B1FBF2F1890001645E
:1003F00001490839C163704708040240F8FFFDBF96
:100400000000024030B590F840500124AC40C56B6C
:100410006C60046863604368102B036803D09960C4
:100420000068C26030BD9A600068C16030BD70472E
:10043000704710B590F821100024022903D0042140
:100440008163012418E001680A6822F00E020A6044
:1004500001680A6822F001020A6090F84020C36B2C
:10046000012101FA02F25A6080F82110002180F87F
:100470002010416B01B18847204610BDF0B4C16B1C
:100480000D6801680C68066C042202FA06F32B4220
:100490000FD063070DD50B689B0603D40B6823F0C0
:1004A00004030B6090F840108A40C16B4A60C16A37
:1004B0001BE0022303FA06F72F424FF0000C4FF027
:1004C000010216D0A70714D50C68A40605D40C6841
:1004D00024F00A040C6080F8212090F840108B4032
:1004E000C16B4B6080F820C0816A002918D0F0BC35
:1004F00008470823B3402B4212D0230710D50B68BE
:1005000023F00E030B6090F84010C36B02FA01F168
:100510005960826380F8212080F820C0016BE4E7F5
:10052000F0BC704770B5040021D0022084F821008F
:100530002268116843F6F0708143D4E9010318433F
:10054000D4E903352B43184363691843A36918435F
:10055000E3691843084310602046FFF735FF002089
:10056000A063012184F8211084F8200070BD0120CF
:1005700070BD70B5044690F82000002501280CD00D
:10058000012084F8200094F821600020012E06D07C
:1005900084F820000225284670BD022070BD022686
:1005A00084F82160A0632068066826F001060660D2
:1005B0002046FFF727FFE06A00282068016802D084
:1005C00041F00E0106E041F00A0101602068016877
:1005D00021F0040101602068016841F0010101601F
:1005E000D9E700002DE9F84FDFF864B100234FF0A0
:1005F000010C4FF0030A4FF00F090BF1040EA0E0BD
:100600000CFA03F6324072D04C68022C01D0122C46
:100610000ED1DC0800EB8408D8F820405D07EF0E0F
:1006200009FA07F5AC430D69BD402543C8F82050D1
:1006300007685D0091F804800AFA05F408F00308E1
:10064000A74308FA05F848EA0708C0F800804F6891
:10065000012F05D0022F03D0112F01D0122F11D15D
:100660008768D1F80C80A74308FA05F848EA07081C
:10067000C0F808804768B7430E79C6F300169E405D
:100680003E434660C668A6438C68AC403443C460B1
:100690004C68E40054D52F4CA56945F00105A561CF
:1006A000A46923F0030504F0010400942A4C2E19D8
:1006B000B4689D072F0F09FA07F5AC43B0F1904FCE
:1006C00004D0264DA84203D1012512E0002510E0F8
:1006D000234DA84201D102250BE0224DA84201D1B1
:1006E000032506E0204DA84202D1042501E027E0C1
:1006F0000525BD402543B560DBF800405D464E68EA
:100700009443F60300D514432C60DEF80040754690
:100710004E689443B60300D514432C600C4D083545
:100720002C684E689443F60200D514432C60084DA3
:100730000C352C684E689443B60200D514432C60E7
:100740005B1C0A6832FA03F47FF45AAFBDE8F88FF5
:100750000004014000100240000001400004004875
:1007600000080048000C00480010004800690840DC
:1007700000D00120704742690A4200D0090481611B
:1007800070470AB181617047816270470148806893
:10079000704700000C000020024881680278114474
:1007A000816070470C000020074810B5016841F0D7
:1007B00010010160032000F08BF8002000F006F823
:1007C00000F03EF8002010BD0020024000B50146B8
:1007D00087B00022372000F05BF8372000F04AF89D
:1007E0001348C16941F02001C161C06905A900F049
:1007F00020000690684600F02DFA00F04BFA0D49F3
:100800004000B0FBF1F10D480B4A491E0260416007
:1008100040F2E7320021C0E90321816000F087FD4A
:1008200010B1012007B000BD044800F09DFDF9E7BC
:100830000010024040420F00001400405801002008
:100840000B4882B0816941F001018161816901F049
:1008500001010091C16941F08051C161C06900226C
:1008600000F0805000900F21901E02B000F010B8F0
:1008700000100240002809DB00F01F020121914016
:100880004009800000F1E020C0F80011704700002E
:10089000F0B40E4B1B680C46C3F30223C3F10705EB
:1008A000042D00D90425191D072901D2002300E0D9
:1008B000DB1E012606FA05F1491E214099409E40A3
:1008C000761E16403143F0BC01F006BC0CED00E092
:1008D000064900F0070208684FF6FF03184040EA97
:1008E0000220034A10430860704700000CED00E04E
:1008F0000000FA052DE9F84F04460068804DC0035A
:100900006FD5E8690026C00008D4E86940F080503F
:10091000E861E869012600F080500090794801689C
:10092000C90512D40168804641F480710160FFF767
:100930002DFF074605E000BFFFF728FFC01B642816
:1009400035D8D8F80000C005F6D5286A10F44070F4
:1009500053D0A18801F4407181424ED0286A4FF4EF
:10096000803191FAA1F2B2FA82F29700664A4FF012
:100970000108174420F44070C7F8008491FAA1F1EF
:10098000B1FA81F102EB81010023C1F80034286241
:10099000C00732D0FFF7FAFE074641F2883A4FF01F
:1009A000020907E0FFF7F2FEC11B514502D90320FF
:1009B000BDE8F88F99FAA9F1B1FA81F141F040014F
:1009C0004846B8EB511F01D129680CE090FAA0F11C
:1009D000B1FA81F141F04001B0EB511F02D1296A17
:1009E00001E015E0696A99FAA9F0B0FA80F000F028
:1009F0001F0008FA00F21142D4D0286A616820F47E
:100A00004070084328621EB1E86920F08050E86118
:100A10002078C00705D0286BA16820F003000843A8
:100A200028632078800705D5286BE16820F44030E2
:100A3000084328632078400705D5286B216920F4F6
:100A40004020084328632078800605D5286BE1699B
:100A500020F01000084328632068800305D56868EB
:100A6000A16B20F48000084368602078400605D51B
:100A7000286B216A20F020000843286320780007B3
:100A800005D5286B616920F440100843286320785D
:100A9000C00605D5286BA16920F4400008432863EF
:100AA0002088800505D56868E16A20F400000843C5
:100AB00068602078000605D5E86A616A20F4F8705D
:100AC0000843E8622088C00505D5E86AA16A20F4D9
:100AD00078500843E8622088C00405D5286B216B54
:100AE00020F48070084328632088800405D5286B93
:100AF000616B20F4007008432863002058E7000071
:100B00000010024000700040000042422DE9F04712
:100B10000F46050069D04A4E306800F00700B84221
:100B200009D2306820F0070038433060306800F0A8
:100B30000700B84259D12878424C800705D5606833
:100B4000A96820F0F000084360602878C0073DD015
:100B50006968012001290DD0022923D05FF002032A
:100B600093FAA3F2B2FA82F242F02002520904D0C0
:100B7000226803E04FF40033F2E7626A93FAA3F3CA
:100B8000B3FA83F303F01F03984002422DD060684C
:100B900020F0030008436060FFF7F8FD804641F253
:100BA00088390CE04FF00073DAE700BFFFF7EEFD85
:100BB000A0EB0801494502D90320BDE8F087606831
:100BC000696800F00C00B0EB810FEFD1306800F0E5
:100BD0000700B8420BD9306820F007003843306076
:100BE000306800F00700B84201D00120E5E728781E
:100BF000400705D56068E96820F4E060084360605C
:100C00002878000706D56068296920F4605040EA1A
:100C1000C100606000F06EF86168F02292FAA2F202
:100C200001F0F001B2FA82F2D140074A515CC840AB
:100C30000649086006480068FFF7C8FD0020BCE7C9
:100C40000020024000100240303E00081800002042
:100C5000100000200F2202600C4A536803F00303C7
:100C60004360536803F0F0038360536803F4E06368
:100C7000C36052684FF4E06303EAD20202610448A1
:100C8000006800F007000860704700000010024094
:100C90000020024008480949006849684FF4E062B2
:100CA00092FAA2F201F4E061B2FA82F2D140044A6F
:100CB000515CC8407047000018000020001002403E
:100CC000403E000808480949006849684FF46052EE
:100CD00092FAA2F201F46051B2FA82F2D140044ACF
:100CE000515CC8407047000018000020001002400E
:100CF000403E0008164A10B55168164801F00C0332
:100D0000042B20D0082B1ED14FF4701494FAA4F4B5
:100D100001F47013B4FA84F4E3400F4CD26AE45C3B
:100D20000F2393FAA3F302F00F02B3FA83F3DA402E
:100D3000094B1033C9039A5C06D500231946FFF707
:100D40009FFAA0FB040110BD0448A4FB000110BDE4
:100D50000010024000127A00103E000800093D0019
:100D60002DE9F84F050071D02878FC4EC0074FF0F0
:100D7000010425D070686704C0F38100012807D002
:100D80007068C0F3810002281BD17068C00318D5B9
:100D900097FAA7F0B0FA80F040F02000400901D0A7
:100DA000306800E0706A97FAA7F1B1FA81F101F0BA
:100DB0001F0104FA01F1084265D068680028D2D00A
:100DC00061E06868B0F5803F0BD010B1B0F5A02F9E
:100DD00017D0306820F480303060306820F48020F4
:100DE00002E0306840F480303060F06AA96820F09A
:100DF0000F000843F062686820B3FFF7C7FC804625
:100E00000AE0306840F480203060EAE7FFF7BEFC7B
:100E1000A0EB0800642871D897FAA7F0B0FA80F028
:100E200040F02000400901D0306800E0706A97FA75
:100E3000A7F1B1FA81F101F01F0104FA01F10842B2
:100E4000E4D020E0FFF7A2FC804607E0C2E000BF4C
:100E5000FFF79CFCA0EB08006428DCD897FAA7F009
:100E6000B0FA80F040F02000400901D0306800E086
:100E7000706A97FAA7F1B1FA81F101F01F0104FA43
:100E800001F10842E4D12878DFF8D48280074FF0DE
:100E9000000A4FF0020730D570684FF0F80B10F0E1
:100EA0000C0F07D07068C0F38100022827D170684A
:100EB000C00324D497FAA7F0B0FA80F040F02000E5
:100EC000400901D0306800E0706A97FAA7F1B1FAE2
:100ED00081F101F01F0104FA01F1084202D02869F2
:100EE000012877D130689BFAABF220F0F8016869ED
:100EF000B2FA82F29040014331605AE064E128691D
:100F000088B394FAA4F0B0FA80F048F82040FFF7D4
:100F10003DFC814606E000BFFFF738FCA0EB09006E
:100F200002289AD897FAA7F0B0FA80F040F0200093
:100F3000400901D0306800E0706A97FAA7F1B1FA71
:100F400081F101F01F0104FA01F10842E4D0306898
:100F50009BFAABF26969B2FA82F220F0F800914094
:100F60000843306025E0FFE794FAA4F0B0FA80F07F
:100F700048F820A0FFF70AFC814605E0FFF706FCD1
:100F8000A0EB09000228CCD897FAA7F0B0FA80F0BD
:100F900040F02000400901D0306800E0706A97FA04
:100FA000A7F1B1FA81F101F01F0104FA01F1084241
:100FB000E4D1287800076CD5A869A8B394FAA4F006
:100FC000B0FA80F008EB8000C0F88044FFF7DEFB49
:100FD000814607E0A4E100BFFFF7D8FBA0EB0900C2
:100FE00002289ED897FAA7F0B0FA80F040F060008F
:100FF000B4EB501F01D130680BE097FAA7F0B0FABC
:1010000080F040F06000B7EB501F01D1306A00E083
:10101000706A97FAA7F1B1FA81F101F01F0104FAA1
:1010200001F21042D8D034E0FFE794FAA4F1B1FA0B
:1010300081F108EB8101C1F880A4FFF7A7FB81468D
:1010400006E000BFFFF7A2FBA0EB090002289AD838
:1010500097FAA7F0B0FA80F040F06000B4EB501FB0
:1010600001D130680BE097FAA7F0B0FA80F040F0B9
:101070006000B7EB501F01D1306A00E0706A97FA48
:10108000A7F1B1FA81F101F01F0104FA01F2104257
:10109000D8D12878400768D5F0694FF00009C00022
:1010A00009D4F06940F08050F061F0694FF0010917
:1010B00000F0805000902B480168C90512D40168E7
:1010C00041F480710160FFF761FB834606E000BFD9
:1010D000FFF75CFBA0EB0B00642875D82148006883
:1010E000C005F5D5E86801280AD008B1052811D057
:1010F000306A20F001003062306A20F0040002E023
:10110000306A40F001003062E86868B3FFF73EFBE8
:1011100083460DE0306A40F004003062F0E700BF23
:10112000FFF734FBA0EB0B0141F2883081424BD832
:1011300097FAA7F0B0FA80F040F04000B4EB501FEF
:1011400001D1306813E097FAA7F0B0FA80F040F0D0
:101150004000B7EB501F09D1306A08E00010024090
:1011600000004242007000400CE040E0706A97FAD4
:10117000A7F1B1FA81F101F01F0104FA01F2104266
:10118000CED02DE0FFF702FB834607E0FFF7FEFA23
:10119000A0EB0B0141F28830814215D897FAA7F0F5
:1011A000B0FA80F040F04000B4EB501F01D130683D
:1011B0000CE097FAA7F0B0FA80F040F04000B7EBEF
:1011C000501F02D1306A01E083E0706A97FAA7F1FC
:1011D000B1FA81F101F01F0104FA01F21042D5D1F8
:1011E000B9F1000F03D0F06920F08050F061E86998
:1011F00080B37168C1F38101022977D04FF080710B
:101200004F000228504609D091FAA1F1B1FA81F1BC
:1012100048F82100FFF7BAFA05465DE0894691FAE1
:10122000A1F1B1FA81F1C24648F82100FFF7AEFA08
:10123000804605E0FFF7AAFAA0EB0800022848D88C
:1012400097FAA7F0B0FA80F040F02000400902D0F1
:10125000306801E066E0706A97FAA7F1B1FA81F1AF
:1012600001F01F0104FA01F10842E3D1D5E90810A9
:101270000843716821F474110843706099FAA9F069
:10128000B0FA80F04AF82040FFF780FA054604E003
:10129000FFF77CFA401B02281BD897FAA7F0B0FA98
:1012A00080F040F02000400901D0306800E0706A12
:1012B00097FAA7F1B1FA81F101F01F0104FA01F1E7
:1012C0000842E5D02EE000BFFFF760FA401B02287D
:1012D00002D90320BDE8F88F97FAA7F0B0FA80F0A2
:1012E00040F02000400902D0306801E00BE0706A55
:1012F00097FAA7F1B1FA81F101F01F0104FA01F1A7
:101300000842E1D10EE00128E4D070682A6A00F4B6
:101310008031914204D1696A00F47010884201D092
:101320000120D7E70020D5E770477047704710B518
:10133000040003D094F83D0010B107E0012010BD77
:10134000002084F83C00204600F00CF8022084F8CD
:101350003D00211D206800F013FC012084F83D00B1
:10136000002010BD704700000168CA6842F0010209
:10137000CA6001688868064A1040062806D0B0F5A1
:10138000803F03D0086840F00100086000207047EB
:1013900007000100704770B50446006801694FF00E
:1013A0000005C943890715D4C168C943890711D409
:1013B000E91E0161012020772068806980072046AE
:1013C00002D0FFF7E7FF04E000F0A7F8204600F0A6
:1013D000A5F8257720680169C943490717D4C16872
:1013E000C943490713D46FF004010161022020773B
:1013F0002068806910F4407F204602D0FFF7CAFFC2
:1014000004E000F08AF8204600F088F8257720688C
:101410000169C943090716D4C168C943090712D431
:101420006FF008010161042020772068C0698007FF
:10143000204602D0FFF7AEFF04E000F06EF8204631
:1014400000F06CF8257720680169C943C90617D4F4
:10145000C168C943C90613D46FF0100101610820A7
:1014600020772068C06910F4407F204602D0FFF743
:1014700091FF04E000F051F8204600F04FF8257786
:1014800020680169C943C90708D1C168C943C907B0
:1014900004D1891E0161204600F042F820680169EC
:1014A000C943090609D4C168C943090605D46FF0C8
:1014B000800101612046FFF738FF20680169C943B8
:1014C000C90509D4C168C943090605D46FF4807100
:1014D00001612046FFF728FF20680169C9434906DA
:1014E00009D4C168C943490605D46FF040010161C0
:1014F000204600F01FF820680169C94389060BD413
:10150000C168C943890607D46FF0200101612046F4
:10151000BDE87040FFF70ABF70BD7047704700001C
:1015200000680349884201D1FFF736B970470000CF
:101530000014004070477047704700002DE9F041EB
:1015400002680446D0691168936840F60F05284286
:101550004FF0000505D186067BD58E0679D5216E24
:1015600088E003F0010601F49077374371D0C70794
:1015700007D0CF0505D501271762E26F42F00102BF
:10158000E267820708D5DA0706D0276802223A62A6
:10159000E26F42F00402E267420708D5DA0706D09C
:1015A000236804221A62E26F42F00202E267020735
:1015B0000AD501F02002324306D0236808221A62BD
:1015C000E26F42F00802E267020509D54A0107D539
:1015D00023684FF400621A62E26F42F02002E26771
:1015E000E26F002A2ED0800605D5880603D5216E2D
:1015F00009B120468847E06F21688968490602D40E
:1016000010F0280F20D0204600F0ECFB2068816805
:10161000490614D5816821F040018160E06E70B107
:101620001D494163E06EFEF704FF00280AD0E06E1A
:10163000416B00E02046BDE8F041084709E0204644
:10164000FFF77AFFBDE8F0812046FFF775FFE567F9
:10165000F8E7C60209D55B0207D54FF48010106287
:101660002046BDE8F041FFF766BF030605D50B062F
:1016700003D5616E0029DDD1E4E74006E2D54806D6
:10168000E0D51168204621F04001116020216167FA
:10169000656600F0D1F8D5E7511D000810B50400CB
:1016A00002D0606F10B107E0012010BD002084F867
:1016B0007000204600F026F824206067206801684A
:1016C00021F001010160204600F0A4FB0128ECD0CC
:1016D000606A10B1204600F0ABFA2068416821F43E
:1016E000904141602068816821F02A018160206872
:1016F000016841F0010101602046BDE8104000F0A2
:10170000FBBA000070B586B0064614216846FEF7A5
:1017100011FE2049306888423AD11F49886940F457
:1017200080408861886900F480400590486940F4F1
:10173000002048614869002500F400200590302011
:1017400000900220CDE901050320039007200490BA
:1017500069461248FEF746FF124C114820601020DF
:10176000C4E901058020C4E903056561A56120463F
:10177000E561FEF7D7FE08B1FEF75AFEB466002217
:10178000052125206662FFF783F82520FFF772F810
:1017900006B070BD0038014000100240000800484B
:1017A000440002401401002070B50446406F202818
:1017B0003AD159B352B394F87000012834D00120C3
:1017C00084F87000E164A4F85020A4F852200025A9
:1017D000E56721206067A06ED0B114498162A16ED7
:1017E00013481346C862A16E12480863A06E456391
:1017F0002668E16C06F12802A06EFEF7BAFE38B149
:101800001020E06784F8705020206067012070BDD0
:1018100021684020086284F870502068816841F097
:1018200080018160002070BD022070BDAD1D0008E8
:10183000DB1D0008651D000870477047FEE70000CB
:10184000F0B587B014216846FEF774FD1E48416963
:1018500041F480014161416901F4800105914169D0
:1018600041F400314161416901F400310591416960
:1018700041F400214161416901F400210591416970
:1018800041F4001141614069104F00F400104FF421
:101890007F460590002231463846FEF772FF00244D
:1018A0000125CDE9005469464FF090400294FEF7BF
:1018B00099FE0096CDE90154694638460394FEF737
:1018C00091FE07B0F0BD000000100240001000487B
:1018D0000948084901604FF41651416000218160B8
:1018E0000C22C160C0E904128161C16101624162E0
:1018F000FFF7D4BE0038014094000020FEE7704797
:101900008AB02C4D2C4C4FF47A76A86800F0C2FDBA
:10191000002833D06423002209A9A86800F07CFDC8
:1019200000B3242225A16846FEF7EBFC4FF40067C4
:10193000002239462046FEF724FF304600F016FD0F
:10194000012239462046FEF71CFF2422694624481E
:10195000FFF72AFF5FF0320000F008FD304600F08C
:1019600005FDD2E720216846FEF7E4FC9DF824201F
:101970001CA1684600F09CFB1E22E7E714221EA172
:101980006846FEF7BEFC4FF48067002239462046C9
:10199000FEF7F7FE304600F0E9FC0122394620460A
:1019A000FEF7EFFE122269460D48FFF7FDFE41F2F9
:1019B0008830D1E70000002000100048436F756CAC
:1019C00064206E6F74207265636569766520667247
:1019D0006F6D207468652071756575652E0D0A0040
:1019E000940000205265636569766564203D20257A
:1019F00064210D0A0000000051756575652069734A
:101A000020656D707479210D0A0000008AB00026EF
:101A1000234C244D8DF800604FF09047012138464B
:101A2000FEF7A4FE012837D1A06800F033FDFF289F
:101A300032D09DF80000192803D2401C8DF8000018
:101A400001E08DF8006000231A466946A06800F0A6
:101A500071FD80464FF400412846FEF78CFEB8F138
:101A6000000F19D0202210A101A8FEF74AFC4FF464
:101A70000078002241462846FEF783FE4FF47A7034
:101A800000F074FC012241462846FEF77AFE1F2230
:101A900001A90D48FFF788FE642000F067FCBDE750
:101AA0000000002000100048436F756C64206E6FCA
:101AB000742073656E6420746F207468652071757E
:101AC0006575652E0D0A00009400002010B55020A9
:101AD00080F31188BFF34F8FBFF36F8F01F0C6FF04
:101AE00018B104494FF080500860002080F311883D
:101AF00010BD000004ED00E070B59EB028216846DE
:101B0000FEF718FC142119A8FEF714FC3C210AA8C2
:101B1000FEF710FC01252804CDE9005000240294B2
:101B200002260495CDE907604FF4E010099068465D
:101B3000FFF716F90F20CDE91906A802CDE91B40E1
:101B4000022119A81D94FEF7E1FF0AA80A950C943A
:101B5000FEF7D0FE1EB070BD0548016841F470016B
:101B6000016003494FF00060803908607047000051
:101B700088ED00E00148FFF70EBC0000580100208E
:101B80002DE9F0430268234B234D244E244C4FF0A3
:101B90008049984207D0484505D0A84203D0B042BA
:101BA00001D0A04203D122F070074A683A431D4F8A
:101BB000DFF874C0DFF8748098420DD048450BD030
:101BC000A84209D0B04207D0A04205D0B84203D005
:101BD000604501D0404503D122F44075CA682A43CC
:101BE0004D6922F080022A4302608A68C2620A6854
:101BF0008262984207D0A04205D0B84203D0604527
:101C000001D0404501D10969016301214161BDE86D
:101C1000F0830000002C0140000400400008004058
:101C200000340140004001400044014000480140B0
:101C300090F82410C90706D001684A68836A22F424
:101C400000321A434A6090F82410890706D50168CB
:101C50004A68C36A22F480321A434A6090F824101A
:101C6000490706D501684A68036B22F480221A43AB
:101C70004A6090F82410090706D501684A68436B4A
:101C800022F400421A434A6090F82410C90606D58F
:101C900001688A68836B22F480521A438A6090F844
:101CA0002410890606D501688A68C36B22F40052A5
:101CB0001A438A6090F82410490611D501684A68D1
:101CC000036C22F480121A434A60016CB1F5801F44
:101CD00006D101684A68436C22F4C0021A434A6084
:101CE00090F82410090606D501684A68806C22F431
:101CF000002202434A607047F8B500260446C667D2
:101D0000FEF744FD0546206800686FF07E47000737
:101D100008D52B4600224FF400112046009700F012
:101D20006DF960B92068006840070AD52B4600228B
:101D30004FF480012046009700F060F908B10320BD
:101D4000F8BD20206067A06784F870600020F8BDAF
:101D500010B5406A0021A0F85A10A0F85210FFF701
:101D6000EBFB10BD70B5446A606FA56F2168896890
:101D70004FF00006090606D5212804D1A4F85260C8
:101D8000204600F03EF820688068400606D5222DE7
:101D900004D1A4F85A60204600F024F8E06F40F027
:101DA0001000E0672046FFF7C7FB70BD10B5014685
:101DB000406A896920290DD00021A0F852100168DD
:101DC0008A6822F080028A600068016841F0400160
:101DD000016010BDFFF730FD10BD10B5406AFFF780
:101DE0002CFD10BD01680A6822F490720A60016837
:101DF0008A6822F001028A60202181670021016641
:101E0000704701680A6822F0C0020A602021416719
:101E10007047000070B5044680682169E269084394
:101E2000616900251143084321680A6849F20C637F
:101E30009A4302430A6020684168E26821F44051F5
:101E400011434160A169206A084321688A6822F42D
:101E5000306202438A60614B206861494FF48032EE
:101E600098420CD1086B10F0030006D001285DD019
:101E700002285DD0032844D156E0012142E0594BAD
:101E800098420CD1086B10F440304BD090424DD0AA
:101E9000B0F5003F4CD0B0F5403F32D144E0524B5A
:101EA00098420DD1086B10F440203BD0B0F5802F44
:101EB0003CD0B0F5002F3BD0B0F5402F21D133E01E
:101EC0004A4B98420DD1086B10F440102AD0B0F55F
:101ED000801F2BD0B0F5001F2AD0B0F5401F10D1C5
:101EE00022E0434B98420CD1086B10F4400019D00B
:101EF000B0F5800F1AD0B0F5000F19D0B0F5400F33
:101F000012D01021E0694FF400434FF6EF7698426B
:101F100034D109295BD2DFE801F00D10275A2A5A83
:101F20005A5A2D000021EDE70221EBE70421E9E7F1
:101F30000821E7E7FEF7AEFE01E0FEF7C3FE410031
:101F4000D4F8040001EB5001B1FBF0F080B2A0F135
:101F50001001B1423BD84FF6F0710140C0F342008E
:101F600001432068C16033E022496068EAE7FEF778
:101F7000C1FEE4E7606802EB5001E5E7092926D2DB
:101F8000DFE801F0050817251C2525251F00FEF7B1
:101F900081FE01E0FEF796FE616800EB5100B0FBA8
:101FA000F1F080B2A0F11001B14210D82168C860F0
:101FB0000EE01149606801EB500105E0FEF79AFE62
:101FC000EAE7606803EB5001B1FBF0F0E9E70125B7
:101FD000002020666066284670BD00000038014081
:101FE000001002400044004000480040004C004007
:101FF000005000400024F40000127A002DE9F04760
:102000009A4617460E4604464FF000094FF0200846
:10201000089D39E0681C37D0FEF7B8FBA0EB0A003A
:10202000A84222D80DB32068016849072CD5C069A1
:10203000C043000528D421684FF40060086220687E
:10204000016821F4D07101602068816821F00101EC
:102050008160C4F87480C4F87880C4F87C8000BFC4
:1020600084F870900320BDE8F0872068016821F4AF
:10207000D07101602068816821F001018160C4F89D
:102080007480C4F87880EBE72068C06936EA000005
:1020900004D00020B842BDD00020E4E70120F9E7D9
:1020A0000148FFF74BBA000094000020FEE7000053
:1020B0000FB4084B10B504A902AA039800F02CF83D
:1020C000044602A9002000F0D1F8204610BC5DF8BB
:1020D00014FB00006D2200080907090E002804DB2C
:1020E00000F1E02080F80014704700F00F0000F1CC
:1020F000E02080F8141D704702E008C8121F08C1D4
:10210000002AFAD170477047002001E001C1121F78
:10211000002AFBD1704700002DE9FF4F89B09B4694
:102120000446002506E025280BD05A460B99904717
:10213000641C6D1C20780028F5D10DB02846BDE840
:10214000F08F0027B8460122474900E0074314F802
:10215000013F203B02FA03F00842F7D120782E28F5
:1021600019D114F8010F47F004072A280ED06FF098
:102170002F022078A0F1300109290CD808EB880142
:1021800002EB410100EB0108641CF2E70A98641CB1
:1021900050F8048B0A9020780028CED0642808D00C
:1021A000692806D075281ED05A460B9990476D1C99
:1021B00058E00A994FF00A0901C90A91002802DA89
:1021C00040422D2102E0390504D52B218DF8201045
:1021D000012103E0F90704D02021F7E78A4608AE81
:1021E0000DE00021FAE70A994FF00A0901C90A91A6
:1021F000F7E74946FEF7A9F8303106F8011D002837
:10220000F7D1ADEB060000F12009780701D44FF0BB
:102210000108C84502DDA8EB090000E00020804667
:10222000002706E008A85A46C05D0B9990476D1C30
:102230007F1C5745F6DB04E030205A460B99904747
:102240006D1CB8F10001A8F10108F5DC05E016F8F5
:10225000010B5A460B9990476D1CB9F10001A9F189
:102260000109F4DC641C65E7092801000A68531CB5
:102270000B6010707047000098B0FEF795FAFFF7FA
:102280003BFCFFF7DDFA2C48416941F00101416157
:102290004069002200F00100009005210E20FEF7A9
:1022A000F7FA0E20FEF7E6FAFFF712FB00F078F8D7
:1022B0001822224909A8FEF724F801210D0209AAD3
:1022C000284600F0FDF81E4CA060D0B11B49242226
:1022D00018316846FEF715F86A460021194800F0E3
:1022E00069F91649206024223C310FA8FEF709F84D
:1022F0000FAA0021144800F05DF9606000F06CF84E
:1023000018E0182211A16846FDF7FBFF154C0022CA
:1023100029462046FEF735FA4FF47A7000F026F889
:10232000012229462046FEF72CFA172269460E485C
:10233000FFF73AFAFEE7000000100240B03D000847
:10234000000000200D1A000801190008517565757C
:10235000652069736E2774206372656174656421FA
:102360000A0D0000001000489400002010B5EFF3A3
:10237000058149B9EFF3108131B90849096802298B
:1023800005D1EFF3118111B16FF0050403E00024D2
:1023900008B100F0D1FE204610BD00006C00002006
:1023A000EFF3058058B9EFF3108040B90949086888
:1023B000022801D030B109E0EFF3118030B16FF0A5
:1023C0000500704701200860002070474FF0FF3083
:1023D000704700006C00002010B5EFF3058060B975
:1023E000EFF3108048B90B490868022802D0012891
:1023F00006D00BE0EFF3118040B16FF0050010BD87
:102400000220086000F000FF002010BD4FF0FF30F8
:1024100010BD00006C000020F8B51D466FF00302EF
:102420006FF002064FF00004EFF305834BB9EFF3B2
:10243000108333B9154B1B68022B17D1EFF31183AF
:10244000A3B1F0B1E9B1E5B9002200926A4601F00A
:1024500019FA012817D10098B0B10D494FF08050FA
:102460000860BFF34F8FBFF36F8F0DE048B141B1EC
:102470002A4601F06BF9012806D025B16FF001045E
:1024800002E0144600E034462046F8BD6C0000200F
:1024900004ED00E0002810D0EFF3058149B9EFF317
:1024A000108131B905490968022904D1EFF311817E
:1024B00009B100F01ABD00F006BD70476C000020A5
:1024C000F8B514464FF00005EFF305826ABBEFF351
:1024D000108252BB164A1268022A02D1EFF311820F
:1024E0001ABB10B309B3ACB1D4E902326BB1502AB4
:1024F0001BD32269CAB1676900FB01F6B74214D346
:102500000025009500F09CFF07E072B9226962B9CE
:10251000626952B9002200F06FFF050005D00CB1CE
:10252000216800E0002100F0D1FD2846F8BD000040
:102530006C000020F8B51D466FF003026FF0020634
:102540004FF00004EFF305834BB9EFF3108333B979
:10255000164B1B68022B18D1EFF31183ABB100B3FC
:10256000F9B1F5B90022134600926A4601F090F8DD
:10257000012818D10098B8B10D494FF0805008607B
:10258000BFF34F8FBFF36F8F0EE050B149B10023FF
:102590002A4600F0CDFF012806D025B16FF00104D6
:1025A00002E0144600E034462046F8BD6C000020EE
:1025B00004ED00E0F0B585B04FEA01034FF00004F0
:1025C000EFF305810394A1BBEFF3108189BB21498F
:1025D0000968022902D1EFF3118151BB48B380266B
:1025E00018218DF8104004AD42B3176807B13D467D
:1025F00097691FB139467F1E382F02D21779FF071E
:1026000002D0002005B0F0BD576907B1BE08D2F86E
:1026100008C0BCF1000F0DD0D4685C2C18D312692F
:102620003AB137B18DE806103246294601F0DFF99C
:1026300003900DE0D7685FB912694AB903AACDE9E2
:102640000012B2B2294601F0A5F9012800D0039486
:102650000398D7E76C0000202DE9F041134C0F469A
:10266000054666692068001D00F01AFC681C07D149
:1026700037B12168BDE8F0410D48091D00F07CBC70
:1026800020683544B5424560216805D2A068BDE8A0
:10269000F041091D00F058BC6068091D00F054FCB1
:1026A000206B854200D22563BDE8F0811C0000202C
:1026B000880600202DE9F041054600F069FC2D4C0C
:1026C0002069401C206120682B4F10B1E06930B3B5
:1026D0002BE025602069012827D1002606EB860023
:1026E00007EB800000F022FC761C382EF6D323483E
:1026F00000F01CFC2148143000F018FC1F48283062
:1027000000F014FC1D483C3000F010FC1B48503019
:1027100000F00CFC194860601430A06005E02068EF
:10272000E96AC06A884200D82560E06A401CE0621D
:102730006864E86AA169884200D9A06100EB800062
:1027400007EB8000291D00F017FC00F041FCE06958
:1027500000280CD02068E96AC06A884207D208497C
:102760004FF080500860BFF34F8FBFF36F8FBDE80D
:10277000F08100001C000020D80100203806002055
:1027800004ED00E038B500F003FC104CA068C8B9B7
:102790000F4800F0CBFB0E48143000F0C7FB0C488C
:1027A0002060143060600A4B00202833009003F151
:1027B000500210210A2000F043FEA06010B105A1D4
:1027C00000F084FCBDE8384000F002BC5800002056
:1027D0009C060020546D72510000000030B4026C61
:1027E0000B46002A0BD0C1681144C1604468A14265
:1027F00001D30168C16030BC1846FDF782BD30BC12
:1028000070472DE9F041856B174604460026026C9F
:1028100082B1C7B1E068FDF774FDE168206C091A68
:10282000E1602268914202D26168081AE060022FDA
:1028300016D017E02068A8B9606801F07BF9064659
:10284000002060600EE0A068FDF75BFD216CA068D1
:102850000844A0606168884204D32068A06001E059
:1028600005B16D1E6D1CA5633046BDE8F08110B545
:10287000044690F8590058B101280CD002280FD016
:10288000502080F31188BFF34F8FBFF36F8FFEE7A7
:10289000206B00F0B1FB2046BDE8104000F0ACBB5F
:1028A00010BD000010484FF44061420706D0C01D23
:1028B0000D4920F00700411AC1F540610B4A002381
:1028C0000144C2E900030839103A21F00701116000
:1028D0004B600B600B1AC0E9001393604FF000408F
:1028E0005360D060704700006C0E00208000002014
:1028F000144E154CA6F29C474FF08058DFF84C90D0
:1029000012E000BF00F044FBF068C568281D00F02D
:10291000C7FA2069401E2061E068401EE06000F0B8
:1029200057FB2846FFF7A3FFE0680028EAD1386884
:102930000128F9D9C9F80080BFF34F8FBFF36F8F1B
:10294000F2E70000740600201C00002004ED00E007
:1029500070B51D46049C51B1C4F80020C4E90F01B4
:102960000121204600F0A0FD84F84C5070BD246089
:10297000F4E72DE9F0470E46DDE909841746824663
:1029800091009946089DA522206BFDF7CCFC6FF0C5
:102990000301206B01EB8701084420F0070778074B
:1029A00007D0502080F31188BFF34F8FBFF36F8F94
:1029B000FEE72218315C82F83410315C11B1401C02
:1029C0001028F6D3002684F84360382D00D337252D
:1029D000E562C4E91356201D00F0B3FA04F11800B3
:1029E00000F0AFFA2461C5F138006462A061666549
:1029F00084F858604A465146384600F03BFA206059
:102A0000B8F1000F01D0C8F80040BDE8F087000021
:102A100030B5114900E011460A688242FBD34B6889
:102A20005C18844203D140681844486008464368F3
:102A30001C18944209D1084C103C2468A24209D0C9
:102A400052681A4442600A6812680260814200D0EB
:102A5000086030BD0460F9E78000002070B50024F4
:102A600041600B4D0061914206D8D11A82699142B2
:102A700006D2011D686807E09A4203D2994201D349
:102A8000012403E0011D286800F05EFA204670BDB5
:102A90005800002010B5044600F07AFAA06B28B167
:102AA0005FF0000400F094FA204610BD0124F9E71D
:102AB00030B589B0304D55E00498002806DADDE9DC
:102AC0000601059A9047049800284BDB069C606934
:102AD00010B1201D00F0E4F902A800F0B9F8024698
:102AE00004980A283ED2DFE800F00505053D2637A8
:102AF00005053D260598A169034601442046FFF7D8
:102B0000ADFF00B3616A20468847E069012829D1FA
:102B1000002000900598A16900234218194620461C
:102B200001F012F978B9502080F31188BFF34F8F6C
:102B3000BFF36F8FFEE70598A06128B18118134697
:102B40002046FFF78BFF0DE0502080F31188BFF384
:102B50004F8FBFF36F8FFEE794F82C0010B920461B
:102B600000F04AFA002204A9A86800F0EFFD00284E
:102B7000A2D109B030BD0000580000202DE9FC4171
:102B80000F46054600F084FB01A800F061F80446FA
:102B9000019818B101F046F8BDE8FC81224EAFB1B2
:102BA00070680068A8B30027291B3A46B06800F097
:102BB000A1FA01F037F80028EED11C494FF08050FF
:102BC0000860BFF34F8FBFF36F8FE5E7A542EBD8E7
:102BD00001F028F830682746C068C468201D00F05E
:102BE0005FF9E069012810D1A0692B4641193A46E6
:102BF0002046FFF733FF40B1002003460146009016
:102C00002A46204601F0A0F820B1616A2046884794
:102C1000C2E707E0502080F31188BFF34F8FBFF366
:102C20006F8FFEE70127BFE75800002004ED00E0AA
:102C300006484168096829B14168C968C968496896
:102C4000016370474FF0FF31FAE700001C000020DD
:102C500070B5054600F004FF064E04463069844214
:102C600003D200F009F8012000E00020286020468F
:102C7000346170BD58000020F8B5194D1FE0C068E0
:102C8000C4680668201D00F00BF9616A2046884779
:102C9000E069012813D1A0693044B04206D924610B
:102CA0006060211D286800F04FF908E0002003460D
:102CB000014600903246204601F046F838B12868B7
:102CC00001680029DBD16968C5E90010F8BD502012
:102CD00080F31188BFF34F8FBFF36F8FFEE70000C3
:102CE0005800002008484068401C4FF0500080F316
:102CF000118804D0BFF34F8FBFF36F8FFEE7BFF390
:102D00004F8FBFF36F8FFEE788000020074C2068CD
:102D1000016841B1C0680021D0F80000FFF72EFF24
:102D2000FFF7C6FEF3E701210020F7E75800002077
:102D30002DE9F041044600F02BF994F9455004F1D7
:102D4000240609E0606A48B1304600F033FF08B15C
:102D500000F020FA6D1E6DB2002DF3DC4FF0FF364F
:102D600084F8456000F034F900F012F994F9445009
:102D700004F1100709E0206948B1384600F01AFF55
:102D800008B100F007FA6D1E6DB2002DF3DC84F877
:102D90004460BDE8F04100F01BB900002DE9F041AE
:102DA0000546002700F074FA314E306808B9FFF785
:102DB00079FDF06805424BD1C5B3083568070ED0E0
:102DC00005F00700C0F108000544680707D050204F
:102DD00080F31188BFF34F8FBFF36F8FFEE72DB3E2
:102DE0007068854234D82248103001460C6801E0F2
:102DF00020460C466168A94202D221680029F7D119
:102E000031688C4224D00768216801606068083707
:102E1000411B10290FD96019420708D0502080F3B8
:102E20001188BFF34F8FBFF36F8FFEE710E0416053
:102E30006560FFF7EDFD61687068401A7060B26808
:102E4000904200D2B060F06801430020C4E9000164
:102E500000F0E8FE780707D0502080F31188BFF318
:102E60004F8FBFF36F8FFEE73846BDE8F08100005B
:102E70007000002010B5031F4FF080741C601B1FF2
:102E800021F001011960191F044B0B6014390A600D
:102E9000091F6FF0020244380A6010BDE52C0008DB
:102EA000D0E9013201699A60D0E901235A604A6889
:102EB000824201D182684A60002202610868401E95
:102EC00008600868704710B5040006D000F060F88C
:102ED000A46B00F07DF8204610BD502080F31188CF
:102EE000BFF34F8FBFF36F8FFEE708B1806B704762
:102EF000502080F31188BFF34F8FBFF36F8FFEE731
:102F0000034B036003F15C00086080201060704791
:102F1000B4070020044B036003F15C0008604FF429
:102F20008070106070470000100A002000F1080156
:102F30004FF0FF32C0E90112C16001610021016060
:102F4000704700210161704730B50B685A1C02D0F0
:102F500000F1080202E0026904E022465468256894
:102F60009D42FAD953684B6099608A60516008614C
:102F70000168491C016030BD42684A6093688B60FB
:102F800093685960916008610168491C016070474D
:102F9000502080F31188BFF34F8FBFF36F8F0A4922
:102FA0004868401C486001280CD10848006810F0AF
:102FB000FF0F07D0502080F31188BFF34F8FBFF36E
:102FC0006F8FFEE7704700008800002004ED00E0EE
:102FD0000849486828B1401E486001D180F3118833
:102FE0007047502080F31188BFF34F8FBFF36F8F6E
:102FF000FEE700008800002070B5002827D0144D9F
:10300000A0F108046168E868014207D1502080F30C
:103010001188BFF34F8FBFF36F8FFEE722683AB17D
:10302000502080F31188BFF34F8FBFF36F8FFEE7FF
:103030008143616000F02CF9606869680844686049
:103040002046FFF7E5FCBDE8704000F0EBBD70BD29
:10305000700000204FF0E0200021016181610549EE
:103060004FF47A720968B1FBF2F1491E4161072100
:10307000016170471800002010B5FDF7EBF8114909
:1030800010280ED300F1E02090F8F0030A78904267
:1030900007D2502080F31188BFF34F8FBFF36F8F9B
:1030A000FEE709480068896800F4E060884207D9B3
:1030B000502080F31188BFF34F8FBFF36F8FFEE76F
:1030C00010BD0000880000200CED00E010B5084B9A
:1030D000002200BF53F832401CB1521C082AF9D319
:1030E00010BD43F8321003EBC201486010BD000070
:1030F0009801002070B515460E460446FFF748FFBC
:1031000094F944100020491C01D184F8440094F93A
:103110004510491C01D184F84500FFF759FFA06B09
:1031200028B92A46314604F1240000F051F820461F
:10313000BDE87040FFF7FCBD10B5020014D00F4889
:10314000806B38B1502080F31188BFF34F8FBFF3ED
:103150006F8FFEE700F09CF800211046FFF77CFA25
:1031600000F060FD002807D105494FF0805008604D
:10317000BFF34F8FBFF36F8F10BD00001C00002006
:1031800004ED00E002498A6A0260496941607047C3
:103190001C00002001490120486270471C000020EB
:1031A00010B50C4650B1094909681831FFF7CCFE3B
:1031B0002046BDE810400121FFF74EBA502080F3B1
:1031C0001188BFF34F8FBFF36F8FFEE71C00002005
:1031D00070B514460D4668B10A4909681831FFF701
:1031E000CBFE0CB14FF0FF3521462846BDE87040BC
:1031F000FFF732BA502080F31188BFF34F8FBFF32F
:103200006F8FFEE71C00002030B587B000240394C8
:1032100005AA04A903A80494FFF772FEDDE90301DF
:103220000094CDE90110002315A11748059A00F07C
:10323000DEFB164D002868631FD000F055FD012805
:1032400009D0401C19D1502080F31188BFF34F8F53
:10325000BFF36F8FFEE7502080F31188BFF34F8FCD
:10326000BFF36F8F4FF0FF3028630120E8616C617E
:1032700007B0BDE8304000F045B807B030BD0000F1
:1032800049444C4500000000F12800081C000020C3
:103290000248816B491C8163704700001C000020BC
:1032A000164810B5816B11B10121416210BD00219A
:1032B00041628169124A01E0B9B1491E01EB810303
:1032C00052F82330002BF7D001EB810302EB83028D
:1032D00002F1080453685B685360A34201D15B6844
:1032E0005360DA680260816110BD502080F311885C
:1032F000BFF34F8FBFF36F8FFEE700001C0000206D
:10330000D80100201CB537480168374A914207D1DF
:10331000502080F31188BFF34F8FBFF36F8FFEE70C
:1033200000683149491E884207D1502080F3118836
:10333000BFF34F8FBFF36F8FFEE72C4908780190E2
:10334000FF20087008788DF800009DF800009DF8B7
:10335000002000F0F000904207D0502080F3118848
:10336000BFF34F8FBFF36F8FFEE79DF80000204B38
:1033700000F0500018700720986005E09DF80020CC
:1033800052008DF80020401E9DF800201206F5D452
:103390009860032807D0502080F31188BFF34F8F27
:1033A000BFF36F8FFEE74FF440709860019808708C
:1033B0000C482030016841F470010160016841F05F
:1033C00070410160FFF746FE00205860FCF70AFFDD
:1033D0000848016841F040410160FCF7EFFE002021
:1033E0001CBD000000ED00E071C20F4100E400E0F0
:1033F0008800002034EF00E0F8B517460E460500BF
:1034000014D0DEB105FB06F05030FFF7C7FC040016
:103410000AD0002084F8460004F150023B463146B1
:1034200028460094FFF794FA2046F8BD502080F318
:103430001188BFF34F8FBFF36F8FFEE70020E3E7E4
:1034400038B5049D18B153B1CAB181B120E0502004
:1034500080F31188BFF34F8FBFF36F8FFEE75020CB
:1034600080F31188BFF34F8FBFF36F8FFEE75020BB
:1034700080F31188BFF34F8FBFF36F8FFEE739B131
:10348000502080F31188BFF34F8FBFF36F8FFEE79B
:1034900050241C46012384F846302B460094FFF745
:1034A00057FA204638BD000070B50D46040025D0FF
:1034B000FFF76EFDD4E90F20216802FB0011616067
:1034C0000021A1632168A1600A46D4E90F01401ED2
:1034D00000FB0121E16021464FF0FF3001F8440F6D
:1034E000487004F110008DB1FFF720FD04F12400B5
:1034F000FFF71CFDFFF76CFD012070BD502080F32D
:103500001188BFF34F8FBFF36F8FFEE7216900294A
:10351000F0D000F04FFB0028ECD004494FF0805071
:103520000860BFF34F8FBFF36F8FE3E704ED00E058
:103530002DE9FF4782B01D468A464FF0000804007F
:1035400003D0BAF1000F08D011E0502080F31188A9
:10355000BFF34F8FBFF36F8FFEE7206C38B1502061
:1035600080F31188BFF34F8FBFF36F8FFEE7022DFB
:103570000AD1E06B012807D0502080F31188BFF3F7
:103580004F8FBFF36F8FFEE700F05CFA3F4F4FF0B5
:1035900000094FF0805648B9049838B1502080F3A4
:1035A0001188BFF34F8FBFF36F8FFEE7FFF7F0FC7B
:1035B000A06BE16B884207D3022D05D00498D0B1EF
:1035C000B8F1000F1AD01EE02A4651462046FFF7F8
:1035D00018F9616A19B104F1240000F0EBFA20B186
:1035E0003E60BFF34F8FBFF36F8FFFF7F1FC0120F9
:1035F00006B0BDE8F087FFF7EBFC22E06846FFF776
:10360000C1FD4FF00108FFF7E3FCFFF741FEFFF7B4
:10361000BFFC94F94400401C01D184F8449094F913
:103620004500401C01D184F84590FFF7D1FC04A966
:10363000684600F075F930B12046FFF779FB00F0DD
:10364000F1FA0020D4E7FFF7A3FCA06BE16B8842FE
:1036500013D1FFF7BDFC04F110000499FFF7A0FDA2
:103660002046FFF765FB00F0DDFA00289ED13E60A2
:10367000BFF34F8FBFF36F8F98E7FFF7A9FC20468A
:10368000FFF756FB00F0CEFA90E7000004ED00E0F3
:103690002DE9F0471F4690468946040003D0B9F152
:1036A000000F08D011E0502080F31188BFF34F8F36
:1036B000BFF36F8FFEE7206C38B1502080F3118884
:1036C000BFF34F8FBFF36F8FFEE7022F0AD1E06B7E
:1036D000012807D0502080F31188BFF34F8FBFF32C
:1036E0006F8FFEE7FFF7C8FC5020EFF3118680F3E1
:1036F0001188BFF34F8FBFF36F8FA06BE16B8842D0
:1037000006D3022F04D0002086F31188BDE8F0878D
:1037100094F945503A4649462046FFF772F8681C2E
:1037200004D06D1C84F845500120EDE7606A002844
:10373000FAD004F1240000F03DFA0028F4D0B8F1EA
:10374000000FF1D00121C8F80010EDE72DE9F7478F
:10375000002683B08A46040003D0BAF1000F08D0D7
:1037600011E0502080F31188BFF34F8FBFF36F8FAC
:10377000FEE7206C38B1502080F31188BFF34F8FE3
:10378000BFF36F8FFEE700F05DF9DFF8F4804FF0D4
:1037900000094FF0805748B9059838B1502080F3A0
:1037A0001188BFF34F8FBFF36F8FFEE7FFF7F0FB7A
:1037B000A56BC5B151462046FFF710F86D1EA563F5
:1037C000206950B104F1100000F0F4F928B1C8F8F4
:1037D0000070BFF34F8FBFF36F8FFFF7F9FB01202E
:1037E00006B0BDE8F087059808B11EB106E0FFF706
:1037F000EFFB27E06846FFF7C5FC0126FFF7E8FB73
:10380000FFF746FDFFF7C4FB94F94400401C01D1CB
:1038100084F8449094F94500401C01D184F8459007
:10382000FFF7D6FB05A9684600F07AF80028204685
:103830000AD0FFF77DFA00F0F5F92046FFF72AF9E4
:103840000028B3D00020CBE7FFF724F990B104F1B2
:1038500024000599FFF7A4FC2046FFF769FA00F061
:10386000E1F90028A2D1C8F80070BFF34F8FBFF371
:103870006F8F9BE72046FFF75BFA00F0D3F995E7DF
:1038800004ED00E02DE9F04790468946040003D09E
:10389000B9F1000F08D011E0502080F31188BFF378
:1038A0004F8FBFF36F8FFEE7206C38B1502080F34D
:1038B0001188BFF34F8FBFF36F8FFEE7FFF7DCFB7D
:1038C0005020EFF3118680F31188BFF34F8FBFF3C1
:1038D0006F8FA76BF7B194F9445049462046FEF725
:1038E0007DFF7F1EA763681C04D06D1C84F84450C4
:1038F000012010E020690028FAD004F1100000F047
:1039000059F90028F4D0B8F1000FF1D00121C8F81E
:103910000010EDE7002086F31188BDE8F087000075
:103920002DE9F0410C46050011D0C4B1FFF730FB82
:10393000174B5A696E682068911B471C17D02F6877
:103940009B6A9F4219D0964217D8012410E050205C
:1039500080F31188BFF34F8FBFF36F8FFEE75020C6
:1039600080F31188BFF34F8FBFF36F8FFEE7002402
:10397000FFF72EFB2046BDE8F081884205D9401AAA
:1039800020602846FFF7FEFBF1E700202060DCE71F
:103990001C0000202DE9FF5F8346DDE90E87994674
:1039A00016468A469000FFF7F9F905001CD05C2006
:1039B000FFF7F4F9040014D00020256384F85900BF
:1039C000CDE90240CDE900874B4632465146584684
:1039D000FEF7CFFF2046FEF76DFE012004B0BDE8E4
:1039E000F09F2846FFF708FB4FF0FF30F6E7F0B5F1
:1039F00085B0DDE90B640A9DA6B1DCB15C270097B8
:103A00002663022684F85960002604AFCDE90246F9
:103A1000CDE90057FEF7ADFF2046FEF74BFE0498B8
:103A200005B0F0BD502080F31188BFF34F8FBFF376
:103A30006F8FFEE7502080F31188BFF34F8FBFF3E5
:103A40006F8FFEE70548C16919B1806B18B100207E
:103A50007047012070470220704700001C000020C2
:103A600001484069704700001C0000202DE9F0412A
:103A70002E4C0027A06B40B1206A401C2062606A77
:103A800000B101273846BDE8F0816669761C6661A1
:103A900013D16068006838B1502080F31188BFF3FB
:103AA0004F8FBFF36F8FFEE76068A1686160A06011
:103AB000A06A401CA062FFF7BBF8206BDFF87080A3
:103AC000864209D36068006880B16068C068C568D4
:103AD000686886420DD220632068C06A00EB8001CE
:103AE00058F821000128CAD90127C8E74FF0FF3054
:103AF000F1E7281DFFF7D4F9A86A18B105F11800FD
:103B0000FFF7CEF9E86AA169884200D9A06100EB0D
:103B1000800108EB8100291DFFF72EFAE86A216871
:103B2000C96A8842CED30127CCE700001C000020E0
:103B3000D801002070B504004FF0000133D01B4DB8
:103B40002868844207D0502080F31188BFF34F8F3C
:103B5000BFF36F8FFEE7206D38B1401E2065E36C28
:103B6000E26A9A421FD040B11DE0502080F31188D4
:103B7000BFF34F8FBFF36F8FFEE7201DFFF790F964
:103B8000E06CE062C0F13800A061E06AA969884297
:103B900000D9A861064900EB800001EB8000211DDF
:103BA000FFF7EAF90121084670BD00001C00002063
:103BB000D801002070B5C068C46854B104F1180081
:103BC0000646FFF76DF9144DA86B50B13146134806
:103BD00015E0502080F31188BFF34F8FBFF36F8F34
:103BE000FEE7201DFFF75CF9E06AA969884200D969
:103BF000A8610B4900EB800001EB8000211DFFF75D
:103C0000BBF9E06A2968C96A884202D90120686262
:103C100070BD002070BD00001C0000206006002068
:103C2000D80100202DE9F0472C4D00242746A86B31
:103C300038B1FFF7ADF9A86B401EA863A86B40B17F
:103C400046E0502080F31188BFF34F8FBFF36F8F92
:103C5000FEE72969224E0120D1B3A6F5916980467D
:103C60003068E0B1F068C46804F11800FFF718F993
:103C7000201DFFF715F9E06AA969884200D9A861FB
:103C800000EB800109EB8100211DFFF775F9E06A67
:103C90002968C96A8842E3D3C5F82480E0E70CB1FB
:103CA000FEF7C6FF2C6A4CB14FEA0806FFF7DEFEAE
:103CB00000B16E62641EF9D100202862686A38B1D2
:103CC0000849012738070860BFF34F8FBFF36F8F94
:103CD000FFF77EF93846BDE8F08700001C000020A1
:103CE0006006002004ED00E010B586B0FEF74AFD46
:103CF000114CA068B8B100200390049005AA04A953
:103D000003A8FFF707F9DDE9032102208DE807008A
:103D100000230AA10B48059AFFF769FEE06010B185
:103D200006B0012010BD502080F31188BFF34F8FE3
:103D3000BFF36F8FFEE7000058000020546D722023
:103D4000537663000D2D00082DE9FF411E461346F2
:103D500002000A9D4FF0000016D0144CA768002FF7
:103D60000FD0CDE900130292062917DAFFF76AFE99
:103D700002284FF000030FD000226946A068FFF729
:103D8000D7FB04B0BDE8F081502080F31188BFF369
:103D90004F8FBFF36F8FFEE72A46EEE700233246D0
:103DA00069463846FFF774FCEBE700005800002036
:103DB000483E000800000000000000000000000075
:103DC0000000000000000000543E00080000000059
:103DD0000000000000000000000000008000000063
:103DE0001800000000000000000000005C3E000819
:103DF00000000000000000000000000000000000C3
:103E0000800000001800000000000000000000001A
:103E100002030405060708090A0B0C0D0E0F10100B
:103E20000102030405060708090A0B0C0D0E0F100A
:103E3000000000000000000001020304060708095A
:103E400000000000010203046D795175657565304D
:103E50003100000053656E64657200005265636551
:103E60006976657200000000883E000800000020AE
:103E700094000000F82000081C3F00089400002077
:103E8000DC1D000008210008000000000000000008
:103E90000000000001000000100000000000000011
:103EA00000127A0000000000000000000000000086
:103EB0000000000000000000000000000000000002
:103EC00000000000000000000000000000000000F2
:103ED00000000000000000000000000000000000E2
:103EE00000000000000000000000000000000000D2
:103EF00000000000000000000000000000000000C2
:103F000000000000000000000000000000000000B1
:0C3F100000000000AAAAAAAA00000000FD
:040000050800018965
:00000001FF
