:020000040800F2
:10000000300700209D0100088314000845130008F4
:1000100081140008CD0200085715000800000000F8
:10002000000000000000000000000000871400082D
:10003000CF020008000000008514000889140008A1
:10004000B7010008B7010008B7010008B7010008B0
:10005000B7010008B7010008B7010008B7010008A0
:10006000B7010008B7010008B7010008B701000890
:10007000B7010008B7010008B7010008B701000880
:10008000B7010008B7010008B7010008B701000870
:10009000B7010008B7010008B7010008B701000860
:1000A000B7010008B7010008B7010008B701000850
:1000B000B7010008B7010008B7010008B701000840
:1000C000B7010008B7010008B7010008B701000830
:1000D000B7010008B7010008B7010008B701000820
:1000E000B7010008B7010008B7010008B701000810
:1000F000B7010008B7010008B7010008B701000800
:10010000000000000000000000000000B70100082F
:10011000B7010008B7010008B7010008B7010008DF
:10012000B7010008B7010008B7010008B7010008CF
:10013000B7010008B701000800000000000000003F
:10014000B7010008B7010008B7010008000000006F
:10015000000000000000000000000000000000009F
:100160000000000000000000B7010008B70100080F
:10017000B7010008000000000000000000000000BF
:1001800000000000B7010008DFF80CD000F08CF888
:1001900000480047991500083007002006488047AE
:1001A00006480047FEE7FEE7FEE7FEE7FEE7FEE75C
:1001B000FEE7FEE7FEE7FEE70115000889010008FB
:1001C0002DE9F05F0546002092469B46884606468C
:1001D000814640241BE0284641464746224600F01F
:1001E00020F853465A46C01A914110D3114618467A
:1001F000224600F04AF82D1A67EB01084F462246C6
:100200000120002100F041F817EB00094E41201EAB
:10021000A4F10104DFDC484631462A464346BDE8E6
:10022000F09F202A04DB203A21FA02F000217047D7
:1002300021FA02F3D040C2F120029140084319464E
:10024000704740EA01039B0703D009E008C9121F69
:1002500008C0042AFAD203E011F8013B00F8013B80
:10026000521EF9D27047D2B201E000F8012B491EAC
:10027000FBD270470022F6E710B513460A46044643
:100280001946FFF7F0FF204610BD202A04DB203A74
:1002900000FA02F1002070479140C2F1200320FAD9
:1002A00003F3194390407047064C074D06E0E068A1
:1002B00040F0010394E8070098471034AC42F6D3AD
:1002C000FFF766FF6C1600088C160008FEE7704703
:1002D00070B5044600F0DEF80546601C02D0044804
:1002E0000078044400F0D6F8401BA042FAD370BD59
:1002F000000000202DE9F84FDFF864B100234FF033
:10030000010C4FF0030A4FF00F090BF1040EA0E0AF
:100310000CFA03F6324072D04C68022C01D0122C39
:100320000ED1DC0800EB8408D8F820405D07EF0E02
:1003300009FA07F5AC430D69BD402543C8F82050C4
:1003400007685D0091F804800AFA05F408F00308D4
:10035000A74308FA05F848EA0708C0F800804F6884
:10036000012F05D0022F03D0112F01D0122F11D150
:100370008768D1F80C80A74308FA05F848EA07080F
:10038000C0F808804768B7430E79C6F300169E4050
:100390003E434660C668A6438C68AC403443C460A4
:1003A0004C68E40054D52F4CA56945F00105A561C2
:1003B000A46923F0030504F0010400942A4C2E19CB
:1003C000B4689D072F0F09FA07F5AC43B0F1904FC1
:1003D00004D0264DA84203D1012512E0002510E0EB
:1003E000234DA84201D102250BE0224DA84201D1A4
:1003F000032506E0204DA84202D1042501E027E0B4
:100400000525BD402543B560DBF800405D464E68DC
:100410009443F60300D514432C60DEF80040754683
:100420004E689443B60300D514432C600C4D083538
:100430002C684E689443F60200D514432C60084D96
:100440000C352C684E689443B60200D514432C60DA
:100450005B1C0A6832FA03F47FF45AAFBDE8F88FE8
:100460000004014000100240000001400004004868
:1004700000080048000C00480010004842690A4289
:1004800000D00904816170470AB1816170478162BF
:10049000704700000148806870470000000000209D
:1004A00090F84120202A24D190F84020012A20D021
:1004B000012280F84020242280F84120026813683D
:1004C00023F0010313600268136823F48053136060
:1004D000026813680B43136001680A6842F0010266
:1004E0000A60202180F84110002180F84010084661
:1004F00070470220704790F84120202A22D190F8BE
:100500004020012A1ED0012280F84020242280F8B9
:1005100041200268136823F0010313600268136826
:1005200023F4706343EA0121116001680A6842F014
:1005300001020A60202180F84110002180F840105B
:10054000084670470220704770B5040004D094F844
:100550004100002510B106E0012070BD84F8405034
:10056000204600F04DF8242084F8410020680168FE
:1005700021F0010101606068216820F0706008616D
:100580002068816821F400418160E0680128A0684A
:1005900007D040F4044021688860E068022803D056
:1005A00006E040F40040F6E721684FF40060486040
:1005B00020684168114A114341602068C16821F4F4
:1005C0000041C160D4E904010843A16940EA012067
:1005D0002168C860D4E907010843216808602068E1
:1005E000016841F0010101606564202084F8410048
:1005F000256384F84250002070BD00000080000296
:1006000010B586B0044614216846FFF733FE124940
:10061000206888421ED1114C606940F480206061DE
:100620006069694600F480200590C0200090122087
:1006300001900120029003200390042004900848B8
:10064000FFF758FEE06940F40010E061E06900F453
:100650000010059006B010BD00540040001002408C
:1006600000040048024881680278114481607047A4
:1006700000000020074810B5016841F0100101603A
:10068000032000F05FF8002000F006F800F024F8E6
:10069000002010BD0020024070B50D4D04464FF4FF
:1006A0007A712878B1FBF0F00A490968B1FBF0F0E3
:1006B00000F034FE48B9102C07D200222146501E0B
:1006C00000F020F800206C6070BD012070BD0000BB
:1006D000000000200C000020094808B5816941F0A5
:1006E00001018161816901F001010091C16941F05D
:1006F0008051C161C06900F08050009008BD0000C9
:1007000000100240F0B40E4B1B680C46C3F30223EA
:10071000C3F10705042D00D90425191D072901D2AD
:10072000002300E0DB1E012606FA05F1491E2140E8
:1007300099409E40761E16403143F0BC00F00CBF3D
:100740000CED00E0064900F0070208684FF6FF03D1
:10075000184040EA0220034A104308607047000036
:100760000CED00E00000FA0570B586B0040004D07E
:1007700094F82902002518B107E0012006B070BDE9
:1007800084F82852204600F03FF8032084F829021C
:10079000206800F0D2FE002001260CE004EB40119E
:1007A00081F8296001F8280FC881CD700D614D6175
:1007B000401CC0B28D6161688142EFD800200FE01B
:1007C00004EB401181F8295181F8280181F82B515F
:1007D000C1F83851C1F83C51401CC0B2C1F8405179
:1007E00061688142ECD8142204F110016846FFF7D9
:1007F00028FD94E80F0000F091FE84F8245084F85E
:1008000029620020BAE7000010B586B00446142122
:100810006846FFF72FFD13492068884220D1124C0B
:10082000606940F4003060616069694600F400303E
:1008300005904FF4C05000900220019000200290DB
:10084000032003900E2004904FF09040FFF752FDDC
:10085000E06940F40000E061E06900F40000059008
:1008600006B010BD005C0040001002402DE9F84FBA
:1008700004460068804DC0036FD5E8690026C000BB
:1008800008D4E86940F08050E861E869012600F08A
:100890008050009079480168C90512D401688046EB
:1008A00041F480710160FFF7F5FD074605E000BFE8
:1008B000FFF7F0FDC01B642835D8D8F80000C0054C
:1008C000F6D5286A10F4407053D0A18801F4407125
:1008D00081424ED0286A4FF4803191FAA1F2B2FAE7
:1008E00082F29700664A4FF00108174420F44070E6
:1008F000C7F8008491FAA1F1B1FA81F102EB81010C
:100900000023C1F800342862C00732D0FFF7C2FDCF
:10091000074641F2883A4FF0020907E0FFF7BAFDB7
:10092000C11B514502D90320BDE8F88F99FAA9F1FE
:10093000B1FA81F141F040014846B8EB511F01D1B5
:1009400029680CE090FAA0F1B1FA81F141F0400180
:10095000B0EB511F02D1296A01E015E0696A99FAEA
:10096000A9F0B0FA80F000F01F0008FA00F211427E
:10097000D4D0286A616820F44070084328621EB110
:10098000E86920F08050E8612078C00705D0286B26
:10099000A16820F00300084328632078800705D56C
:1009A000286BE16820F44030084328632078400732
:1009B00005D5286B216920F440200843286320785E
:1009C000800605D5286BE16920F0100008432863F4
:1009D0002068800305D56868A16B20F48000084377
:1009E00068602078400605D5286B216A20F0200039
:1009F000084328632078000705D5286B616920F437
:100A00004010084328632078C00605D5286BA169EB
:100A100020F44000084328632088800505D56868D5
:100A2000E16A20F40000084368602078000605D5DC
:100A3000E86A616A20F4F8700843E8622088C0051B
:100A400005D5E86AA16A20F478500843E862208856
:100A5000C00405D5286B216B20F4807008432863FF
:100A60002088800405D5286B616B20F40070084352
:100A70002863002058E7000000100240007000408A
:100A8000000042422DE9F0470F46050069D04A4E6A
:100A9000306800F00700B84209D2306820F0070043
:100AA00038433060306800F00700B84259D12878E8
:100AB000424C800705D56068A96820F0F000084323
:100AC00060602878C0073DD06968012001290DD0F9
:100AD000022923D05FF0020393FAA3F2B2FA82F262
:100AE00042F02002520904D0226803E04FF40033A0
:100AF000F2E7626A93FAA3F3B3FA83F303F01F03F6
:100B0000984002422DD0606820F0030008436060E6
:100B1000FFF7C0FC804641F288390CE04FF00073CB
:100B2000DAE700BFFFF7B6FCA0EB0801494502D9A0
:100B30000320BDE8F0876068696800F00C00B0EB46
:100B4000810FEFD1306800F00700B8420BD9306850
:100B500020F0070038433060306800F00700B842EA
:100B600001D00120E5E72878400705D56068E968ED
:100B700020F4E060084360602878000706D56068CC
:100B8000296920F4605040EAC100606000F01EF85E
:100B90006168F02292FAA2F201F0F001B2FA82F258
:100BA000D140074A515CC8400649086006480068C1
:100BB000FFF772FD0020BCE7002002400010024059
:100BC0005C1600080C00002004000020164A10B536
:100BD0005168164801F00C03042B20D0082B1ED1BD
:100BE0004FF4701494FAA4F401F47013B4FA84F47A
:100BF000E3400F4CD26AE45C0F2393FAA3F302F0B4
:100C00000F02B3FA83F3DA40094B1033C9039A5C3D
:100C100006D500231946FFF7D3FAA0FB040110BD47
:100C20000448A4FB000110BD0010024000127A002D
:100C30003C16000800093D002DE9F84F050071D071
:100C40002878FC4EC0074FF0010425D07068670477
:100C5000C0F38100012807D07068C0F3810002282A
:100C60001BD17068C00318D597FAA7F0B0FA80F0CE
:100C700040F02000400901D0306800E0706A97FA27
:100C8000A7F1B1FA81F101F01F0104FA01F1084264
:100C900065D068680028D2D061E06868B0F5803F10
:100CA0000BD010B1B0F5A02F17D0306820F48030F1
:100CB0003060306820F4802002E0306840F48030FA
:100CC0003060F06AA96820F00F000843F06268689D
:100CD00020B3FFF7DFFB80460AE0306840F4802055
:100CE0003060EAE7FFF7D6FBA0EB0800642871D874
:100CF00097FAA7F0B0FA80F040F02000400901D048
:100D0000306800E0706A97FAA7F1B1FA81F101F05A
:100D10001F0104FA01F10842E4D020E0FFF7BAFB1A
:100D2000804607E0C2E000BFFFF7B4FBA0EB08007D
:100D30006428DCD897FAA7F0B0FA80F040F02000E1
:100D4000400901D0306800E0706A97FAA7F1B1FA63
:100D500081F101F01F0104FA01F10842E4D1287881
:100D6000DFF8D48280074FF0000A4FF0020730D539
:100D700070684FF0F80B10F00C0F07D07068C0F3DC
:100D80008100022827D17068C00324D497FAA7F005
:100D9000B0FA80F040F02000400901D0306800E057
:100DA000706A97FAA7F1B1FA81F101F01F0104FA14
:100DB00001F1084202D02869012877D130689BFAF6
:100DC000ABF220F0F8016869B2FA82F29040014378
:100DD00031605AE064E1286988B394FAA4F0B0FA6B
:100DE00080F048F82040FFF755FB814606E000BF41
:100DF000FFF750FBA0EB090002289AD897FAA7F05A
:100E0000B0FA80F040F02000400901D0306800E0E6
:100E1000706A97FAA7F1B1FA81F101F01F0104FAA3
:100E200001F10842E4D030689BFAABF26969B2FA8A
:100E300082F220F0F80091400843306025E0FFE79F
:100E400094FAA4F0B0FA80F048F820A0FFF722FB53
:100E5000814605E0FFF71EFBA0EB09000228CCD875
:100E600097FAA7F0B0FA80F040F02000400901D0D6
:100E7000306800E0706A97FAA7F1B1FA81F101F0E9
:100E80001F0104FA01F10842E4D1287800076CD56B
:100E9000A869A8B394FAA4F0B0FA80F008EB800037
:100EA000C0F88044FFF7F6FA814607E0A4E100BFEE
:100EB000FFF7F0FAA0EB090002289ED897FAA7F0F6
:100EC000B0FA80F040F06000B4EB501F01D1306800
:100ED0000BE097FAA7F0B0FA80F040F06000B7EBB3
:100EE000501F01D1306A00E0706A97FAA7F1B1FA99
:100EF00081F101F01F0104FA01F21042D8D034E070
:100F0000FFE794FAA4F1B1FA81F108EB8101C1F88D
:100F100080A4FFF7BFFA814606E000BFFFF7BAFAE8
:100F2000A0EB090002289AD897FAA7F0B0FA80F04F
:100F300040F06000B4EB501F01D130680BE097FA2D
:100F4000A7F0B0FA80F040F06000B7EB501F01D17D
:100F5000306A00E0706A97FAA7F1B1FA81F101F006
:100F60001F0104FA01F21042D8D12878400768D551
:100F7000F0694FF00009C00009D4F06940F08050DA
:100F8000F061F0694FF0010900F0805000902B48AB
:100F90000168C90512D4016841F480710160FFF74E
:100FA00079FA834606E000BFFFF774FAA0EB0B0066
:100FB000642875D821480068C005F5D5E86801287F
:100FC0000AD008B1052811D0306A20F00100306243
:100FD000306A20F0040002E0306A40F00100306224
:100FE000E86868B3FFF756FA83460DE0306A40F0D0
:100FF00004003062F0E700BFFFF74CFAA0EB0B01F2
:1010000041F2883081424BD897FAA7F0B0FA80F0CD
:1010100040F04000B4EB501F01D1306813E097FA64
:10102000A7F0B0FA80F040F04000B7EB501F09D1B4
:10103000306A08E0001002400000424200700040A8
:101040000CE040E0706A97FAA7F1B1FA81F101F083
:101050001F0104FA01F21042CED02DE0FFF71AFA78
:10106000834607E0FFF716FAA0EB0B0141F2883048
:10107000814215D897FAA7F0B0FA80F040F040000E
:10108000B4EB501F01D130680CE097FAA7F0B0FA2A
:1010900080F040F04000B7EB501F02D1306A01E011
:1010A00083E0706A97FAA7F1B1FA81F101F01F01AC
:1010B00004FA01F21042D5D1B9F1000F03D0F06962
:1010C00020F08050F061E86980B37168C1F381015C
:1010D000022977D04FF080714F000228504609D086
:1010E00091FAA1F1B1FA81F148F82100FFF7D2F9A4
:1010F00005465DE0894691FAA1F1B1FA81F1C24657
:1011000048F82100FFF7C6F9804605E0FFF7C2F96D
:10111000A0EB0800022848D897FAA7F0B0FA80F0B0
:1011200040F02000400902D0306801E066E0706ABB
:1011300097FAA7F1B1FA81F101F01F0104FA01F168
:101140000842E3D1D5E908100843716821F474110D
:101150000843706099FAA9F0B0FA80F04AF820408C
:10116000FFF798F9054604E0FFF794F9401B0228C1
:101170001BD897FAA7F0B0FA80F040F020004009A1
:1011800001D0306800E0706A97FAA7F1B1FA81F1F6
:1011900001F01F0104FA01F10842E5D02EE000BF82
:1011A000FFF778F9401B022802D90320BDE8F88F29
:1011B00097FAA7F0B0FA80F040F02000400902D082
:1011C000306801E00BE0706A97FAA7F1B1FA81F19B
:1011D00001F01F0104FA01F10842E1D10EE00128FB
:1011E000E4D070682A6A00F48031914204D1696ABF
:1011F00000F47010884201D00120D7E70020D5E725
:101200002DE9F041040005D00025A56294F85D00A9
:1012100018B107E00120BDE8F08184F85C50204659
:1012200000F04AF8022384F85D302068016821F05C
:1012300040010160E0684FF4E066B04201D900214E
:1012400001E04FF48051B0F5706F02D0B04200D091
:10125000A562276B012227B9B04201D9236300E0C0
:101260002263D4E901031843D4E904363343184315
:10127000238B03F400731843E3691843236A18436C
:10128000A36A184323681860636B606AA6691843F1
:101290000427E36807EA16463343184308432168E6
:1012A00048602068C16921F40061C161256684F845
:1012B0005D200020AFE7000010B586B00446142181
:1012C0006846FEF7D7FF1349206888421FD11248AD
:1012D000816941F480518161816901F480510591F6
:1012E000416941F4003141614069694600F40030D0
:1012F0000590E02000900220019000200290032041
:101300000390052004904FF09040FEF7F3FF06B0E5
:1013100010BD0000003001400010024010B5401E1A
:10132000B0F1807F01D3012010BD4FF0E024606157
:101330000F21601700F010F90020A0610720206144
:10134000002010BDFEE7000070B586B0142168468D
:10135000FEF790FF2648416941F40011416141695F
:1013600001F400110591416941F400214161416995
:1013700001F400210591416941F480014161416915
:1013800001F480010591416941F4003141614169F5
:1013900001F400310591416941F4802141614069C6
:1013A000144E00F480204FF608750590002229465F
:1013B0003046FFF769F8372000900F480024CDE948
:1013C000010469463046FEF795FF00950125CDE9F9
:1013D0000154694630460394FEF78CFFCDE9005472
:1013E00069464FF090400294FEF784FF06B070BD4E
:1013F0000010024000100048000012100E4810B506
:101400000C4901600D49416000210122C0E902122E
:10141000016141618161C1610162FFF795F80021BD
:101420000548FFF73DF8BDE8104000210248FFF7EE
:1014300062B8000000540040100000200E09002097
:101440000E480D494FF4407201604FF482714160C3
:101450000021C0E902124FF400720161C0E90512D7
:101460000822C0E9072107234162C0E90A13C0E945
:101470000C12FFF7C5BE0000003001405C000020E8
:10148000FEE7704770477047FFF7ECB830B59FB084
:1014900028216846FEF7EEFE142119A8FEF7EAFEA1
:1014A0003C210AA8FEF7E6FE032000904FF4A0209E
:1014B0000024CDE9010401200490102005900225AC
:1014C0000003CDE90750000109906846FFF7B4FB1F
:1014D0000F20CDE919056802CDE91B40012119A8AB
:1014E0001D94FFF7CFFA05480A9040041890119414
:1014F0000AA8FFF7BBF91FB030BD000020000200B2
:101500000548016841F47001016003494FF0006033
:10151000803908607047000088ED00E000B50121C7
:10152000A0F840100021A0F84010A0F84410A0F846
:10153000501000F009F8002000BD30F8401F21F4E1
:101540003F4101800020704730F8401F41F43F4187
:10155000018000207047FEE70907090E002804DB20
:1015600000F1E02080F80014704700F00F0000F157
:10157000E02080F8141D704702E008C8121F08C15F
:10158000002AFAD170477047002001E001C1121F04
:10159000002AFBD170470000FFF76CF8FFF776FFD9
:1015A000FFF7D2FEFFF72AFFFFF74AFF2148204945
:1015B0000160082141600221816001610021816197
:1015C0000162FFF7D1F84FF480761B4C4FF47A7527
:1015D00077004FF480684FF400694FF4805A4FF45D
:1015E000005B2846FEF774FE31462046FEF746FFB4
:1015F00039462046FEF742FF41462046FEF73EFFB1
:1016000049462046FEF73AFF51462046FEF736FF90
:1016100059462046FEF732FF4FF480412046FEF740
:101620002DFF4FF400412046FEF728FFD9E70000C8
:10163000005C0040C00000200010004802030405C8
:10164000060708090A0B0C0D0E0F10100102030407
:1016500005060708090A0B0C0D0E0F10000000000C
:101660000000000001020304060708098C160008A8
:101670000000002010000000781500089C160008EB
:10168000100000202007000088150008010000005D
:0C169000100000000000000000127A00B2
:040000050800018965
:00000001FF
