:020000040800F2
:10000000383E00205D020008F3180008311800088F
:10001000F1180008AD030008D91F00080000000017
:100020000000000000000000000000009D0100082A
:100030002304000800000000F9010008E11900088D
:1000400077020008770200087702000877020008AC
:10005000770200087702000877020008770200089C
:10006000770200087702000877020008770200088C
:100070007702000877020008B10300087702000841
:10008000770200087702000877020008770200086C
:10009000770200087702000877020008770200085C
:1000A000770200087702000877020008770200084C
:1000B000770200087702000877020008770200083C
:1000C000770200087702000877020008770200082C
:1000D00077020008A51F00087702000877020008D1
:1000E000770200087702000877020008770200080C
:1000F00077020008770200087702000877020008FC
:10010000000000000000000000000000770200086E
:10011000770200087702000877020008691A0008D1
:1001200077020008770200087702000877020008CB
:1001300077020008770200080000000000000000BD
:10014000770200087702000877020008000000002C
:10015000000000000000000000000000000000009F
:10016000000000000000000077020008770200088D
:1001700077020008000000000000000000000000FE
:100180000000000077020008DFF80CD000F0FCF857
:100190000048004719200008383E00202C4B196801
:1001A0000868B0E8F04F80F30988BFF36F8F4FF015
:1001B000000080F3118870470000000008480068C4
:1001C000006880F308884FF0000080F3148862B65E
:1001D00061B6BFF34F8FBFF36F8F00DF00BF00BF6B
:1001E00008ED00E0DFF80C00016841F470010160E7
:1001F000704700BF88ED00E0EFF30980BFF36F8F19
:10020000134B1A681EF0100F08BF20ED108A20E96A
:10021000F04F106009B44FF0500080F31188BFF325
:100220004F8FBFF36F8F04F02DFB4FF0000080F372
:10023000118809BC19680868B0E8F04F1EF0100F6B
:1002400008BFB0EC108A80F30988BFF36F8F704746
:1002500094000020EFF305807047000006488047B7
:1002600006480047FEE7FEE7FEE7FEE7FEE7FEE79B
:10027000FEE7FEE7FEE7FEE74D1A000889010008E9
:100280002DE9F05F0546002092469B4688460646CB
:10029000814640241BE0284641464746224600F05E
:1002A00020F853465A46C01A914110D311461846B9
:1002B000224600F059F82D1A67EB01084F462246F6
:1002C0000120002100F050F817EB00094E41201EDC
:1002D000A4F10104DFDC484631462A464346BDE826
:1002E000F09F202A04DB203A21FA02F00021704717
:1002F00021FA02F3D040C2F120029140084319468E
:10030000704740EA01039B0703D009E008C9121FA8
:1003100008C0042AFAD203E011F8013B00F8013BBF
:10032000521EF9D27047D2B201E000F8012B491EEB
:10033000FBD270470022F6E710B513460A46044682
:100340001946FFF7F0FF204610BD30B505460020E6
:10035000034600E05B1C934205D2EC5CC85C201AAB
:1003600001D1002CF6D130BD202A04DB203A00FA5E
:1003700002F1002070479140C2F1200320FA03F3FC
:100380001943904070470000064C074D06E0E068B6
:1003900040F0010394E8070098471034AC42F6D3CC
:1003A000FFF7F6FE1064000830640008FEE7000066
:1003B000014800F05DB80000E02000200B4B016810
:1003C0001422994207D20A4B1944B1FBF2F1890079
:1003D0000164084908E0054B5B421944B1FBF2F1A6
:1003E0008900016401490839C1637047080402406B
:1003F000F8FFFDBF0000024030B590F840500124E6
:10040000AC40C56B6C60046863604368102B036884
:1004100003D099600068C26030BD9A600068C16016
:1004200030BD7047704710B590F8211000240229A4
:1004300003D004218163012418E001680A6822F0D6
:100440000E020A6001680A6822F001020A6090F850
:100450004020C36B012101FA02F25A6080F821109A
:10046000002180F82010416B01B18847204610BD63
:10047000F0B4C16B0D6801680C68066C042202FAC6
:1004800006F32B420FD063070DD50B689B0603D4F0
:100490000B6823F004030B6090F840108A40C16B96
:1004A0004A60C16A1BE0022303FA06F72F424FF0AD
:1004B000000C4FF0010216D0A70714D50C68A40653
:1004C00005D40C6824F00A040C6080F8212090F810
:1004D00040108B40C16B4B6080F820C0816A0029BE
:1004E00018D0F0BC08470823B3402B4212D0230792
:1004F00010D50B6823F00E030B6090F84010C36B0F
:1005000002FA01F15960826380F8212080F820C04E
:10051000016BE4E7F0BC704770B5040021D0022005
:1005200084F821002268116843F6F0708143D4E911
:1005300001031843D4E903352B4318436369184377
:10054000A3691843E3691843084310602046FFF786
:1005500035FF0020A063012184F8211084F82000D9
:1005600070BD012070BD70B5044690F820000025D4
:1005700001280CD0012084F8200094F8216000208C
:10058000012E06D084F820000225284670BD0220E6
:1005900070BD022684F82160A0632068066826F0FA
:1005A000010606602046FFF727FFE06A0028206862
:1005B000016802D041F00E0106E041F00A0101603D
:1005C0002068016821F0040101602068016841F0A1
:1005D00001010160D9E700002DE9F84FDFF864B1AF
:1005E00000234FF0010C4FF0030A4FF00F090BF1FD
:1005F000040EA0E00CFA03F6324072D04C68022CD4
:1006000001D0122C0ED1DC0800EB8408D8F8204071
:100610005D07EF0E09FA07F5AC430D69BD402543B0
:10062000C8F8205007685D0091F804800AFA05F4C4
:1006300008F00308A74308FA05F848EA0708C0F8D5
:1006400000804F68012F05D0022F03D0112F01D059
:10065000122F11D18768D1F80C80A74308FA05F84A
:1006600048EA0708C0F808804768B7430E79C6F320
:1006700000169E403E434660C668A6438C68AC4068
:100680003443C4604C68E40054D52F4CA56945F050
:100690000105A561A46923F0030504F00104009499
:1006A0002A4C2E19B4689D072F0F09FA07F5AC43A1
:1006B000B0F1904F04D0264DA84203D1012512E09D
:1006C000002510E0234DA84201D102250BE0224D68
:1006D000A84201D1032506E0204DA84202D10425FD
:1006E00001E027E00525BD402543B560DBF800406B
:1006F0005D464E689443F60300D514432C60DEF843
:10070000004075464E689443B60300D514432C60F0
:100710000C4D08352C684E689443F60200D51443FE
:100720002C60084D0C352C684E689443B60200D5F9
:1007300014432C605B1C0A6832FA03F47FF45AAF4E
:10074000BDE8F88F000401400010024000000140A5
:100750000004004800080048000C00480010004851
:100760000069084000D00120704742690A4200D069
:100770000904816170470AB18161704781627047E5
:1007800001488068704700008400002002488168AA
:10079000027811448160704784000020074810B53A
:1007A000016841F010010160032000F08BF8002087
:1007B00000F006F800F03EF8002010BD00200240D6
:1007C00000B5014687B00022372000F05BF83720E3
:1007D00000F04AF81348C16941F02001C161C069C5
:1007E00005A900F020000690684600F02DFA00F000
:1007F0004BFA0D494000B0FBF1F10D480B4A491E80
:100800000260416040F2E7320021C0E903218160CB
:1008100000F087FD10B1012007B000BD044800F0D2
:100820009DFDF9E70010024040420F000014004017
:10083000242100200B4882B0816941F001018161CF
:10084000816901F001010091C16941F08051C161EC
:10085000C069002200F0805000900F21901E02B06D
:1008600000F010B800100240002809DB00F01F0261
:10087000012191404009800000F1E020C0F8001102
:1008800070470000F0B40E4B1B680C46C3F3022304
:10089000C3F10705042D00D90425191D072901D22C
:1008A000002300E0DB1E012606FA05F1491E214067
:1008B00099409E40761E16403143F0BC01F08DBB3E
:1008C0000CED00E0064900F0070208684FF6FF0350
:1008D000184040EA0220034A1043086070470000B5
:1008E0000CED00E00000FA052DE9F84F0446006821
:1008F000804DC0036FD5E8690026C00008D4E869C0
:1009000040F08050E861E869012600F080500090D6
:1009100079480168C90512D40168804641F48071A4
:100920000160FFF72DFF074605E000BFFFF728FF36
:10093000C01B642835D8D8F80000C005F6D5286A51
:1009400010F4407053D0A18801F4407181424ED020
:10095000286A4FF4803191FAA1F2B2FA82F297003C
:10096000664A4FF00108174420F44070C7F800842D
:1009700091FAA1F1B1FA81F102EB81010023C1F8F2
:1009800000342862C00732D0FFF7FAFE074641F272
:10099000883A4FF0020907E0FFF7F2FEC11B51450C
:1009A00002D90320BDE8F88F99FAA9F1B1FA81F1D3
:1009B00041F040014846B8EB511F01D129680CE0D5
:1009C00090FAA0F1B1FA81F141F04001B0EB511F72
:1009D00002D1296A01E015E0696A99FAA9F0B0FA32
:1009E00080F000F01F0008FA00F21142D4D0286A0B
:1009F000616820F44070084328621EB1E86920F065
:100A00008050E8612078C00705D0286BA16820F0ED
:100A10000300084328632078800705D5286BE16828
:100A200020F44030084328632078400705D5286B20
:100A3000216920F44020084328632078800605D5EA
:100A4000286BE16920F010000843286320688003C8
:100A500005D56868A16B20F48000084368602078A1
:100A6000400605D5286B216A20F020000843286342
:100A70002078000705D5286B616920F440100843F1
:100A800028632078C00605D5286BA16920F44000B2
:100A9000084328632088800505D56868E16A20F44A
:100AA0000000084368602078000605D5E86A616A9E
:100AB00020F4F8700843E8622088C00505D5E86A8C
:100AC000A16A20F478500843E8622088C00405D564
:100AD000286B216B20F480700843286320888004F1
:100AE00005D5286B616B20F4007008432863002053
:100AF00058E7000000100240007000400000424231
:100B00002DE9F0470F46050069D04A4E306800F0E5
:100B10000700B84209D2306820F00700384330603F
:100B2000306800F00700B84259D12878424C80075D
:100B300005D56068A96820F0F00008436060287857
:100B4000C0073DD06968012001290DD0022923D0BA
:100B50005FF0020393FAA3F2B2FA82F242F02002AB
:100B6000520904D0226803E04FF40033F2E7626ACE
:100B700093FAA3F3B3FA83F303F01F0398400242FE
:100B80002DD0606820F0030008436060FFF7F8FD97
:100B9000804641F288390CE04FF00073DAE700BF7D
:100BA000FFF7EEFDA0EB0801494502D90320BDE89F
:100BB000F0876068696800F00C00B0EB810FEFD13E
:100BC000306800F00700B8420BD9306820F0070009
:100BD00038433060306800F00700B84201D001208F
:100BE000E5E72878400705D56068E96820F4E0600B
:100BF000084360602878000706D56068296920F4FA
:100C0000605040EAC100606000F06EF86168F02258
:100C100092FAA2F201F0F001B2FA82F2D140074A50
:100C2000515CC8400649086006480068FFF7C8FDE7
:100C30000020BCE700200240001002406C5A00086F
:100C400090000020880000200F2202600C4A5368A8
:100C500003F003034360536803F0F00383605368B9
:100C600003F4E063C36052684FF4E06303EAD20226
:100C700002610448006800F0070008607047000047
:100C800000100240002002400848094900684968F5
:100C90004FF4E06292FAA2F201F4E061B2FA82F259
:100CA000D140044A515CC8407047000090000020C9
:100CB000001002407C5A0008084809490068496849
:100CC0004FF4605292FAA2F201F46051B2FA82F249
:100CD000D140044A515CC840704700009000002099
:100CE000001002407C5A0008164A10B55168164898
:100CF00001F00C03042B20D0082B1ED14FF47014EC
:100D000094FAA4F401F47013B4FA84F4E3400F4CA1
:100D1000D26AE45C0F2393FAA3F302F00F02B3FA52
:100D200083F3DA40094B1033C9039A5C06D50023DC
:100D30001946FFF7A5FAA0FB040110BD0448A4FB67
:100D4000000110BD0010024000127A004C5A000849
:100D500000093D002DE9F84F050071D02878FC4EC0
:100D6000C0074FF0010425D070686704C0F381000C
:100D7000012807D07068C0F3810002281BD1706879
:100D8000C00318D597FAA7F0B0FA80F040F0200021
:100D9000400901D0306800E0706A97FAA7F1B1FA13
:100DA00081F101F01F0104FA01F1084265D0686881
:100DB0000028D2D061E06868B0F5803F0BD010B158
:100DC000B0F5A02F17D0306820F480303060306844
:100DD00020F4802002E0306840F480303060F06A17
:100DE000A96820F00F000843F062686820B3FFF79D
:100DF000C7FC80460AE0306840F480203060EAE7B3
:100E0000FFF7BEFCA0EB0800642871D897FAA7F0A2
:100E1000B0FA80F040F02000400901D0306800E0D6
:100E2000706A97FAA7F1B1FA81F101F01F0104FA93
:100E300001F10842E4D020E0FFF7A2FC804607E081
:100E4000C2E000BFFFF79CFCA0EB08006428DCD8E0
:100E500097FAA7F0B0FA80F040F02000400901D0E6
:100E6000306800E0706A97FAA7F1B1FA81F101F0F9
:100E70001F0104FA01F10842E4D12878DFF8D48296
:100E800080074FF0000A4FF0020730D570684FF02E
:100E9000F80B10F00C0F07D07068C0F38100022827
:100EA00027D17068C00324D497FAA7F0B0FA80F075
:100EB00040F02000400901D0306800E0706A97FAE5
:100EC000A7F1B1FA81F101F01F0104FA01F1084222
:100ED00002D02869012877D130689BFAABF220F064
:100EE000F8016869B2FA82F29040014331605AE039
:100EF00064E1286988B394FAA4F0B0FA80F048F865
:100F00002040FFF73DFC814606E000BFFFF738FCBC
:100F1000A0EB090002289AD897FAA7F0B0FA80F05F
:100F200040F02000400901D0306800E0706A97FA74
:100F3000A7F1B1FA81F101F01F0104FA01F10842B1
:100F4000E4D030689BFAABF26969B2FA82F220F021
:100F5000F80091400843306025E0FFE794FAA4F0E0
:100F6000B0FA80F048F820A0FFF70AFC814605E0BF
:100F7000FFF706FCA0EB09000228CCD897FAA7F0EF
:100F8000B0FA80F040F02000400901D0306800E065
:100F9000706A97FAA7F1B1FA81F101F01F0104FA22
:100FA00001F10842E4D1287800076CD5A869A8B3FC
:100FB00094FAA4F0B0FA80F008EB8000C0F8804406
:100FC000FFF7DEFB814607E0A4E100BFFFF7D8FB97
:100FD000A0EB090002289ED897FAA7F0B0FA80F09B
:100FE00040F06000B4EB501F01D130680BE097FA7D
:100FF000A7F0B0FA80F040F06000B7EB501F01D1CD
:10100000306A00E0706A97FAA7F1B1FA81F101F055
:101010001F0104FA01F21042D8D034E0FFE794FA3D
:10102000A4F1B1FA81F108EB8101C1F880A4FFF7C6
:10103000A7FB814606E000BFFFF7A2FBA0EB09007B
:1010400002289AD897FAA7F0B0FA80F040F0600032
:10105000B4EB501F01D130680BE097FAA7F0B0FA5B
:1010600080F040F06000B7EB501F01D1306A00E023
:10107000706A97FAA7F1B1FA81F101F01F0104FA41
:1010800001F21042D8D12878400768D5F0694FF0B6
:101090000009C00009D4F06940F08050F061F069A7
:1010A0004FF0010900F0805000902B480168C905FD
:1010B00012D4016841F480710160FFF761FB83463F
:1010C00006E000BFFFF75CFBA0EB0B00642875D8BF
:1010D00021480068C005F5D5E86801280AD008B1A4
:1010E000052811D0306A20F001003062306A20F00B
:1010F000040002E0306A40F001003062E86868B342
:10110000FFF73EFB83460DE0306A40F0040030629A
:10111000F0E700BFFFF734FBA0EB0B0141F2883092
:1011200081424BD897FAA7F0B0FA80F040F0400027
:10113000B4EB501F01D1306813E097FAA7F0B0FA72
:1011400080F040F04000B7EB501F09D1306A08E052
:101150000010024000004242007000400CE040E0FD
:10116000706A97FAA7F1B1FA81F101F01F0104FA50
:1011700001F21042CED02DE0FFF702FB834607E0DC
:10118000FFF7FEFAA0EB0B0141F28830814215D83F
:1011900097FAA7F0B0FA80F040F04000B4EB501F8F
:1011A00001D130680CE097FAA7F0B0FA80F040F077
:1011B0004000B7EB501F02D1306A01E083E0706A53
:1011C00097FAA7F1B1FA81F101F01F0104FA01F2D7
:1011D0001042D5D1B9F1000F03D0F06920F0805052
:1011E000F061E86980B37168C1F38101022977D0A9
:1011F0004FF080714F000228504609D091FAA1F1BA
:10120000B1FA81F148F82100FFF7BAFA05465DE02E
:10121000894691FAA1F1B1FA81F1C24648F821005C
:10122000FFF7AEFA804605E0FFF7AAFAA0EB080048
:10123000022848D897FAA7F0B0FA80F040F02000D2
:10124000400902D0306801E066E0706A97FAA7F1C1
:10125000B1FA81F101F01F0104FA01F10842E3D172
:10126000D5E908100843716821F4741108437060CF
:1012700099FAA9F0B0FA80F04AF82040FFF780FA16
:10128000054604E0FFF77CFA401B02281BD897FABA
:10129000A7F0B0FA80F040F02000400901D030689B
:1012A00000E0706A97FAA7F1B1FA81F101F01F012D
:1012B00004FA01F10842E5D02EE000BFFFF760FA22
:1012C000401B022802D90320BDE8F88F97FAA7F047
:1012D000B0FA80F040F02000400902D0306801E010
:1012E0000BE0706A97FAA7F1B1FA81F101F01F01E2
:1012F00004FA01F10842E1D10EE00128E4D070685F
:101300002A6A00F48031914204D1696A00F47010B5
:10131000884201D00120D7E70020D5E77047704709
:10132000704710B5040003D094F83D0010B107E0F9
:10133000012010BD002084F83C00204600F00CF88D
:10134000022084F83D00211D206800F093FB01205D
:1013500084F83D00002010BD704700000168CA6895
:1013600042F00102CA6001688868064A10400628F7
:1013700006D0B0F5803F03D0086840F00100086057
:101380000020704707000100704770B504460068F0
:1013900001694FF00005C943890715D4C168C943E5
:1013A000890711D4E91E0161012020772068806936
:1013B0008007204602D0FFF7E7FF04E000F0A7F81F
:1013C000204600F0A5F8257720680169C943490740
:1013D00017D4C168C943490713D46FF004010161F0
:1013E000022020772068806910F4407F204602D0D8
:1013F000FFF7CAFF04E000F08AF8204600F088F802
:10140000257720680169C943090716D4C168C94313
:10141000090712D46FF008010161042020772068C9
:10142000C0698007204602D0FFF7AEFF04E000F05D
:101430006EF8204600F06CF8257720680169C943F2
:10144000C90617D4C168C943C90613D46FF0100187
:101450000161082020772068C06910F4407F204691
:1014600002D0FFF791FF04E000F051F8204600F0B1
:101470004FF8257720680169C943C90708D1C168B9
:10148000C943C90704D1891E0161204600F042F812
:1014900020680169C943090609D4C168C94309061E
:1014A00005D46FF0800101612046FFF738FF206806
:1014B0000169C943C90509D4C168C943090605D4EE
:1014C0006FF4807101612046FFF728FF20680169F1
:1014D000C943490609D4C168C943490605D46FF018
:1014E00040010161204600F01FF820680169C943EE
:1014F00089060BD4C168C943890607D46FF020015F
:1015000001612046BDE87040FFF70ABF70BD70471B
:101510007047000000680349884201D1FFF736B9DF
:10152000704700000014004070477047704700008B
:101530002DE9F04102680446D0691168936840F6CD
:101540000F0528424FF0000505D186067BD58E0693
:1015500079D5216E88E003F0010601F490773743D6
:1015600071D0C70707D0CF0505D501271762E26FF5
:1015700042F00102E267820708D5DA0706D0276841
:1015800002223A62E26F42F00402E267420708D5A3
:10159000DA0706D0236804221A62E26F42F00202E0
:1015A000E26702070AD501F02002324306D0236821
:1015B00008221A62E26F42F00802E267020509D5CA
:1015C0004A0107D523684FF400621A62E26F42F0C5
:1015D0002002E267E26F002A2ED0800605D5880639
:1015E00003D5216E09B120468847E06F21688968DC
:1015F000490602D410F0280F20D0204600F075FBD9
:1016000020688168490614D5816821F04001816015
:10161000E06E70B11D494163E06EFEF704FF0028E3
:101620000AD0E06E416B00E02046BDE8F04108477B
:1016300009E02046FFF77AFFBDE8F0812046FFF77A
:1016400075FFE567F8E7C60209D55B0207D54FF4D9
:10165000801010622046BDE8F041FFF766BF030628
:1016600005D50B0603D5616E0029DDD1E4E7400600
:10167000E2D54806E0D51168204621F0400111600E
:1016800020216167656600F0D1F8D5E7571C000896
:1016900010B5040002D0606F10B107E0012010BD4A
:1016A000002084F87000204600F026F824206067AF
:1016B0002068016821F001010160204600F02CFB48
:1016C0000128ECD0606A10B1204600F034FA20689E
:1016D000416821F4904141602068816821F02A012D
:1016E00081602068016841F0010101602046BDE889
:1016F000104000F084BA000070B586B00646142190
:101700006846FEF717FE2049306888423AD11F49E3
:10171000886940F480408861886900F480400590C1
:10172000486940F4002048614869002500F4002021
:101730000590302000900220CDE9010503200390A0
:101740000720049069461248FEF746FF124C1148E4
:1017500020601020C4E901058020C4E9030565610B
:10176000A5612046E561FEF7D7FE08B1FEF75AFEF7
:10177000B4660022052125206662FFF783F8252044
:10178000FFF772F806B070BD00380140001002404B
:101790000008004844000240E020002070B50446E4
:1017A000406F20283AD159B352B394F87000012801
:1017B00034D0012084F87000E164A4F85020A4F82B
:1017C00052200025E56721206067A06ED0B1144942
:1017D0008162A16E13481346C862A16E1248086365
:1017E000A06E45632668E16C06F12802A06EFEF744
:1017F000BAFE38B11020E06784F87050202060678E
:10180000012070BD21684020086284F87050206873
:10181000816841F080018160002070BD022070BDB0
:10182000B31C0008E11C00086B1C000870477047DF
:10183000FEE70000F0B587B014216846FEF77AFD98
:101840001E48416941F480014161416901F4800110
:101850000591416941F400314161416901F4003170
:101860000591416941F400214161416901F4002180
:101870000591416941F4001141614069104F00F444
:1018800000104FF47F460590002231463846FEF79F
:1018900072FF00240125CDE9005469464FF09040C5
:1018A0000294FEF799FE0096CDE901546946384648
:1018B0000394FEF791FE07B0F0BD00000010024057
:1018C000001000480948084901604FF41651416072
:1018D000002181600C22C160C0E904128161C161F4
:1018E00001624162FFF7D4BE003801406020002051
:1018F000FEE770470D4C00200D49608080B208540F
:10190000401C80B26080FF28F8D94FF4807121809C
:101910000848FEF72AFF0649228801F58070FFF784
:101920003DFF012000F0D8FBFBE700006C00002029
:10193000601F002000100048064D4FF400644FF473
:101940007A7621462846FEF710FF304602F080FDE9
:10195000F7E70000001000488AB0002002F034FCD5
:10196000144DDFF8548004464FF090464FF4005772
:101970004FF4805901213046FEF7F2FE88B124224F
:101980000E496846FEF7BDFC6A4600210C4800F08F
:10199000F9FB611C686102F09BFE39464046FEF788
:1019A000E4FE49464046FEF7E0FE642002F050FDAA
:1019B000E0E700006C00002000100048285A0008F2
:1019C000C519000810B54FF480610448FEF7CDFE3C
:1019D000BDE81040002002F081BD0000001000486A
:1019E0004FF0E020006903F053B970B59EB0282194
:1019F0006846FEF79FFC142119A8FEF79BFC3C21CA
:101A00000AA8FEF797FC01252804CDE90050002420
:101A1000029402260495CDE907604FF4E010099086
:101A20006846FFF797F90F20CDE91906A802CDE91E
:101A30001B40022119A81D94FFF762F80AA80A9515
:101A40000C94FEF751FF1EB070BD00000548016800
:101A500041F47001016003494FF000608039086073
:101A60007047000088ED00E00148FFF78EBC0000E1
:101A7000242100202DE9F0430268234B234D244EFE
:101A8000244C4FF08049984207D0484505D0A842E1
:101A900003D0B04201D0A04203D122F070074A68BF
:101AA0003A431D4FDFF874C0DFF8748098420DD0C0
:101AB00048450BD0A84209D0B04207D0A04205D07B
:101AC000B84203D0604501D0404503D122F44075AF
:101AD000CA682A434D6922F080022A4302608A685C
:101AE000C2620A688262984207D0A04205D0B8421A
:101AF00003D0604501D0404501D10969016301214E
:101B00004161BDE8F0830000002C0140000400406A
:101B10000008004000340140004001400044014002
:101B20000048014003F030FF08B100F07FFF0A20B9
:101B300002F08EFCF6E790F82410C90706D0016881
:101B40004A68836A22F400321A434A6090F82410EB
:101B5000890706D501684A68C36A22F480321A43AD
:101B60004A6090F82410490706D501684A68036B5B
:101B700022F480221A434A6090F82410090706D5FF
:101B800001684A68436B22F400421A434A6090F8A5
:101B90002410C90606D501688A68836B22F4805236
:101BA0001A438A6090F82410890606D501688A686D
:101BB000C36B22F400521A438A6090F8241049063D
:101BC00011D501684A68036C22F480121A434A60F6
:101BD000016CB1F5801F06D101684A68436C22F49C
:101BE000C0021A434A6090F82410090606D501681D
:101BF0004A68806C22F4002202434A607047F8B5BC
:101C000000260446C667FEF7BBFD0546206800684F
:101C10006FF07E47000708D52B4600224FF40011D5
:101C20002046009700F06CF960B920680068400712
:101C30000AD52B4600224FF480012046009700F081
:101C40005FF908B10320F8BD20206067A06784F821
:101C500070600020F8BD10B5406A0021A0F85A104D
:101C6000A0F85210FFF762FC10BD70B5446A606FB7
:101C7000A56F216889684FF00006090606D521285E
:101C800004D1A4F85260204600F03EF82068806835
:101C9000400606D5222D04D1A4F85A60204600F053
:101CA00024F8E06F40F01000E0672046FFF73EFCAC
:101CB00070BD10B50146406A896920290DD0002108
:101CC000A0F8521001688A6822F080028A600068D9
:101CD000016841F04001016010BDFFF7A7FD10BD94
:101CE00010B5406AFFF7A3FD10BD01680A6822F431
:101CF00090720A6001688A6822F001028A602021DD
:101D0000816700210166704701680A6822F0C002FD
:101D10000A6020214167704770B5044680682169D8
:101D2000E2690843616900251143084321680A6894
:101D300049F20C639A4302430A6020684168E268F2
:101D400021F4405111434160A169206A0843216890
:101D50008A6822F4306202438A60614B20686149DC
:101D60004FF4803298420CD1086B10F0030006D07B
:101D700001285DD002285DD0032844D156E001211E
:101D800042E0594B98420CD1086B10F440304BD0D4
:101D900090424DD0B0F5003F4CD0B0F5403F32D12D
:101DA00044E0524B98420DD1086B10F440203BD0D8
:101DB000B0F5802F3CD0B0F5002F3BD0B0F5402FD0
:101DC00021D133E04A4B98420DD1086B10F44010FA
:101DD0002AD0B0F5801F2BD0B0F5001F2AD0B0F567
:101DE000401F10D122E0434B98420CD1086B10F4F5
:101DF000400019D0B0F5800F1AD0B0F5000F19D0FF
:101E0000B0F5400F12D01021E0694FF400434FF6B7
:101E1000EF76984234D109295BD2DFE801F00D104A
:101E2000275A2A5A5A5A2D000021EDE70221EBE7E2
:101E30000421E9E70821E7E7FEF726FF01E0FEF7C6
:101E40003BFF4100D4F8040001EB5001B1FBF0F07E
:101E500080B2A0F11001B1423BD84FF6F0710140C1
:101E6000C0F3420001432068C16033E0224960684A
:101E7000EAE7FEF739FFE4E7606802EB5001E5E7C7
:101E8000092926D2DFE801F0050817251C2525259C
:101E90001F00FEF7F9FE01E0FEF70EFF616800EBA0
:101EA0005100B0FBF1F080B2A0F11001B14210D8A6
:101EB0002168C8600EE01149606801EB500105E03F
:101EC000FEF712FFEAE7606803EB5001B1FBF0F0A8
:101ED000E9E70125002020666066284670BD000005
:101EE000003801400010024000440040004800401B
:101EF000004C0040005000400024F40000127A0022
:101F00002DE9F0479A4617460E4604464FF0000961
:101F10004FF02008089D39E0681C37D0FEF730FCF0
:101F2000A0EB0A00A84222D80DB320680168490737
:101F30002CD5C069C043000528D421684FF4006047
:101F400008622068016821F4D0710160206881680E
:101F500021F001018160C4F87480C4F87880C4F86D
:101F60007C8000BF84F870900320BDE8F087206873
:101F7000016821F4D07101602068816821F00101BD
:101F80008160C4F87480C4F87880EBE72068C06989
:101F900036EA000004D00020B842BDD00020E4E7BB
:101FA0000120F9E710B50848FFF7C2FA4FF40071B5
:101FB0000648FEF7DAFB064806490288BDE81040ED
:101FC0000148FFF7EBBB0000602000200010004834
:101FD0006C000020601F0020FEE70907090E0028A2
:101FE00004DB00F1E02080F80014704700F00F00DF
:101FF00000F1E02080F8141D704702E008C8121FAD
:1020000008C1002AFAD170477047002001E001C1E1
:10201000121F002AFBD17047A6B0FEF7BFFBFFF7E7
:10202000E4FCFFF707FC2548416941F001014161EB
:102030004069002200F00100249005210E20FEF7E7
:1020400021FC0E20FEF710FCFFF73CFC012002F003
:1020500061FC00F05BF8242219496846FEF751F94B
:102060006A460021174800F08DF8174C14492422C5
:10207000A060243109A8FEF744F909AA00211348F9
:1020800000F080F80E49E0602422483112A8FEF7E3
:1020900038F912AA00210E4800F074F808492061AE
:1020A00024226C311BA8FEF72CF91BAA0021094839
:1020B00000F068F8606100F045F8FEE700100240AB
:1020C00098590008F51800086C000020391900081C
:1020D00059190008C519000810B5EFF3058149B971
:1020E000EFF3108131B908490968022905D1EFF3EE
:1020F000118111B16FF0050403E0002408B102F072
:10210000A7F9204610BD0000E4000020EFF3058091
:1021100058B9EFF3108040B909490868022801D086
:1021200030B109E0EFF3118030B16FF00500704776
:1021300001200860002070474FF0FF30704700001A
:10214000E400002010B5EFF3058060B9EFF31080D4
:1021500048B90B490868022802D0012806D00BE0D4
:10216000EFF3118040B16FF0050010BD0220086050
:1021700002F03CFB002010BD4FF0FF3010BD00000E
:10218000E4000020F0B585B04FEA01034FF00004F1
:10219000EFF305810394A1BBEFF3108189BB2149C3
:1021A0000968022902D1EFF3118151BB48B380269F
:1021B00018218DF8104004AD42B3176807B13D46B1
:1021C00097691FB139467F1E382F02D21779FF0752
:1021D00002D0002005B0F0BD576907B1BE08D2F8A3
:1021E00008C0BCF1000F0DD0D4685C2C18D3126964
:1021F0003AB137B18DE806103246294603F06BF943
:1022000003900DE0D7685FB912694AB903AACDE916
:102210000012B2B2294603F031F9012800D003942C
:102220000398D7E7E40000202DE9F041134C0F4656
:10223000054666692068001D01F0A4FF681C07D1EF
:1022400037B12168BDE8F0410D48091D02F006B81C
:1022500020683544B5424560216805D2A068BDE8D4
:10226000F041091D01F0E2BF6068091D01F0DEFFC9
:10227000206B854200D22563BDE8F08194000020E8
:10228000542600202DE9F041054601F0F3FF4F4CA4
:102290002069401C206120684D4F10B1E06930B3C7
:1022A0002BE025602069012827D1002606EB860057
:1022B00007EB800001F0ACFF761C382EF6D34548C2
:1022C00001F0A6FF4348143001F0A2FF4148283036
:1022D00001F09EFF3F483C3001F09AFF3D485030EE
:1022E00001F096FF3B4860601430A06005E0206874
:1022F000E96AC06A884200D82560E06A364E401C10
:10230000E0626864ADB3032000F060FE0146284639
:1023100001F0D5FA31480188284601F0C3FA284671
:1023200000F07BFFC1B205F13402032001F082F915
:10233000284600F072FFC1B295F82C20032001F06E
:1023400037FA00F0A5FD00F063FF318808420DD098
:10235000284600F05DFF3188084207D0284600F08B
:102360005CFFC2B203211B2001F0B6FA284600F040
:1023700039F8284600F04CFF3188084205D028463D
:1023800000F04BFFC0B201F07BFCE86AA169884213
:1023900000D9A06100EB800007EB8000291D01F04F
:1023A0005DFF01F087FFE06900280CD02068E96A32
:1023B000C06A884207D20A494FF080500860BFF3D4
:1023C0004F8FBFF36F8FBDE8F081000094000020B5
:1023D000A421002004260020180000201A0000205C
:1023E00004ED00E00A4A002152F831303BB1491CAB
:1023F0000A29F9DB07484168491C4160704742F8E7
:10240000310002EBC1014FF0FF304860704700001F
:102410000C010020000000202DE9F0414FF00004E5
:102420001B4F060025462ED1BDE8F041194800F0AB
:1024300067BC396BC869031901EB830090F8682900
:10244000A2F1990CBCF10F0F0DD2983AD2B2896962
:1024500013448B4216D2042101EB820100F668106E
:10246000FDF768FF0EE0012A0CD18A695B1C9A42D5
:1024700004D9C0F86859C0F86C5903E0C1F868592C
:10248000C0F86859641CB442D3D3BDE8F0810000A1
:1024900014000020DC5D000838B501F0EBFE104CA4
:1024A000A068C8B90F4801F0B3FE0E48143001F01F
:1024B000AFFE0C482060143060600A4B00202833C7
:1024C000009003F1500210210A2002F0F7FBA060F7
:1024D00010B105A101F072FFBDE8384001F0EABE7D
:1024E000D000002068260020546D725100000000CA
:1024F00030B4026C0B46002A0BD0C1681144C16095
:102500004468A14201D30168C16030BC1846FDF7A0
:10251000F8BE30BC70472DE9F041856B1746044684
:102520000026026C82B1C7B1E068FDF7EAFEE168FF
:10253000206C091AE1602268914202D26168081A8F
:10254000E060022F16D017E02068A8B9606803F099
:102550008FF80646002060600EE0A068FDF7D1FE0F
:10256000216CA0680844A0606168884204D3206898
:10257000A06001E005B16D1E6D1CA5633046BDE88D
:10258000F08110B5044690F8590058B101280CD0DC
:1025900002280FD0502080F31188BFF34F8FBFF374
:1025A0006F8FFEE7206B01F099FE2046BDE81040DA
:1025B00001F094BE10BD000010484FF44061420786
:1025C00006D0C01D0D4920F00700411AC1F5406139
:1025D0000B4A00230144C2E900030839103A21F0F4
:1025E000070111604B600B600B1AC0E90013936088
:1025F0004FF000405360D06070470000382E00203C
:10260000F8000020144E154CA6F29C474FF080585D
:10261000DFF84C9012E000BF01F02CFEF068C568B6
:10262000281D01F0AFFD2069401E2061E068401EBA
:10263000E06001F03FFE2846FFF7A3FFE0680028B6
:10264000EAD138680128F9D9C9F80080BFF34F8F63
:10265000BFF36F8FF2E700004026002094000020B7
:1026600004ED00E02DE9F0411D46069C002952D002
:10267000C4F80020C4E90F010121204602F052FBFA
:1026800084F84C50204600F0C1FD244D285C00F039
:102690009DFC0146204601F0DCF8214801882046D7
:1026A00001F0CAF8204600F0ACFDC6B2204600F0AA
:1026B000ADFD285C314600F0D5F800F0E9FB00F0F4
:1026C000A7FD184E3188084217D0204600F094FD2F
:1026D0003188084211D0204600F093FDC7B2204651
:1026E00000F094FD2E5C204600F090FD285C3A46F8
:1026F0001830C0B2314601F0EFF8204600F081FDFD
:10270000C6B2204600F082FD285C3146BDE8F041AB
:10271000002201F00BB82460ACE700000C000020A0
:102720001A000020180000202DE9F0470E46DDE9D0
:1027300009841746824691009946089DA522206B80
:10274000FDF7F1FD6FF00301206B01EB87010844F9
:1027500020F00707780707D0502080F31188BFF3D7
:102760004F8FBFF36F8FFEE72218315C82F8341071
:10277000315C11B1401C1028F6D3002684F8436068
:10278000382D00D33725E562C4E91356201D01F02A
:102790004AFD04F1180001F046FD2461C5F138003E
:1027A0006462A061666584F858604A4651463846BE
:1027B00001F028FC2060B8F1000F01D0C8F80040FB
:1027C000BDE8F08730B5114900E011460A68824241
:1027D000FBD34B685C18844203D1406818444860BE
:1027E000084643681C18944209D1084C103C2468E0
:1027F000A24209D052681A4442600A681268026014
:10280000814200D0086030BD0460F9E7F800002084
:1028100070B5002441600B4D0061914206D8D11A79
:102820008269914206D2011D686807E09A4203D28C
:10283000994201D3012403E0011D286801F0F6FC50
:10284000204670BDD000002010B5044601F012FDF6
:10285000A06B28B15FF0000401F02CFD204610BDF4
:102860000124F9E70A4610B50146104601F0E4FBE1
:10287000034A0121126B104480F89C1010BD000027
:102880001400002030B589B0304D55E00498002880
:1028900006DADDE90601059A9047049800284BDB2B
:1028A000069C606910B1201D01F06CFC02A800F0CC
:1028B00001F9024604980A283ED2DFE800F0050537
:1028C000053D263705053D260598A16903460144C7
:1028D0002046FFF79DFF00B3616A20468847E06904
:1028E000012829D1002000900598A16900234218F1
:1028F0001946204603F014F878B9502080F3118867
:10290000BFF34F8FBFF36F8FFEE70598A06128B12B
:10291000811813462046FFF77BFF0DE0502080F31F
:102920001188BFF34F8FBFF36F8FFEE794F82C0031
:1029300010B9204601F0D2FC002204A9A86802F0D8
:1029400029FC0028A2D109B030BD0000D000002031
:102950002DE9FC410F46054601F08CFF01A800F06F
:10296000A9F80446019818B102F038FFBDE8FC81CF
:10297000224EAFB170680068A8B30027291B3A4601
:10298000B06801F043FD02F029FF0028EED11C4998
:102990004FF080500860BFF34F8FBFF36F8FE5E7B4
:1029A000A542EBD802F01AFF30682746C068C46819
:1029B000201D01F0E7FBE069012810D1A0692B463A
:1029C00041193A462046FFF723FF40B10020034655
:1029D000014600902A46204602F0A2FF20B1616A1B
:1029E00020468847C2E707E0502080F31188BFF3F4
:1029F0004F8FBFF36F8FFEE70127BFE7D0000020A6
:102A000004ED00E010B50021074B0A4653F83140B1
:102A1000844204D103EBC10443F831206260491CB5
:102A20000A29F3DB10BD00000C0100202DE9F04164
:102A3000164C174D0026A7684FF00A08A06855F8F5
:102A40003000B0B101F0B4FBA16805EBC1035A68D6
:102A5000824200D9586055F8310000F0DEFBC2B266
:102A6000A068032105EBC0004368EA2001F00AF8E2
:102A7000761CA068401C90FBF8F208FB1200A060D6
:102A8000012E01DAB842D9D1BDE8F0810000002062
:102A90000C01002006484168096829B14168C968ED
:102AA000C9684968016370474FF0FF31FAE70000D9
:102AB0009400002070B5054602F04CFD064E044619
:102AC0003069844203D200F015F8012000E00020B4
:102AD00028602046346170BDD000002010B500236E
:102AE00005E0CC5CC454CC5C002C02D05B1C93424F
:102AF000F7D310BDF8B5194D1FE0C068C46806686B
:102B0000201D01F03FFB616A20468847E0690128EB
:102B100013D1A0693044B04206D924616060211D00
:102B2000286801F083FB08E000200346014600907E
:102B30003246204602F0F4FE38B1286801680029C8
:102B4000DBD16968C5E90010F8BD502080F3118819
:102B5000BFF34F8FBFF36F8FFEE70000D000002060
:102B6000002101E0401C491C0278A52AFAD0C1F3DB
:102B70008F00704708484068401C4FF0500080F3B9
:102B8000118804D0BFF34F8FBFF36F8FFEE7BFF301
:102B90004F8FBFF36F8FFEE700010020074C2068C6
:102BA000016841B1C0680021D0F80000FFF7D0FEF5
:102BB000FFF768FEF3E701210020F7E7D0000020CF
:102BC0002DE9F0410E46144601004FF000070ED0EB
:102BD0007CB12C4D04F1040C286BD0F8642594448E
:102BE000BCF5487F0BD3284800F08AF847E027A0BF
:102BF00000E035A000F084F80020BDE8F08100EB93
:102C0000460700F5AD6097F888781754286B00EBFD
:102C10004602D0F86475B2F8882800F26950120AAA
:102C20003A54286BD0F8642500F26A501354286B8C
:102C30001A0AD0F8643500F26B501A54286BD0F899
:102C4000642500F26C5010442246FFF747FF286BC2
:102C50000021D0F86425024404F26C50641D115424
:102C6000286B00EB4602B0F86415A2F88818D0F87B
:102C700064152144C0F86415E0B2081A87B23846DA
:102C8000BBE7000014000020646200085452414376
:102C9000455F4153534552543A20707276547261E5
:102CA000636543726561746553796D626F6C5461DD
:102CB000626C65456E7472793A206E616D65203D77
:102CC0003D204E554C4C000054524143455F41530A
:102CD000534552543A207072765472616365437260
:102CE0006561746553796D626F6C5461626C6545A2
:102CF0006E7472793A206C656E203D3D2030000084
:102D000070B50C4C0546206B08B101F0E5FE606A19
:102D100000280DD16562206B2946002808D050227A
:102D200000F61410FFF7DAFE216B0120C1F80C0940
:102D300070BD00001400002030B4092801D31048F1
:102D400013E031B10F4A126B024492F864208A42B8
:102D500001D20D4809E00D4A02EB400432F8103070
:102D6000648A5B1EA34203DA09A030BCFFF7C8BF28
:102D70009BB222F81030D01880F8481030BC704751
:102D8000446300081400002038610008B8050020E2
:102D9000417474656D707420746F2066726565206F
:102DA0006D6F72652068616E646C65732074686114
:102DB0006E20616C6C6F63617465642100000000BB
:102DC00030B40123002410B119B122B109E00AA0E6
:102DD00002E016A000E021A030BCFFF791BF2C4418
:102DE0005B1C10F8015B002DF9D104F03F00087066
:102DF000137030BC7047000054524143455F41534B
:102E0000534552543A207072765472616365476537
:102E100074436865636B73756D3A20706E616D65A0
:102E2000203D3D204E554C4C000000005452414383
:102E3000455F4153534552543A2070727654726143
:102E40006365476574436865636B73756D3A20709D
:102E5000637263203D3D204E554C4C00545241431B
:102E6000455F4153534552543A2070727654726113
:102E70006365476574436865636B73756D3A20706D
:102E80006C656E677468203D3D204E554C4C0000CB
:102E900002F04CBBF8B5002605464FF6FF770096CA
:102EA000FF2806D0BD4204D02CA0FFF729FF002048
:102EB000F8BD3A4C206B416A61B9216A11B18908A9
:102EC000416207E036494968626C914202D0354957
:102ED0000968F4E7684600F08DFB2046009AA16B74
:102EE0008263006B541A416AC1B1A1420BD2B4FB98
:102EF000F1F2C36A1A44C262B4FBF1F201FB12425E
:102F0000836A1A4401E0826A224482628A4206D3BA
:102F1000C36A511A5B1CC0E90A1300E08262AC422A
:102F200011D900F0EBFA70B1BD4205D1A9210170B1
:102F3000210C4180467004E0FF2D07D01AA0FFF756
:102F4000DFFE00F053FF04EA0500F8BDA821017080
:102F5000210A4180210E4170F3E7000054524143A1
:102F6000455F4153534552543A2070727654726112
:102F700063654765744454533A20496E76616C69C1
:102F8000642076616C756520666F72207061726175
:102F90006D5F6D6178445453000000001400002000
:102FA000001000E0900000204261642070617261B6
:102FB0006D5F6D617844545320696E207072765451
:102FC0007261636547657444545300002DE9F04114
:102FD000214C216B39B1092807D32048FFF790FE17
:102FE0000020BDE8F0811E48F8E7EFF310850121CD
:102FF00081F31088E169491CE1611A490A4631F8F8
:1030000010306363CE1802EB400296F8487027B97F
:10301000977CDB1B5B1C86F8483096F8483031F80B
:103020001060978CBE4205D900F02EFFFFF768FEB6
:1030300000230AE0761CB6B221F81060508AD18EC7
:10304000301A814201DAC0B2D086E069401EE061E8
:1030500085F310881846C4E7140000208C6300082C
:10306000985D0008B805002070B50A460446092896
:1030700001D30D4807E00D4D286B204490F8640003
:10308000904204D20AA0FFF73BFE002070BD21460B
:10309000104600F0D1FF296B0A199C3092F870207D
:1030A0001144085C70BD0000CC5E000814000020D4
:1030B00054524143455F4153534552543A20707234
:1030C0007654726163654765744F626A65637453D1
:1030D000746174653A20496E76616C69642076612A
:1030E0006C756520666F72206964000070B50546D6
:1030F0000C46FF2808D0A5F57F40FF3804D00CA06F
:10310000FFF7FEFD204670BDAC4201D8084670BDF9
:1031100000F0F4F948B10121017024EA05010A0A1E
:103120004270090C418000F061FE04EA050070BDA8
:1031300054524143455F4153534552543A207072B3
:10314000765472616365476574506172616D3A20AF
:10315000496E76616C69642076616C756520666F76
:103160007220706172616D5F6D61780070B50A46A2
:103170000446092801D30D4807E00D4D286B204473
:1031800090F86400904204D20AA0FFF7B9FD002035
:1031900070BD2146104600F04FFF296B0A199D3083
:1031A00092F870201144085C70BD000000600008B7
:1031B0001400002054524143455F4153534552543B
:1031C0003A20707276547261636547657450726913
:1031D0006F7269747950726F70657274793A2049B0
:1031E0006E76616C69642076616C756520666F72BD
:1031F0002069640000F0D9BF10B500F0D6FF000CC4
:1032000010BD10B500F0D1FF80B210BD00F010BFAE
:1032100010B500F0D5FF000C10BD10B500F0D0FFC8
:1032200080B210BD0E490D4808600E48016841F09B
:1032300080710160006838B10B480168890105D5CB
:103240000AA000BFFFF75CBD13A0FBE700214160AF
:10325000016841F0010101607047000055CEACC526
:10326000B01F00E0FCED00E0001000E04457545FA8
:10327000435943434E54206E6F7420617661696CEC
:1032800061626C652C2073656520636F64652063E3
:103290006F6D6D656E742E0044575420756E6974A1
:1032A000206E6F7420617661696C61626C652C20A0
:1032B00073656520636F646520636F6D6D656E7403
:1032C0002E0000002DE9F05F484C206B00287DD0D7
:1032D000007801287BD04648406841F618156064A4
:1032E0002946206BFDF726F8206B41F6A1214FF40B
:1032F0007A728181052181730021C1730561826128
:103300004FF0F032C0E91521416301F09DFB206BC5
:103310004FF0F13100F5AC62C0F85C154FF4487124
:10332000012522C24FF0F231C0F81019502231A10C
:1033300000F61410FFF7D2FB206B4FF0F33172262A
:10334000C0F86419A0F2F46000F500500A21017081
:103350000B2141700C2181700D21C170712101710F
:103360004671732787717421C1714FF0F10880F89D
:1033700008804FF0F20B80F809B04FF0F30A80F8A4
:103380000AA04FF0F40980F80B9001F02BFB206BA2
:1033900080F80B9080F80AA080F809B080F80880C7
:1033A0007421C17187714671712101710421C1704D
:1033B00003218170022141700570616A61B1502260
:1033C00000F61410FFF78AFB206B01E008E00AE02A
:1033D000C0F80C5901F080FBBDE8F05FFFF722BF99
:1033E0000948206377E7BDE8F09F00001400002043
:1033F000001000E05472616365205265636F72646F
:1034000065722044656D6F00480600202DE9F0418B
:103410001C4D5FEA00081E46286B174600EB410072
:10342000B0F8884801D017B128E017A000E025A027
:10343000FFF766FC0020BDE8F081296BF3B20819A4
:1034400090F86A259A4210D190F86B25B2EB162FAE
:103450000BD1E219114491F86C1531B93A46414645
:1034600000F26C50FCF771FF50B1286B204490F8CB
:10347000681590F8690501EB002084B2002CDCD1BE
:103480002046D8E71400002054524143455F415381
:10349000534552543A2070727654726163654C6F92
:1034A0006F6B757053796D626F6C5461626C6545BA
:1034B0006E7472793A206E616D65203D3D204E55E7
:1034C0004C4C000054524143455F415353455254C4
:1034D0003A2070727654726163654C6F6F6B7570D1
:1034E00053796D626F6C5461626C65456E7472796C
:1034F0003A206C656E203D3D20300000094810B533
:10350000006B016B31B1C169B1F57A7F04D306A0BC
:10351000FFF7F6FB002010BD00EB810000F66810FD
:1035200010BD000014000020417474656D7074209B
:10353000746F20696E646578206F75747369646553
:10354000206576656E74206275666665722100007E
:103550002DE9FC4106004FF000000F468DF80000F9
:103560008DF8040017D06A4601A93046FFF728FC01
:10357000EFF31084012080F31088114DE869401C9E
:10358000E8613B469DF800209DF804103046FFF7A7
:103590003DFF30B10DE00BA0FFF7B2FB0020BDE80E
:1035A000FC813B469DF800209DF804103046FFF753
:1035B00007FBE969491EE96184F31088EFE7000021
:1035C0001400002054524143455F41535345525427
:1035D0003A2070727654726163654F70656E5379EC
:1035E0006D626F6C3A206E616D65203D3D204E55D9
:1035F0004C4C000030B50D490B464A699B69012AC5
:103600000FD00B4A5268CC6B0D6C141B2C44A508D0
:1036100004F003042B440C648B6100B10360CA63A3
:1036200030BD0028FCD0036030BD00001400002035
:10363000001000E070B516000B46054603D0092DBA
:1036400003D314A00CE01FA00AE06BB12A4C206B3E
:10365000284490F86400984208D2284600F014FCF0
:10366000BDE87040FFF74CBB24A0F9E72946184697
:1036700000F0E2FC2081616A00290AD1216B4A191D
:10368000084492F870203146BDE870409C30FFF746
:1036900025BA70BD496C6C6567616C206F626A65A4
:1036A000637420636C61737320696E20707276544A
:1036B000726163655365744F626A6563744E616DD0
:1036C0006500000054524143455F415353455254F5
:1036D0003A2070727654726163655365744F626A02
:1036E0006563744E616D653A206E616D65203D3D88
:1036F000204E554C4C00000014000020496C6C65B5
:1037000067616C2068616E646C65202830292069CF
:103710006E2070727654726163655365744F626A8D
:103720006563744E616D652E0000000070B516462D
:103730000B460446092801D30C4807E00C4D286BC2
:10374000204490F86400984204D20AA0BDE870407A
:10375000FFF7D6BA2146184600F06EFC296B0A190D
:103760009C3092F8702011440E5470BD105F000818
:103770001400002054524143455F41535345525475
:103780003A2070727654726163655365744F626A51
:1037900065637453746174653A20496E76616C692F
:1037A000642076616C756520666F72206964000024
:1037B00070B516460B460446092801D30C4807E0AD
:1037C0000C4D286B204490F86400984204D20AA063
:1037D000BDE87040FFF794BA2146184600F02CFC73
:1037E000296B0A199D3092F8702011440E5470BD57
:1037F0004C6000081400002054524143455F41537F
:10380000534552543A207072765472616365536521
:10381000745072696F7269747950726F70657274E6
:10382000793A20496E76616C69642076616C7565C1
:1038300020666F722069640070B504460D46FFF77C
:10384000D9FC65F31F4001462046BDE8704000F0FA
:10385000DBBD70B50C460546FFF7CCFC010C090436
:1038600021432846BDE8704000F0CEBD10B50B4C9A
:10387000216B91F86710814204D2BDE810400848DE
:10388000FFF73EBA032100F0D7FB216B91F87320BC
:10389000114400229C300A5410BD00001400002086
:1038A000F060000870B504460D4600F089FC65F331
:1038B0001F4001462046BDE8704000F093BF70B540
:1038C0000C46054600F07CFC010C09042143284607
:1038D000BDE8704000F086BF2DE9F041174606466E
:1038E000FF2801D31CA00FE0092901D328480BE0D1
:1038F000284C206B014491F86410B94201D226484B
:1039000002E0E16921B125A0BDE8F041FFF7F8B977
:10391000617800291DD0EFF31085012181F3108813
:10392000E169491CE161006B70B14FF6FF70FFF770
:10393000B1FA8046FFB2FFF7E1FD28B1A0F802809E
:103940000670477000F052FAE069401EE06185F3AE
:103950001088BDE8F081000054524143455F415357
:10396000534552543A2070727654726163655374B1
:103970006F72654B65726E656C43616C6C3A206565
:10398000636F6465203E3D203078464600000000AD
:10399000345E000814000020AC6200085265636FBA
:1039A000726465722062757379202D20686967687A
:1039B000207072696F72697479204953522075734F
:1039C000696E672073797363616C6C3F20283229BC
:1039D000000000002DE9F0410F460646FF2801D304
:1039E000184803E0184CE06920B118A0BDE8F04188
:1039F000FFF786B9EFF31085012080F31088E069A6
:103A0000401CE061206B006BA8B1607898B1FF208A
:103A1000FFF740FA00F0FF0839464FF6FF70FFF756
:103A200065FB87B2FFF76AFD28B180F80180067058
:103A3000478000F0DBF9E069401EE06185F3108803
:103A4000BDE8F08198600008140000205265636FA3
:103A5000726465722062757379202D2068696768C9
:103A6000207072696F72697479204953522075739E
:103A7000696E672073797363616C6C3F2028342909
:103A8000000000002DE9F047994617460646FF283A
:103A900001D320A00FE0092901D32E480BE02E4CC2
:103AA000206B014491F86410B94201D22B4802E026
:103AB000E16921B12AA0BDE8F047FFF721B9EFF392
:103AC0001085012181F31088E169491CE161006BD7
:103AD000C0B16078B0B1FF20FFF7DCF900F0FF085B
:103AE0004946FF20FFF702FB00F0FF09FFB2FFF796
:103AF00005FD38B180F803800670477080F80290A9
:103B000000F074F9E069401EE06185F31088BDE8BB
:103B1000F087000054524143455F4153534552548E
:103B20003A20707276547261636553746F72654B9C
:103B300065726E656C43616C6C5769746850617234
:103B4000616D3A20657674636F6465203E3D203078
:103B5000784646007C5E000814000020F4620008ED
:103B60005265636F726465722062757379202D20CF
:103B700068696768207072696F7269747920495347
:103B800052207573696E672073797363616C6C3F43
:103B9000202833290000000070B50B460546092A8D
:103BA00001D3144807E0144E306B811891F864106B
:103BB000994204D21148BDE87040FFF7A1B8006BEC
:103BC000002816D01C461146204600F035FA316B0D
:103BD000084400219C30FFF7BBFC0646FFF78EFC33
:103BE000002806D0057044704680BDE8704000F0A3
:103BF000FDB870BD545F0008140000207C6100080F
:103C00002DE9F04115460F468046092A01D319488F
:103C100007E0194E306B411991F86410B94204D293
:103C20001648BDE8F041FFF76BB8006B00281FD0C5
:103C3000FFF764FC04001BD0032D294638460FD043
:103C400000F0FAF9316B4A199C3092F87020114457
:103C5000085C607084F80080BDE8F04100F0C6B8F0
:103C600000F0EAF9316B9D3091F873201144EFE7D1
:103C7000BDE8F081A85F000814000020C8610008BA
:103C80002DE9F04105002CD0174C2069002828D0E0
:103C90000F2D01D915A002E0E06920B123A0BDE8F5
:103CA000F041FFF72DB8EFF31086012080F3108864
:103CB000E069401CE061206B006B68B14FF6FF705B
:103CC000FFF7E8F80746FFF719FC28B10221017059
:103CD0004780457000F08AF8E069401EE06186F395
:103CE0001088BDE8F08100001400002054524143C8
:103CF000455F4153534552543A2070727654726175
:103D0000636553746F72655461736B526561647956
:103D10003A20496E76616C69642076616C75652025
:103D2000666F722068616E646C6500005265636F37
:103D3000726465722062757379202D2068696768E6
:103D4000207072696F7269747920495352207573BB
:103D5000696E672073797363616C6C3F2028312929
:103D6000000000002DE9F04105460F2804D9BDE808
:103D7000F0411C48FEF7C4BFEFF31087012080F329
:103D80001088194CE069401CE0616078854220D0C1
:103D9000206B006BE8B10020E0604FF6FF70FFF78A
:103DA00079F880466570FFF7A9FB060011D06178AD
:103DB0000320FFF759F9012812D006203070A6F829
:103DC00002807570012261780320FFF7AFFC00F0DC
:103DD0000DF8E069401EE06187F31088BDE8F081CE
:103DE0000720EBE71C620008140000200A48006B63
:103DF000016B00290FD04169491C4161C169491C0F
:103E0000C161B1F57A7F03D3012101620021C16153
:103E10000120FEF701BB7047140000202DE9F0419E
:103E2000044600F027FA94F9455004F1240609E00D
:103E3000606A48B1304601F08BFC08B100F0EAFB43
:103E40006D1E6DB2002DF3DC4FF0FF3684F8456037
:103E500000F030FA00F00EFA94F9445004F1100723
:103E600009E0206948B1384601F072FC08B100F061
:103E7000D1FB6D1E6DB2002DF3DC84F84460BDE80B
:103E8000F04100F017BA0000092818D2DFE800F06E
:103E90000D090B05070F111315000A4870470A4852
:103EA00070470A4870470A4870470A4870470A48EE
:103EB00070470A4870470A4870470A4870470AA086
:103EC00070470000245B0008C05C0008845A0008AA
:103ED000085D0008D85A0008745C00086C5B000894
:103EE0001C5C0008C05B000870737A5472616365E3
:103EF0004765744572726F7248616E646C65733A9F
:103F000020496E76616C6964206F626A65637463D0
:103F10006C617373210000002DE9F0410546002714
:103F200000F0A8FC364E306808B9FEF745FBF06893
:103F3000054250D1C5B3083568070ED005F007001B
:103F4000C0F108000544680707D0502080F31188AD
:103F5000BFF34F8FBFF36F8FFEE72DB370688542BD
:103F600039D82748103001460C6801E020460C463D
:103F70006168A94202D221680029F7D131688C42D8
:103F800029D007682168016060680837411B102943
:103F90000FD96019420708D0502080F31188BFF371
:103FA0004F8FBFF36F8FFEE715E041606560FEF74E
:103FB00009FC61687068401A7060B268904200D273
:103FC000B060F06801430020C4E900011FB12A4637
:103FD0003946942002E02A463946E82000F088FD60
:103FE00001F0FCFB780707D0502080F31188BFF365
:103FF0004F8FBFF36F8FFEE73846BDE8F0810000BA
:10400000E800002010B5031F4FF080741C601B1FD8
:1040100021F001011960191F044B0B6014390A606B
:10402000091F6FF0020244380A6010BD752B0008AA
:1040300090F84C007047000010B5092901D30DA07D
:1040400008E030B11B4A136B5A1892F8644084425E
:1040500004D219A0FEF754FE002010BD03EB41016D
:1040600092F87C20B1F88810401E12FB001080B23C
:1040700010BD000054524143455F415353455254D3
:104080003A207569496E6465784F664F626A656368
:10409000743A20496E76616C69642076616C75654E
:1040A00020666F72206F626A656374636C617373FC
:1040B000000000001400002054524143455F41536A
:1040C000534552543A207569496E6465784F664F7E
:1040D000626A6563743A20496E76616C6964207621
:1040E000616C756520666F72206F626A65637468C3
:1040F000616E646C6500000070B51D4C206B28B1CA
:10410000016B012907D0616A39B12DE01948FEF72A
:10411000F7FD002070BD012070BDEFF31085012177
:1041200081F31088E169491CE16101210163FEF717
:10413000AFFEFFF772F810F0FF060DD10320FEF777
:1041400045FF064601460CA20320FFF773FA002242
:1041500031460320FFF72CFB3046FFF703FEE069F2
:10416000401EE06185F31088206B006B70BD00007D
:1041700014000020545D0008287374617274757017
:1041800029000000D0E9013201699A60D0E90123D9
:104190005A604A68824201D182684A600022026104
:1041A0000868401E086008687047806C704700000F
:1041B00008B902480068006BFEF7D2BC94000020EA
:1041C000002800D0806C704710B5044600F052F80B
:1041D0000CB903480468E46A00F06CF8204610BD8E
:1041E00094000020034B036003F15C000860802012
:1041F0001060704780270020044B036003F15C00CF
:1042000008604FF48070106070470000DC290020C7
:1042100000F108014FF0FF32C0E90112C1600161F5
:1042200000210160704700210161704730B50B68C3
:104230005A1C02D000F1080202E0026904E02246A2
:10424000546825689D42FAD953684B6099608A602A
:10425000516008610168491C016030BD42684A60D4
:1042600093688B6093685960916008610168491C8C
:1042700001607047502080F31188BFF34F8FBFF368
:104280006F8F0A494868401C486001280CD10848D3
:10429000006810F0FF0F07D0502080F31188BFF3A3
:1042A0004F8FBFF36F8FFEE77047000000010020C3
:1042B00004ED00E00849486828B1401E486001D17B
:1042C00080F311887047502080F31188BFF34F8F1F
:1042D000BFF36F8FFEE700000001002070B5051EE0
:1042E0002CD0174EA5F108046168F068014207D18F
:1042F000502080F31188BFF34F8FBFF36F8FFEE71D
:1043000022683AB1502080F31188BFF34F8FBFF37A
:104310006F8FFEE78143616000F0ACFA60687168FE
:104320004242014471602946962000F0E1FB20469C
:10433000FEF748FABDE8704001F050BA70BD0000C9
:10434000E80000204FF0E020002101618161054973
:104350004FF47A720968B1FBF2F1491E41610721FD
:10436000016170479000002010B5FBF773FF114901
:1043700010280ED300F1E02090F8F0030A78904264
:1043800007D2502080F31188BFF34F8FBFF36F8F98
:10439000FEE709480068896800F4E060884207D9B0
:1043A000502080F31188BFF34F8FBFF36F8FFEE76C
:1043B00010BD0000000100200CED00E070B5104CB5
:1043C0000D460646002300BF54F8330018B15B1CAD
:1043D000082BF9D370BD04EBC30044F8335046609A
:1043E0003046FEF70EFFC4B23046FEF70FFF054918
:1043F0002A46085C2146BDE87040FFF71BB9000063
:10440000642100200C0000208164704770B51546BF
:104410000E460446FFF72EFF94F944100020491C75
:1044200001D184F8440094F94510491C01D184F865
:104430004500FFF73FFFA06B28B92A46314604F13B
:10444000240000F005F92046BDE87040FFF7E6BC07
:1044500070B5050033D01E4CA06B38B1502080F3EE
:104460001188BFF34F8FBFF36F8FFEE700F002FAA2
:104470002068FEF7CDFE174E3188084209D0294644
:104480008920FFF7A7FA2068FEF7C7FEC0B2FFF742
:10449000EDF9FEF7FDFCFEF7BBFE3188084206D0C1
:1044A000FEF7F6FCFEF7B9FEC0B2FFF7DFF9002118
:1044B0002846FDF7B9FE01F091F9002807D1064919
:1044C0004FF080500860BFF34F8FBFF36F8F70BD08
:1044D000940000201800002004ED00E02DE9F041D8
:1044E0000546FFF7C7FE434C05B92568281DFFF7B1
:1044F00049FEA86A18B105F11800FFF743FEE06A0B
:10450000401CE0622068854207D1291D3A48FFF728
:10451000A5FEE068401CE06007E02069401E2061C5
:104520002846FEF72EF8FEF7B5FAEFF310860120C5
:1045300080F31088FEF7ACFCFEF76AFE2F4F398837
:1045400008420DD02846FEF763FE3988084207D09E
:104550002846FEF762FEC2B203218320FFF7BCF9B2
:104560002846FEF75AFEC1B203220B20FFF714FBC8
:104570002846FEF752FEC1B203221320FFF740FB8C
:104580002846FEF74AFEC1B295F82C200320FFF71B
:104590000FF92846FEF741FEC1B200220320FFF7C3
:1045A000C5F82846FEF739FEC1B20320FEF7C4FB6A
:1045B0002846FEF727FA86F31088FFF77BFEE069AE
:1045C000002814D02068854211D1A06B38B150204A
:1045D00080F31188BFF34F8FBFF36F8FFEE7084959
:1045E0004FF080500860BFF34F8FBFF36F8FBDE86F
:1045F000F0810000940000204026002018000020D8
:1046000004ED00E002498A6A02604969416070472E
:104610009400002001490120486270479400002066
:1046200010B50C4650B1094909681831FFF7FEFD75
:104630002046BDE810400121FDF7F6BD502080F373
:104640001188BFF34F8FBFF36F8FFEE794000020F8
:104650002DE9F04116460D4668B31B4C2168183110
:10466000FFF7FCFD0EB14FF0FF352068FEF7D0FDDF
:10467000164F398808420AD0606941198820FFF72F
:10468000A9F92068FEF7C9FDC0B2FFF7EFF8FEF701
:10469000FFFBFEF7BDFD3988084206D0FEF7F8FBA8
:1046A000FEF7BBFDC0B2FFF7E1F831462846BDE892
:1046B000F041FDF7B9BD502080F31188BFF34F8F53
:1046C000BFF36F8FFEE70000940000201800002069
:1046D0002DE9F04700270D460446382907D350201E
:1046E00080F31188BFF34F8FBFF36F8FFEE7FFF7A3
:1046F000C1FD384E04B934682046FEF789FDDFF865
:10470000D890B9F80010084218D02046FEF785FD71
:10471000C1B20320FEF72AFD80462046FEF77DFD4C
:10472000C2B2434603218D20FFF7ACF92046FEF7C5
:1047300074FDC1B2EAB20320FFF73AF8E16CA94276
:1047400044D030688D4206D9844207D03068C06AB0
:10475000A84202D902E0844200D10127E06A8142E6
:1047600000D1E562E564A169002902DBC5F13801E9
:10477000A1611A4D00EB8000616905EB8000814268
:104780001BD1201DFFF7FEFC2046FEF741FDB9F8C6
:104790000010084205D02046FEF73FFDC0B2FFF7EB
:1047A0006FFAE06AB169884200D9B06100EB80001D
:1047B00005EB8000211DFFF751FD3FB108494FF087
:1047C00080500860BFF34F8FBFF36F8FBDE8F04795
:1047D000FFF770BD9400002018000020A4210020E5
:1047E00004ED00E0002800D08164704730B587B048
:1047F0000024039405AA04A903A80494FFF7F2FC7B
:10480000DDE903010094CDE90110002315A117484B
:10481000059A00F060FE164D002868631FD001F075
:104820004FF8012809D0401C19D1502080F311887D
:10483000BFF34F8FBFF36F8FFEE7502080F31188D7
:10484000BFF34F8FBFF36F8F4FF0FF30286301200E
:10485000E8616C6107B0BDE8304000F09FB907B077
:1048600030BD000049444C4500000000052600080A
:10487000940000200248816B491C8163704700004E
:104880009400002070B51F48816B012409B1446277
:1048900070BD0021416281691B4A01E051B3491E8C
:1048A00001EB810352F82330002BF7D001EB810399
:1048B00002EB830202F1080553685B685360AB4268
:1048C00001D15B685360DA68026081610F4D2C6032
:1048D000FEF7DEFAFEF79CFC0D490988084206D077
:1048E000FEF7D6FAFEF799FCC0B2FFF73BFA0220BA
:1048F000286070BD502080F31188BFF34F8FBFF345
:104900006F8FFEE794000020A421002068000020A3
:10491000180000203EB50446FEF7D4FC012C17D049
:10492000022C18D014B10DA0FEF7EAF9184C20683B
:1049300000280CD1174A0120A2F580618DE80700FC
:104940000202002314A1164800F0C5FD20603EBD00
:1049500000F0C0F8EAE713A0E6E70000556E6578BE
:1049600070656374656420617267756D656E74202F
:10497000746F20765472616365456E61626C652068
:1049800028736E617073686F74206D6F64652900A1
:10499000000000205C050020547A4374726C000013
:1049A000251B0008765472616365456E61626C6513
:1049B000285452435F53544152545F415741495424
:1049C0005F484F535429206E6F7420616C6C6F7771
:1049D000656420696E20536E617073686F74206D1A
:1049E0006F64650017480021418201800A2181829D
:1049F00041801421C18281801E210183C1802D212B
:104A0000418301813221818341813721C1838181A9
:104A10003C210184C1814121418401820921818499
:104A20001321C1841D2101852C21418531218185DE
:104A30003621C1853B210186402141864521818661
:104A400070470000B80500202148092105220068B0
:104A50001123C1650A2100F8641F417081700F2184
:104A6000C170027142718271C2710272017341732D
:104A70008173C173017441748174C1740175102113
:104A80000176417681761322C27603774177827769
:104A9000C27780F8202000218184A021C1844900B0
:104AA00001854FF4F071418540F2FD21818540F28E
:104AB0005231C18540F2A231018640F20141418666
:104AC0004FF48C61818640F2BF4140F8041C70476E
:104AD00044000020FFF710BB0448016B09B100221D
:104AE0000A63806A002800D0004770471400002045
:104AF0002DE9F05F284B06468A46186B002848D0FF
:104B0000002A01DA544200E01446EFF31085012137
:104B100081F31088D969491CD961BAF1000F02D01C
:104B2000D96A1144D962006B994658B3FF20FEF749
:104B3000B1F900F0FF084FF6FF7B21465846FEF71B
:104B4000D5FA87B2FEF7DAFC04001BD084F80180A6
:104B5000002020706780FFF749F951465846FEF75C
:104B6000C5FA1FFA80F80027FEF7C8FC50B1A0F87C
:104B700002804770711C01702670FFF737F9D9E980
:104B80000B100165D9F81C10491EC9F81C1085F3DB
:104B90001088BDE8F09F0000140000201CB53748C5
:104BA0000168374A914207D1502080F31188BFF342
:104BB0004F8FBFF36F8FFEE700683149491E88426F
:104BC00007D1502080F31188BFF34F8FBFF36F8F51
:104BD000FEE72C4908780190FF20087008788DF8CE
:104BE00000009DF800009DF8002000F0F0009042C9
:104BF00007D0502080F31188BFF34F8FBFF36F8F22
:104C0000FEE79DF80000204B00F0500018700720D0
:104C1000986005E09DF8002052008DF80020401EAD
:104C20009DF800201206F5D49860032807D0502084
:104C300080F31188BFF34F8FBFF36F8FFEE74FF400
:104C400040709860019808700C482030016841F469
:104C500070010160016841F070410160FFF772FB73
:104C600000205860FBF7BEFA0848016841F0404157
:104C70000160FBF7A3FA00201CBD000000ED00E07E
:104C800071C20F4100E400E00001002034EF00E0B9
:104C900010B5502080F31188BFF34F8FBFF36F8F93
:104CA00000F05EFC18B104494FF08050086000200D
:104CB00080F3118810BD000004ED00E038B5049DBC
:104CC00018B153B1CAB181B120E0502080F31188EE
:104CD000BFF34F8FBFF36F8FFEE7502080F3118833
:104CE000BFF34F8FBFF36F8FFEE7502080F3118823
:104CF000BFF34F8FBFF36F8FFEE739B1502080F3C2
:104D00001188BFF34F8FBFF36F8FFEE750241C460F
:104D1000012384F846302B460094FDF7A3FC20467F
:104D200038BD000070B50D46040025D0FFF7A2FA8B
:104D3000D4E90F20216802FB001161600021A1630A
:104D40002168A1600A46D4E90F01401E00FB012141
:104D5000E16021464FF0FF3001F8440F487004F144
:104D600010008DB1FFF754FA04F12400FFF750FA58
:104D7000FFF7A0FA012070BD502080F31188BFF327
:104D80004F8FBFF36F8FFEE721690029F0D000F04D
:104D9000DFFC0028ECD004494FF080500860BFF3DE
:104DA0004F8FBFF36F8FE3E704ED00E02DE9FF4F76
:104DB00085B01F464FF00008040002D0069840B1AD
:104DC00011E0502080F31188BFF34F8FBFF36F8F36
:104DD000FEE7206C38B1502080F31188BFF34F8F6D
:104DE000BFF36F8FFEE7022F0AD1E06B012807D0D7
:104DF000502080F31188BFF34F8FBFF36F8FFEE712
:104E000000F09AFBDFF81CA2874E884D4FF0000B94
:104E10004FF0805948B9079838B1502080F3118875
:104E2000BFF34F8FBFF36F8FFEE7FFF723FAA06B3F
:104E3000E16B884207D3022F05D00798F0B3B8F191
:104E4000000F72D076E0FEF723F8FEF7E1F9318823
:104E5000084214D02046FEF7CFF9318808420ED020
:104E60002046FEF7CEF900F0FF082046FEF7CEF907
:104E70002E5CAFB3252042463146FEF72DFD20467D
:104E8000FEF7C4F9285CA846022831D0A06B401C6C
:104E9000C5B22046FEF7B5F9C6B22046FEF7B6F910
:104EA00018F800002A463146FEF740FC3A462046F4
:104EB0000699FDF730FB616A29B100E01AE004F1C0
:104EC000240000F045FC28B1CAF80090BFF34F8FD2
:104ED000BFF36F8FFFF7EEF9012009B0BDE8F08F47
:104EE000FFE72046FEF792F9285C2030C0B2C2E707
:104EF0000025CEE7FFF7DEF93AE02046FEF77CF921
:104F0000318808423BD02046FEF77BF900F0FF08CD
:104F10002046FEF77BF92E5C002F7BD04D204246C9
:104F20003146FEF7D9FC2AE0FFE702A8FFF76AFB4B
:104F30004FF00108FFF7BEF9FFF79CFCFFF79AF965
:104F400094F94400401C01D184F844B094F9450020
:104F5000401C01D184F845B0FFF7ACF907A902A8BD
:104F600000F052FA68B12046FEF758FF00F036FC18
:104F7000FDF78EFFFEF74CF931880842BDD10020C5
:104F8000ABE7FFF777F9A06BE16B884232D1FFF70F
:104F900091F9FDF77DFFFEF73BF93188084215D006
:104FA0002046FEF729F9318808420FD02046FEF747
:104FB00028F9C0B201902046FEF728F9285C00903D
:104FC0000FB37520DDE90012FEF786FC04F1100036
:104FD0000799FFF725FB2046FEF720FF00F0FEFBB8
:104FE00000287FF422AFCAF80090BFF34F8FBFF3C1
:104FF0006F8F1AE7FFF75EF92046FEF70FFF00F00C
:10500000EDFB12E706E02046FEF700F9285C703061
:10501000C0B2D7E72046FEF7F9F8285C4830C0B2A6
:105020007DE7000004ED00E0180000200C000020E7
:105030002DE9FF5F1E469146040002D0019840B161
:1050400011E0502080F31188BFF34F8FBFF36F8FB3
:10505000FEE7206C38B1502080F31188BFF34F8FEA
:10506000BFF36F8FFEE7022E0AD1E06B012807D055
:10507000502080F31188BFF34F8FBFF36F8FFEE78F
:10508000FFF772F95021EFF3118081F31188BFF31C
:105090004F8FBFF36F8F8046A06BE16BDFF8ECA002
:1050A0003B4D88421DD3022E1BD02046FEF7A4F8AC
:1050B000BAF8001008420ED02046FEF7A2F800F021
:1050C000FF092046FEF7A2F82F5CEEB35D204A46AA
:1050D0003946FEF701FC002088F3118804B0BDE8D2
:1050E000F09F94F945702046FEF786F8BAF8001054
:1050F00008420FD02046FEF784F800F0FF0B204650
:10510000FEF784F815F800A00EB335205A46514634
:10511000FEF7E2FB2046FEF774F800F0FF0A204697
:10512000FEF774F8285CA16B491CCAB25146FEF721
:10513000FDFA324620460199FDF7EDF9781C0DD0B5
:105140007F1C84F8457000E018E00120C4E7204689
:10515000FEF75CF8285C3030C0B2D7E7606A002800
:10516000F1D004F1240000F0F3FA0028EBD0B9F1FB
:10517000000FE8D00121C9F80010E4E72046FEF74F
:1051800045F8285C5830C0B2A1E7000018000020A4
:105190000C0000202DE9F74F84B04FF00008040008
:1051A00002D0059840B111E0502080F31188BFF380
:1051B0004F8FBFF36F8FFEE7206C38B1502080F324
:1051C0001188BFF34F8FBFF36F8FFEE700F0B4F984
:1051D0008A4DDFF82CA28B4E4FF0000B4FF0805918
:1051E00048B9069838B1502080F31188BFF34F8F2B
:1051F000BFF36F8FFEE7FFF73DF8A76B002F54D08A
:1052000020460599FDF774F9FDF742FEFEF700F818
:105210003188084218D02046FDF7EEFF3188084259
:1052200012D02046FDF7EDFF00F0FF082046FDF705
:10523000EDFF2E5C2046FDF7E9FF285C4246283052
:10524000C0B23146FEF748FB2046FDF7DFFF285C81
:10525000A846022824D0A06B401EC5B22046FDF708
:10526000D0FFC6B22046FDF7D1FF18F800002A464D
:105270003146FEF75BFA7F1EA763206950B104F147
:10528000100000F065FA28B1CAF80090BFF34F8F04
:10529000BFF36F8FFFF70EF8012007B0BDE8F08F66
:1052A000FDF7F6FDFDF7B9FFD7E7069818B1B8F19D
:1052B000000F1CD020E0FEF7FDFF42E02046FDF786
:1052C0009BFF3188084243D02046FDF79AFFC6B2C3
:1052D0002046FDF79BFF2F5C2046FDF797FF285CDB
:1052E00032465030C0B23946FEF7F6FA30E0684632
:1052F000FFF788F94FF00108FEF7DCFFFFF7BAFA75
:10530000FEF7B8FF94F94400401C01D184F844B082
:1053100094F94500401C01D184F845B0FEF7CAFF5E
:1053200006A9684600F070F80028204612D0FEF763
:1053300075FD00F053FA2046FDF786FA00283FF489
:105340005AAFFDF7A5FDFDF763FF31880842B5D1DF
:105350000020A2E7FDF778FAF0B3FDF799FDFDF71D
:1053600057FF3188084218D02046FDF745FF3188A5
:10537000084212D02046FDF744FFC0B202902046FA
:10538000FDF744FF2F5C2046FDF740FF285C3946BF
:105390006830C0B2029AFEF79FFA2046FDF736FF4A
:1053A000285C02280DD0FDF773FDFDF731FF318831
:1053B000084206D0FDF76CFDFDF72FFFC0B2FEF7E7
:1053C00055FA04F124000699FFF72AF92046FEF762
:1053D00025FD00F003FA00E009E000287FF40BAFA0
:1053E000CAF80090BFF34F8FBFF36F8F03E72046DB
:1053F000FEF714FD00F0F2F9FDE600000C000020BD
:1054000004ED00E0180000202DE9F0410C460500F5
:1054100011D0C4B1FEF72EFF174B5A696E68206891
:10542000911B471C17D02F689B6A9F4219D0964248
:1054300017D8012410E0502080F31188BFF34F8F5C
:10544000BFF36F8FFEE7502080F31188BFF34F8FBB
:10545000BFF36F8FFEE70024FEF72CFF2046BDE868
:10546000F081884205D9401A20602846FFF7CAF823
:10547000F1E700202060DCE7940000202DE9FF5FC9
:105480008346DDE90E87994616468A469000FEF768
:1054900043FD05001CD05C20FEF73EFD040014D047
:1054A0000020256384F85900CDE90240CDE900874A
:1054B0004B46324651465846FDF736F92046FCF732
:1054C000E1FE012004B0BDE8F09F2846FEF706FF8C
:1054D0004FF0FF30F6E7F0B585B0DDE90B640A9DCB
:1054E000A6B1DCB15C2700972663022684F85960D8
:1054F000002604AFCDE90246CDE90057FDF714F9C7
:105500002046FCF7BFFE049805B0F0BD502080F3A4
:105510001188BFF34F8FBFF36F8FFEE7502080F3EA
:105520001188BFF34F8FBFF36F8FFEE7014800680C
:1055300070470000940000200548C16919B1806BD4
:1055400018B100207047012070470220704700000A
:10555000940000200148406970470000940000203A
:105560002DE9F0413E4C0027A06B012801D0206AB4
:1055700030B93C480168491C01600020FEF73AF848
:10558000A06B20B961690320491CFEF723FAA06BC8
:1055900040B1206A401C2062606A00B10127384691
:1055A000BDE8F0816669761C666113D160680068A9
:1055B00038B1502080F31188BFF34F8FBFF36F8F46
:1055C000FEE76068A1686160A060A06A401CA062FC
:1055D000FDF760FA206BDFF89080864209D360689F
:1055E000006880B16068C068C568686886420DD28E
:1055F00020632068C06A00EB800158F82100012870
:10560000CAD90127C8E74FF0FF30F1E7281DFEF7A0
:10561000B9FDA86A18B105F11800FEF7B3FD2846D8
:10562000FDF7F6FD11490988084205D02846FDF727
:10563000F4FDC0B2FEF724FBE86AA169884200D9F4
:10564000A06100EB800108EB8100291DFEF706FE3A
:10565000E86A2168C96A8842C1D30127BFE7000010
:105660009400002064000020A421002018000020E5
:105670002DE9F04104004FF0000160D0314D286861
:10568000844207D0502080F31188BFF34F8FBFF3BF
:105690006F8FFEE7206D38B1401E2065E36CE26A33
:1056A0009A424CD040B14AE0502080F31188BFF3B9
:1056B0004F8FBFF36F8FFEE7201DFEF763FD20467F
:1056C000FDF7A6FD204F3988084219D02046FDF786
:1056D000A4FDC1B20320FDF749FD06462046FDF7B3
:1056E0009CFDC2B2334603218F20FEF7CBF9204642
:1056F000FDF793FDC1B294F84C200320FEF758F853
:10570000E06CE062C0F13800A0612046FDF780FD4A
:105710003988084205D02046FDF77FFDC0B2FEF76C
:10572000AFFAE06AA969884200D9A861074900EB8D
:10573000800001EB8000211DFEF790FD012108464D
:10574000BDE8F0819400002018000020A421002072
:1057500070B5C068C46854B104F118000646FEF77D
:1057600011FD1A4DA86B50B13146194822E0502066
:1057700080F31188BFF34F8FBFF36F8FFEE7201DBB
:10578000FEF700FD2046FDF743FD12490988084257
:1057900005D02046FDF741FDC0B2FEF771FAE06A80
:1057A000A969884200D9A8610B4900EB800001EB90
:1057B0008000211DFEF752FDE06A2968C96A88420F
:1057C00002D90120686270BD002070BD94000020E5
:1057D0002C26002018000020A42100202DE9F041F3
:1057E000324C00252F46A06B38B1FEF743FDA06B6D
:1057F000401EA063A06B40B152E0502080F311889E
:10580000BFF34F8FBFF36F8FFEE72069284E4FF035
:10581000010850BB44E0F068C56805F11800FEF7C8
:10582000B1FC281DFEF7AEFC2846FDF7F1FC21492E
:105830000988084205D02846FDF7EFFCC0B2FEF704
:105840001FFAE86AA169884200D9A0611A4900EBF1
:10585000800001EB8000291DFEF700FDE86A216849
:10586000C96A884201D3C4F8248030680028D2D1A4
:105870000DB1FDF70FF9256A45B14646FFF770FEF9
:1058800000B166626D1EF9D100202062606A38B1F5
:105890000A49012738070860BFF34F8FBFF36F8FA6
:1058A000FEF708FD3846BDE8F081000094000020B6
:1058B0002C26002018000020A421002004ED00E088
:1058C00010B586B0FCF7E8FD114CA068B8B1002017
:1058D0000390049005AA04A903A8FEF78DFCDDE956
:1058E000032102208DE8070000230AA10B48059A36
:1058F000FFF7F1FDE06010B106B0012010BD5020AF
:1059000080F31188BFF34F8FBFF36F8FFEE7000066
:10591000D0000020546D7220537663009D2B000848
:105920002DE9FF411E46134602000A9D4FF000007C
:1059300016D0144CA768002F0FD0CDE900130292A7
:10594000062917DAFFF7F8FD02284FF000030FD001
:1059500000226946A068FFF729FA04B0BDE8F0818B
:10596000502080F31188BFF34F8FBFF36F8FFEE796
:105970002A46EEE70023324669463846FFF758FBD1
:10598000EBE70000D00000200248006B002800D0A8
:10599000006B704714000020F46300080000000052
:1059A0000000000000000000000000008000000077
:1059B000180000000000000000000000E463000880
:1059C00000000000000000000000000000000000D7
:1059D000800000000800000000000000000000003F
:1059E000006400080000000000000000000000004B
:1059F000000000008000000008000000000000001F
:105A000000000000D4630008000000000000000057
:105A100000000000000000008000000008000000FE
:105A20000000000000000000D46300080000000037
:105A300000000000000000000000000080000000E6
:105A40000800000000000000000000000203040540
:105A5000060708090A0B0C0D0E0F101001020304B3
:105A600005060708090A0B0C0D0E0F1000000000B8
:105A700000000000010203040607080900000000FE
:105A8000010203044E6F7420656E6F7567682053C2
:105A9000454D4150484F52452068616E646C6573B6
:105AA000202D20696E637265617365205452435FD7
:105AB0004346475F4E53454D4150484F524520693C
:105AC0006E20747263536E617073686F74436F6E8F
:105AD0006669672E680000004E6F7420656E6F75F2
