:020000040800F2
:10000000681F00205D020008CB18000809180008CE
:10001000C91800088D030008191F0008000000001F
:100020000000000000000000000000009D0100082A
:100030000304000800000000F9010008111900087D
:1000400077020008770200087702000877020008AC
:10005000770200087702000877020008770200089C
:10006000770200087702000877020008770200088C
:100070007702000877020008910300087702000861
:10008000770200087702000877020008770200086C
:10009000770200087702000877020008770200085C
:1000A000770200087702000877020008770200084C
:1000B000770200087702000877020008770200083C
:1000C000770200087702000877020008770200082C
:1000D00077020008E51E0008770200087702000892
:1000E000770200087702000877020008770200080C
:1000F00077020008770200087702000877020008FC
:10010000000000000000000000000000770200086E
:10011000770200087702000877020008B919000882
:1001200077020008770200087702000877020008CB
:1001300077020008770200080000000000000000BD
:10014000770200087702000877020008000000002C
:10015000000000000000000000000000000000009F
:10016000000000000000000077020008770200088D
:1001700077020008000000000000000000000000FE
:100180000000000077020008DFF80CD000F0ECF867
:1001900000480047591F0008681F00202C4B1968B1
:1001A0000868B0E8F04F80F30988BFF36F8F4FF015
:1001B000000080F3118870470000000008480068C4
:1001C000006880F308884FF0000080F3148862B65E
:1001D00061B6BFF34F8FBFF36F8F00DF00BF00BF6B
:1001E00008ED00E0DFF80C00016841F470010160E7
:1001F000704700BF88ED00E0EFF30980BFF36F8F19
:10020000134B1A681EF0100F08BF20ED108A20E96A
:10021000F04F106009B44FF0500080F31188BFF325
:100220004F8FBFF36F8F02F07BFD4FF0000080F324
:10023000118809BC19680868B0E8F04F1EF0100F6B
:1002400008BFB0EC108A80F30988BFF36F8F704746
:1002500018000020EFF30580704700000648804733
:1002600006480047FEE7FEE7FEE7FEE7FEE7FEE79B
:10027000FEE7FEE7FEE7FEE79D190008890100089A
:100280002DE9F05F0546002092469B4688460646CB
:10029000814640241BE0284641464746224600F05E
:1002A00020F853465A46C01A914110D311461846B9
:1002B000224600F04AF82D1A67EB01084F46224605
:1002C0000120002100F041F817EB00094E41201EEB
:1002D000A4F10104DFDC484631462A464346BDE826
:1002E000F09F202A04DB203A21FA02F00021704717
:1002F00021FA02F3D040C2F120029140084319468E
:10030000704740EA01039B0703D009E008C9121FA8
:1003100008C0042AFAD203E011F8013B00F8013BBF
:10032000521EF9D27047D2B201E000F8012B491EEB
:10033000FBD270470022F6E710B513460A46044682
:100340001946FFF7F0FF204610BD202A04DB203AB3
:1003500000FA02F1002070479140C2F1200320FA18
:1003600003F3194390407047064C074D06E0E068E0
:1003700040F0010394E8070098471034AC42F6D3EC
:10038000FFF706FFB4370008D4370008FEE7000087
:10039000014800F05DB80000100200200B4B01681E
:1003A0001422994207D20A4B1944B1FBF2F1890099
:1003B0000164084908E0054B5B421944B1FBF2F1C6
:1003C0008900016401490839C1637047080402408B
:1003D000F8FFFDBF0000024030B590F84050012406
:1003E000AC40C56B6C60046863604368102B0368A5
:1003F00003D099600068C26030BD9A600068C16037
:1004000030BD7047704710B590F8211000240229C4
:1004100003D004218163012418E001680A6822F0F6
:100420000E020A6001680A6822F001020A6090F870
:100430004020C36B012101FA02F25A6080F82110BA
:10044000002180F82010416B01B18847204610BD83
:10045000F0B4C16B0D6801680C68066C042202FAE6
:1004600006F32B420FD063070DD50B689B0603D410
:100470000B6823F004030B6090F840108A40C16BB6
:100480004A60C16A1BE0022303FA06F72F424FF0CD
:10049000000C4FF0010216D0A70714D50C68A40673
:1004A00005D40C6824F00A040C6080F8212090F830
:1004B00040108B40C16B4B6080F820C0816A0029DE
:1004C00018D0F0BC08470823B3402B4212D02307B2
:1004D00010D50B6823F00E030B6090F84010C36B2F
:1004E00002FA01F15960826380F8212080F820C06F
:1004F000016BE4E7F0BC704770B5040021D0022026
:1005000084F821002268116843F6F0708143D4E931
:1005100001031843D4E903352B4318436369184397
:10052000A3691843E3691843084310602046FFF7A6
:1005300035FF0020A063012184F8211084F82000F9
:1005400070BD012070BD70B5044690F820000025F4
:1005500001280CD0012084F8200094F821600020AC
:10056000012E06D084F820000225284670BD022006
:1005700070BD022684F82160A0632068066826F01A
:10058000010606602046FFF727FFE06A0028206882
:10059000016802D041F00E0106E041F00A0101605D
:1005A0002068016821F0040101602068016841F0C1
:1005B00001010160D9E700002DE9F84FDFF864B1CF
:1005C00000234FF0010C4FF0030A4FF00F090BF11D
:1005D000040EA0E00CFA03F6324072D04C68022CF4
:1005E00001D0122C0ED1DC0800EB8408D8F8204092
:1005F0005D07EF0E09FA07F5AC430D69BD402543D1
:10060000C8F8205007685D0091F804800AFA05F4E4
:1006100008F00308A74308FA05F848EA0708C0F8F5
:1006200000804F68012F05D0022F03D0112F01D079
:10063000122F11D18768D1F80C80A74308FA05F86A
:1006400048EA0708C0F808804768B7430E79C6F340
:1006500000169E403E434660C668A6438C68AC4088
:100660003443C4604C68E40054D52F4CA56945F070
:100670000105A561A46923F0030504F001040094B9
:100680002A4C2E19B4689D072F0F09FA07F5AC43C1
:10069000B0F1904F04D0264DA84203D1012512E0BD
:1006A000002510E0234DA84201D102250BE0224D88
:1006B000A84201D1032506E0204DA84202D104251D
:1006C00001E027E00525BD402543B560DBF800408B
:1006D0005D464E689443F60300D514432C60DEF863
:1006E000004075464E689443B60300D514432C6011
:1006F0000C4D08352C684E689443F60200D514431F
:100700002C60084D0C352C684E689443B60200D519
:1007100014432C605B1C0A6832FA03F47FF45AAF6E
:10072000BDE8F88F000401400010024000000140C5
:100730000004004800080048000C00480010004871
:1007400042690A4200D00904816170470AB181619F
:100750007047816270470000014880687047000060
:1007600008000020024881680278114481607047C7
:1007700008000020074810B5016841F01001016031
:10078000032000F08BF8002000F006F800F03EF89F
:10079000002010BD0020024000B5014687B00022B5
:1007A000372000F05BF8372000F04AF81348C169A1
:1007B00041F02001C161C06905A900F02000069048
:1007C000684600F02DFA00F04BFA0D494000B0FBEE
:1007D000F1F10D480B4A491E0260416040F2E732D8
:1007E0000021C0E90321816000F087FD10B10120E4
:1007F00007B000BD044800F09DFDF9E7001002407D
:1008000040420F0000140040540200200B4882B008
:10081000816941F001018161816901F0010100916B
:10082000C16941F08051C161C069002200F080506F
:1008300000900F21901E02B000F010B8001002408E
:10084000002809DB00F01F020121914040098000CF
:1008500000F1E020C0F8001170470000F0B40E4B2A
:100860001B680C46C3F30223C3F10705042D00D90E
:100870000425191D072901D2002300E0DB1E0126F3
:1008800006FA05F1491E214099409E40761E164009
:100890003143F0BC01F041BB0CED00E0064900F033
:1008A000070208684FF6FF03184040EA0220034A97
:1008B00010430860704700000CED00E00000FA05EE
:1008C0002DE9F84F04460068804DC0036FD5E869F4
:1008D0000026C00008D4E86940F08050E861E8696B
:1008E000012600F08050009079480168C90512D4B3
:1008F0000168804641F480710160FFF72DFF0746D3
:1009000005E000BFFFF728FFC01B642835D8D8F8E2
:100910000000C005F6D5286A10F4407053D0A188B5
:1009200001F4407181424ED0286A4FF4803191FA2F
:10093000A1F2B2FA82F29700664A4FF0010817441A
:1009400020F44070C7F8008491FAA1F1B1FA81F166
:1009500002EB81010023C1F800342862C00732D0C5
:10096000FFF7FAFE074641F2883A4FF0020907E026
:10097000FFF7F2FEC11B514502D90320BDE8F88FF5
:1009800099FAA9F1B1FA81F141F040014846B8EB7A
:10099000511F01D129680CE090FAA0F1B1FA81F160
:1009A00041F04001B0EB511F02D1296A01E015E08E
:1009B000696A99FAA9F0B0FA80F000F01F0008FA0D
:1009C00000F21142D4D0286A616820F440700843D4
:1009D00028621EB1E86920F08050E8612078C007E5
:1009E00005D0286BA16820F0030008432863207815
:1009F000800705D5286BE16820F440300843286360
:100A00002078400705D5286B216920F44020084351
:100A100028632078800605D5286BE16920F0100056
:100A2000084328632068800305D56868A16B20F41B
:100A30008000084368602078400605D5286B216A4D
:100A400020F02000084328632078000705D5286B94
:100A5000616920F44010084328632078C00605D55A
:100A6000286BA16920F44000084328632088800592
:100A700005D56868E16A20F40000084368602078C2
:100A8000000605D5E86A616A20F4F8700843E86258
:100A90002088C00505D5E86AA16A20F4785008438B
:100AA000E8622088C00405D5286B216B20F4807093
:100AB000084328632088800405D5286B616B20F4E7
:100AC000007008432863002058E70000001002402F
:100AD00000700040000042422DE9F0470F4605003B
:100AE00069D04A4E306800F00700B84209D2306839
:100AF00020F0070038433060306800F00700B8424B
:100B000059D12878424C800705D56068A96820F043
:100B1000F000084360602878C0073DD06968012074
:100B200001290DD0022923D05FF0020393FAA3F22A
:100B3000B2FA82F242F02002520904D0226803E0A5
:100B40004FF40033F2E7626A93FAA3F3B3FA83F344
:100B500003F01F03984002422DD0606820F003008C
:100B600008436060FFF7F8FD804641F288390CE0E9
:100B70004FF00073DAE700BFFFF7EEFDA0EB0801CE
:100B8000494502D90320BDE8F0876068696800F034
:100B90000C00B0EB810FEFD1306800F00700B842D5
:100BA0000BD9306820F0070038433060306800F01F
:100BB0000700B84201D00120E5E72878400705D5B5
:100BC0006068E96820F4E060084360602878000706
:100BD00006D56068296920F4605040EAC100606071
:100BE00000F06EF86168F02292FAA2F201F0F001D2
:100BF000B2FA82F2D140074A515CC8400649086007
:100C000006480068FFF7C8FD0020BCE7002002404E
:100C10000010024090370008140000200C00002053
:100C20000F2202600C4A536803F0030343605368C9
:100C300003F0F0038360536803F4E063C360526819
:100C40004FF4E06303EAD20202610448006800F056
:100C500007000860704700000010024000200240BA
:100C600008480949006849684FF4E06292FAA2F224
:100C700001F4E061B2FA82F2D140044A515CC8400A
:100C8000704700001400002000100240A037000848
:100C900008480949006849684FF4605292FAA2F284
:100CA00001F46051B2FA82F2D140044A515CC8406A
:100CB000704700001400002000100240A037000818
:100CC000164A10B55168164801F00C03042B20D0C9
:100CD000082B1ED14FF4701494FAA4F401F470138D
:100CE000B4FA84F4E3400F4CD26AE45C0F2393FA25
:100CF000A3F302F00F02B3FA83F3DA40094B103387
:100D0000C9039A5C06D500231946FFF7B9FAA0FB80
:100D1000040110BD0448A4FB000110BD00100240F6
:100D200000127A007037000800093D002DE9F84FE5
:100D3000050071D02878FC4EC0074FF0010425D083
:100D400070686704C0F38100012807D07068C0F3A1
:100D5000810002281BD17068C00318D597FAA7F04C
:100D6000B0FA80F040F02000400901D0306800E087
:100D7000706A97FAA7F1B1FA81F101F01F0104FA44
:100D800001F1084265D068680028D2D061E0686847
:100D9000B0F5803F0BD010B1B0F5A02F17D0306860
:100DA00020F480303060306820F4802002E0306829
:100DB00040F480303060F06AA96820F00F000843EA
:100DC000F062686820B3FFF7C7FC80460AE030682D
:100DD00040F480203060EAE7FFF7BEFCA0EB08009B
:100DE000642871D897FAA7F0B0FA80F040F020009C
:100DF000400901D0306800E0706A97FAA7F1B1FAB3
:100E000081F101F01F0104FA01F10842E4D020E071
:100E1000FFF7A2FC804607E0C2E000BFFFF79CFCA2
:100E2000A0EB08006428DCD897FAA7F0B0FA80F0AD
:100E300040F02000400901D0306800E0706A97FA65
:100E4000A7F1B1FA81F101F01F0104FA01F10842A2
:100E5000E4D12878DFF8D48280074FF0000A4FF001
:100E6000020730D570684FF0F80B10F00C0F07D068
:100E70007068C0F38100022827D17068C00324D4B1
:100E800097FAA7F0B0FA80F040F02000400901D0B6
:100E9000306800E0706A97FAA7F1B1FA81F101F0C9
:100EA0001F0104FA01F1084202D02869012877D114
:100EB00030689BFAABF220F0F8016869B2FA82F26E
:100EC0009040014331605AE064E1286988B394FAA4
:100ED000A4F0B0FA80F048F82040FFF73DFC8146CE
:100EE00006E000BFFFF738FCA0EB090002289AD803
:100EF00097FAA7F0B0FA80F040F02000400901D046
:100F0000306800E0706A97FAA7F1B1FA81F101F058
:100F10001F0104FA01F10842E4D030689BFAABF2F9
:100F20006969B2FA82F220F0F8009140084330601B
:100F300025E0FFE794FAA4F0B0FA80F048F820A08A
:100F4000FFF70AFC814605E0FFF706FCA0EB09006D
:100F50000228CCD897FAA7F0B0FA80F040F0200031
:100F6000400901D0306800E0706A97FAA7F1B1FA41
:100F700081F101F01F0104FA01F10842E4D128785F
:100F800000076CD5A869A8B394FAA4F0B0FA80F071
:100F900008EB8000C0F88044FFF7DEFB814607E0E5
:100FA000A4E100BFFFF7D8FBA0EB090002289ED800
:100FB00097FAA7F0B0FA80F040F06000B4EB501F51
:100FC00001D130680BE097FAA7F0B0FA80F040F05A
:100FD0006000B7EB501F01D1306A00E0706A97FAE9
:100FE000A7F1B1FA81F101F01F0104FA01F21042F8
:100FF000D8D034E0FFE794FAA4F1B1FA81F108EB1C
:101000008101C1F880A4FFF7A7FB814606E000BF7D
:10101000FFF7A2FBA0EB090002289AD897FAA7F0E5
:10102000B0FA80F040F06000B4EB501F01D130689E
:101030000BE097FAA7F0B0FA80F040F06000B7EB51
:10104000501F01D1306A00E0706A97FAA7F1B1FA37
:1010500081F101F01F0104FA01F21042D8D1287881
:10106000400768D5F0694FF00009C00009D4F06965
:1010700040F08050F061F0694FF0010900F08050BD
:1010800000902B480168C90512D4016841F48071B1
:101090000160FFF761FB834606E000BFFFF75CFBE2
:1010A000A0EB0B00642875D821480068C005F5D571
:1010B000E86801280AD008B1052811D0306A20F06C
:1010C00001003062306A20F0040002E0306A40F033
:1010D00001003062E86868B3FFF73EFB83460DE02D
:1010E000306A40F004003062F0E700BFFFF734FBE5
:1010F000A0EB0B0141F2883081424BD897FAA7F060
:10110000B0FA80F040F04000B4EB501F01D13068DD
:1011100013E097FAA7F0B0FA80F040F04000B7EB88
:10112000501F09D1306A08E000100240000042421E
:10113000007000400CE040E0706A97FAA7F1B1FA45
:1011400081F101F01F0104FA01F21042CED02DE02E
:10115000FFF702FB834607E0FFF7FEFAA0EB0B0167
:1011600041F28830814215D897FAA7F0B0FA80F0A2
:1011700040F04000B4EB501F01D130680CE097FA0A
:10118000A7F0B0FA80F040F04000B7EB501F02D15A
:10119000306A01E083E0706A97FAA7F1B1FA81F151
:1011A00001F01F0104FA01F21042D5D1B9F1000F8C
:1011B00003D0F06920F08050F061E86980B3716875
:1011C000C1F38101022977D04FF080714F000228CE
:1011D000504609D091FAA1F1B1FA81F148F8210005
:1011E000FFF7BAFA05465DE0894691FAA1F1B1FA36
:1011F00081F1C24648F82100FFF7AEFA804605E0CB
:10120000FFF7AAFAA0EB0800022848D897FAA7F03F
:10121000B0FA80F040F02000400902D0306801E0D0
:1012200066E0706A97FAA7F1B1FA81F101F01F0147
:1012300004FA01F10842E3D1D5E9081008437168C6
:1012400021F474110843706099FAA9F0B0FA80F0A3
:101250004AF82040FFF780FA054604E0FFF77CFAE1
:10126000401B02281BD897FAA7F0B0FA80F040F094
:101270002000400901D0306800E0706A97FAA7F1B9
:10128000B1FA81F101F01F0104FA01F10842E5D041
:101290002EE000BFFFF760FA401B022802D90320AE
:1012A000BDE8F88F97FAA7F0B0FA80F040F0200080
:1012B000400902D0306801E00BE0706A97FAA7F1AC
:1012C000B1FA81F101F01F0104FA01F10842E1D104
:1012D0000EE00128E4D070682A6A00F4803191425F
:1012E00004D1696A00F47010884201D00120D7E768
:1012F0000020D5E770477047704710B5040003D051
:1013000094F83D0010B107E0012010BD002084F8E2
:101310003C00204600F00CF8022084F83D00211D1E
:10132000206800F04FFB012084F83D00002010BD34
:10133000704700000168CA6842F00102CA60016893
:101340008868064A1040062806D0B0F5803F03D0D2
:10135000086840F0010008600020704707000100A5
:10136000704770B50446006801694FF00005C94335
:10137000890715D4C168C943890711D4E91E0161E1
:1013800001202077206880698007204602D0FFF77F
:10139000E7FF04E000F0A7F8204600F0A5F8257765
:1013A00020680169C943490717D4C168C94349077F
:1013B00013D46FF004010161022020772068806956
:1013C00010F4407F204602D0FFF7CAFF04E000F08F
:1013D0008AF8204600F088F8257720680169C9431B
:1013E000090716D4C168C943090712D46FF0080170
:1013F0000161042020772068C0698007204602D060
:10140000FFF7AEFF04E000F06EF8204600F06CF845
:10141000257720680169C943C90617D4C168C94343
:10142000C90613D46FF010010161082020772068ED
:10143000C06910F4407F204602D0FFF791FF04E01E
:1014400000F051F8204600F04FF825772068016938
:10145000C943C90708D1C168C943C90704D1891E56
:101460000161204600F042F820680169C94309067D
:1014700009D4C168C943090605D46FF08001016130
:101480002046FFF738FF20680169C943C90509D420
:10149000C168C943090605D46FF480710161204613
:1014A000FFF728FF20680169C943490609D4C168CC
:1014B000C943490605D46FF040010161204600F0A0
:1014C0001FF820680169C94389060BD4C168C94364
:1014D000890607D46FF0200101612046BDE8704005
:1014E000FFF70ABF70BD70477047000000680349EE
:1014F000884201D1FFF736B9704700000014004060
:1015000070477047704700002DE9F04102680446BB
:10151000D0691168936840F60F0528424FF0000526
:1015200005D186067BD58E0679D5216E88E003F03D
:10153000010601F49077374371D0C70707D0CF0574
:1015400005D501271762E26F42F00102E2678207C8
:1015500008D5DA0706D0276802223A62E26F42F025
:101560000402E267420708D5DA0706D0236804229E
:101570001A62E26F42F00202E26702070AD501F046
:101580002002324306D0236808221A62E26F42F03A
:101590000802E267020509D54A0107D523684FF41E
:1015A00000621A62E26F42F02002E267E26F002AF4
:1015B0002ED0800605D5880603D5216E09B12046B8
:1015C0008847E06F21688968490602D410F0280F27
:1015D00020D0204600F028FB20688168490614D5F9
:1015E000816821F040018160E06E70B11D49416366
:1015F000E06EFEF708FF00280AD0E06E416B00E0C5
:101600002046BDE8F041084709E02046FFF77AFF91
:10161000BDE8F0812046FFF775FFE567F8E7C602F1
:1016200009D55B0207D54FF4801010622046BDE853
:10163000F041FFF766BF030605D50B0603D5616EC3
:101640000029DDD1E4E74006E2D54806E0D511687F
:10165000204621F04001116020216167656600F09D
:10166000D1F8D5E7951B000810B5040002D0606FD3
:1016700010B107E0012010BD002084F87000204662
:1016800000F026F8242060672068016821F001013D
:101690000160204600F0E0FA0128ECD0606A10B149
:1016A000204600F0E7F92068416821F4904141604C
:1016B0002068816821F02A0181602068016841F07A
:1016C000010101602046BDE8104000F037BA00007B
:1016D00070B586B0064614216846FEF72BFE2049F9
:1016E000306888423AD11F49886940F48040886157
:1016F000886900F480400590486940F40020486102
:101700004869002500F40020059030200090022058
:10171000CDE9010503200390072004906946124893
:10172000FEF74AFF124C114820601020C4E9010561
:101730008020C4E903056561A5612046E561FEF7E7
:10174000DBFE08B1FEF75EFEB4660022052125200F
:101750006662FFF783F82520FFF772F806B070BDC8
:1017600000380140001002400008004844000240D8
:101770001002002070B50446406F20283AD159B3BA
:1017800052B394F87000012834D0012084F870001E
:10179000E164A4F85020A4F852200025E567212038
:1017A0006067A06ED0B114498162A16E13481346E0
:1017B000C862A16E12480863A06E45632668E16C9A
:1017C00006F12802A06EFEF7BEFE38B11020E067D9
:1017D00084F8705020206067012070BD216840208F
:1017E000086284F870502068816841F0800181604F
:1017F000002070BD022070BDF11B00081F1C0008F6
:10180000A91B000870477047FEE70000F0B587B0DD
:1018100014216846FEF78EFD1E48416941F480019F
:101820004161416901F480010591416941F4003150
:101830004161416901F400310591416941F40021A0
:101840004161416901F400210591416941F40011B0
:1018500041614069104F00F400104FF47F4605903D
:10186000002231463846FEF771FF00240125CDE9FC
:10187000005469464FF090400294FEF79DFE00969A
:10188000CDE90154694638460394FEF795FE07B04A
:10189000F0BD00000010024000100048094808494F
:1018A00001604FF416514160002181600C22C1603B
:1018B000C0E904128161C16101624162FFF7D4BED7
:1018C0000038014090010020FEE770470D4C0020D9
:1018D0000D49608080B20854401C80B26080FF28AF
:1018E000F8D94FF4807121800848FEF729FF064996
:1018F000228801F58070FFF73DFF012000F060FBBA
:10190000FBE70000000000209000002000100048CD
:1019100010B5502080F31188BFF34F8FBFF36F8F46
:1019200001F072FD18B104494FF0805008600020AA
:1019300080F3118810BD000004ED00E070B59EB08A
:1019400028216846FEF7F6FC142119A8FEF7F2FCE0
:101950003C210AA8FEF7EEFC01252804CDE9005041
:101960000024029402260495CDE907604FF4E010AC
:1019700009906846FFF7DAF90F20CDE91906A802A9
:10198000CDE91B40022119A81D94FFF7A5F80AA86C
:101990000A950C94FEF794FF1EB070BD05480168CF
:1019A00041F47001016003494FF000608039086024
:1019B0007047000088ED00E00148FFF7D2BC00004E
:1019C000540200202DE9F0430268234B234D244E9E
:1019D000244C4FF08049984207D0484505D0A84292
:1019E00003D0B04201D0A04203D122F070074A6870
:1019F0003A431D4FDFF874C0DFF8748098420DD071
:101A000048450BD0A84209D0B04207D0A04205D02B
:101A1000B84203D0604501D0404503D122F440755F
:101A2000CA682A434D6922F080022A4302608A680C
:101A3000C2620A688262984207D0A04205D0B842CA
:101A400003D0604501D0404501D1096901630121FE
:101A50004161BDE8F0830000002C0140000400401B
:101A600000080040003401400040014000440140B3
:101A70000048014090F82410C90706D001684A6860
:101A8000836A22F400321A434A6090F824108907CE
:101A900006D501684A68C36A22F480321A434A6054
:101AA00090F82410490706D501684A68036B22F4B0
:101AB00080221A434A6090F82410090706D501686D
:101AC0004A68436B22F400421A434A6090F824109B
:101AD000C90606D501688A68836B22F480521A43CE
:101AE0008A6090F82410890606D501688A68C36B5D
:101AF00022F400521A438A6090F82410490611D546
:101B000001684A68036C22F480121A434A60016C2F
:101B1000B1F5801F06D101684A68436C22F4C00207
:101B20001A434A6090F82410090606D501684A68ED
:101B3000806C22F4002202434A607047F8B5002608
:101B40000446C667FEF708FE0546206800686FF089
:101B50007E47000708D52B4600224FF4001120468F
:101B6000009700F06DF960B92068006840070AD559
:101B70002B4600224FF480012046009700F060F9C8
:101B800008B10320F8BD20206067A06784F870606A
:101B90000020F8BD10B5406A0021A0F85A10A0F846
:101BA0005210FFF7AFFC10BD70B5446A606FA56FAF
:101BB000216889684FF00006090606D5212804D15E
:101BC000A4F85260204600F03EF820688068400685
:101BD00006D5222D04D1A4F85A60204600F024F83E
:101BE000E06F40F01000E0672046FFF78BFC70BD0F
:101BF00010B50146406A896920290DD00021A0F85E
:101C0000521001688A6822F080028A6000680168C8
:101C100041F04001016010BDFFF7F4FD10BD10B5AB
:101C2000406AFFF7F0FD10BD01680A6822F4907267
:101C30000A6001688A6822F001028A6020218167B7
:101C400000210166704701680A6822F0C0020A603C
:101C5000202141677047000070B504468068216903
:101C6000E2690843616900251143084321680A6855
:101C700049F20C639A4302430A6020684168E268B3
:101C800021F4405111434160A169206A0843216851
:101C90008A6822F4306202438A60614B206861499D
:101CA0004FF4803298420CD1086B10F0030006D03C
:101CB00001285DD002285DD0032844D156E00121DF
:101CC00042E0594B98420CD1086B10F440304BD095
:101CD00090424DD0B0F5003F4CD0B0F5403F32D1EE
:101CE00044E0524B98420DD1086B10F440203BD099
:101CF000B0F5802F3CD0B0F5002F3BD0B0F5402F91
:101D000021D133E04A4B98420DD1086B10F44010BA
:101D10002AD0B0F5801F2BD0B0F5001F2AD0B0F527
:101D2000401F10D122E0434B98420CD1086B10F4B5
:101D3000400019D0B0F5800F1AD0B0F5000F19D0BF
:101D4000B0F5400F12D01021E0694FF400434FF678
:101D5000EF76984234D109295BD2DFE801F00D100B
:101D6000275A2A5A5A5A2D000021EDE70221EBE7A3
:101D70000421E9E70821E7E7FEF772FF01E0FEF73B
:101D800087FF4100D4F8040001EB5001B1FBF0F0F3
:101D900080B2A0F11001B1423BD84FF6F071014082
:101DA000C0F3420001432068C16033E0224960680B
:101DB000EAE7FEF785FFE4E7606802EB5001E5E73C
:101DC000092926D2DFE801F0050817251C2525255D
:101DD0001F00FEF745FF01E0FEF75AFF616800EBC8
:101DE0005100B0FBF1F080B2A0F11001B14210D867
:101DF0002168C8600EE01149606801EB500105E000
:101E0000FEF75EFFEAE7606803EB5001B1FBF0F01C
:101E1000E9E70125002020666066284670BD0000C5
:101E200000380140001002400044004000480040DB
:101E3000004C0040005000400024F40000127A00E2
:101E40002DE9F0479A4617460E4604464FF0000922
:101E50004FF02008089D39E0681C37D0FEF77CFC65
:101E6000A0EB0A00A84222D80DB3206801684907F8
:101E70002CD5C069C043000528D421684FF4006008
:101E800008622068016821F4D071016020688168CF
:101E900021F001018160C4F87480C4F87880C4F82E
:101EA0007C8000BF84F870900320BDE8F087206834
:101EB000016821F4D07101602068816821F001017E
:101EC0008160C4F87480C4F87880EBE72068C0694A
:101ED00036EA000004D00020B842BDD00020E4E77C
:101EE0000120F9E710B50848FFF70EFB4FF4007129
:101EF0000648FEF725FC064806490288BDE8104062
:101F00000148FFF737BC0000900100200010004896
:101F10000000002090000020FEE70907090E0028BD
:101F200004DB00F1E02080F80014704700F00F009F
:101F300000F1E02080F8141D704702E008C8121F6D
:101F400008C1002AFAD170477047002001E001C1A2
:101F5000121F002AFBD170478AB0FEF70BFCFFF777
:101F6000EDFCFFF753FC1248416941F0010141616A
:101F70004069002200F00100099005210E20FEF7C3
:101F80006DFC0E20FEF75CFCFFF788FC00F032F8D9
:101F9000242208496846FEF7B4F96A46002106483B
:101FA00000F064F80549486000F040F8FEE70000E2
:101FB000001002404C370008CD1800080000002037
:101FC00010B5EFF3058149B9EFF3108131B9084934
:101FD0000968022905D1EFF3118111B16FF00504F1
:101FE00003E0002408B100F0E7FD204610BD00002A
:101FF00068000020EFF3058058B9EFF3108040B976
:1020000009490868022801D030B109E0EFF31180D6
:1020100030B16FF005007047012008600020704764
:102020004FF0FF30704700006800002010B5EFF35C
:10203000058060B9EFF3108048B90B4908680228A1
:1020400002D0012806D00BE0EFF3118040B16FF011
:10205000050010BD0220086000F016FE002010BD33
:102060004FF0FF3010BD000068000020F0B585B0D3
:102070004FEA01034FF00004EFF305810394A1BB85
:10208000EFF3108189BB21490968022902D1EFF3DE
:10209000118151BB48B3802618218DF8104004AD42
:1020A00042B3176807B13D4697691FB139467F1E95
:1020B000382F02D21779FF0702D0002005B0F0BDFB
:1020C000576907B1BE08D2F808C0BCF1000F0DD0A7
:1020D000D4685C2C18D312693AB137B18DE8061078
:1020E0003246294601F051F903900DE0D7685FB9F7
:1020F00012694AB903AACDE90012B2B2294601F029
:1021000017F9012800D003940398D7E7680000204E
:102110002DE9F041134C0F46054666692068001D05
:1021200000F01AFC681C07D137B12168BDE8F04106
:102130000D48091D00F060BC20683544B54245607B
:10214000216805D2A068BDE8F041091D00F03CBC43
:102150006068091D00F038FC206B854200D22563C1
:10216000BDE8F08118000020840700202DE9F0412F
:10217000054600F04DFC2D4C2069401C2061206874
:102180002B4F10B1E06930B32BE0256020690128A6
:1021900027D1002606EB860007EB800000F006FC46
:1021A000761C382EF6D3234800F000FC214814306A
:1021B00000F0FCFB1F48283000F0F8FB1D483C30C5
:1021C00000F0F4FB1B48503000F0F0FB1948606051
:1021D0001430A06005E02068E96AC06A884200D82F
:1021E0002560E06A401CE0626864E86AA169884290
:1021F00000D9A06100EB800007EB8000291D00F0F2
:10220000FBFB00F025FCE06900280CD02068E96A9F
:10221000C06A884207D208494FF080500860BFF377
:102220004F8FBFF36F8FBDE8F081000018000020D2
:10223000D40200203407002004ED00E038B500F09F
:10224000E7FB104CA068C8B90F4800F0AFFB0E4880
:10225000143000F0ABFB0C482060143060600A4B77
:1022600000202833009003F1500210210A2000F0D2
:1022700003FEA06010B105A100F068FCBDE8384085
:1022800000F0E6BB5400002098070020546D725106
:102290000000000030B4026C0B46002A0BD0C1686D
:1022A0001144C1604468A14201D30168C16030BCDF
:1022B0001846FEF726B830BC70472DE9F041856B13
:1022C000174604460026026C82B1C7B1E068FEF7EB
:1022D00018F8E168206C091AE1602268914202D284
:1022E0006168081AE060022F16D017E02068A8B9CC
:1022F000606801F0EDF80646002060600EE0A0681E
:10230000FDF7FFFF216CA0680844A0606168884267
:1023100004D32068A06001E005B16D1E6D1CA563AB
:102320003046BDE8F08110B5044690F8590058B128
:1023300001280CD002280FD0502080F31188BFF361
:102340004F8FBFF36F8FFEE7206B00F095FB2046A9
:10235000BDE8104000F090BB10BD000010484FF4E5
:102360004061420706D0C01D0D4920F00700411A08
:10237000C1F540610B4A00230144C2E9000308395A
:10238000103A21F0070111604B600B600B1AC0E995
:10239000001393604FF000405360D060704700001E
:1023A000680F00207C000020144E154CA6F29C47BC
:1023B0004FF08058DFF84C9012E000BF00F028FB8F
:1023C000F068C568281D00F0C7FA2069401E20612A
:1023D000E068401EE06000F03BFB2846FFF7A3FFEB
:1023E000E0680028EAD138680128F9D9C9F80080E6
:1023F000BFF34F8FBFF36F8FF2E70000700700202D
:102400001800002004ED00E070B51D46049C51B199
:10241000C4F80020C4E90F010121204600F060FD4E
:1024200084F84C5070BD2460F4E72DE9F0470E4667
:10243000DDE909841746824691009946089DA52248
:10244000206BFDF770FF6FF00301206B01EB87013C
:10245000084420F00707780707D0502080F3118840
:10246000BFF34F8FBFF36F8FFEE72218315C82F806
:102470003410315C11B1401C1028F6D3002684F8CA
:102480004360382D00D33725E562C4E91356201D7B
:1024900000F097FA04F1180000F093FA2461C5F1F6
:1024A00038006462A061666584F858604A46514607
:1024B000384600F03BFA2060B8F1000F01D0C8F8B0
:1024C0000040BDE8F087000030B5114900E011463A
:1024D0000A688242FBD34B685C18844203D140688F
:1024E00018444860084643681C18944209D1084CB7
:1024F000103C2468A24209D052681A4442600A681B
:1025000012680260814200D0086030BD0460F9E7C3
:102510007C00002070B5002441600B4D00619142A9
:1025200006D8D11A8269914206D2011D686807E077
:102530009A4203D2994201D3012403E0011D286885
:1025400000F042FA204670BD5400002010B5044649
:1025500000F05EFAA06B28B15FF0000400F078FA9A
:10256000204610BD0124F9E730B589B0304D55E063
:102570000498002806DADDE90601059A90470498D8
:1025800000284BDB069C606910B1201D00F0E4F9C7
:1025900002A800F0B9F8024604980A283ED2DFE803
:1025A00000F00505053D263705053D260598A1697E
:1025B000034601442046FFF7ADFF00B3616A2046A1
:1025C0008847E069012829D1002000900598A16979
:1025D000002342181946204601F084F878B95020AB
:1025E00080F31188BFF34F8FBFF36F8FFEE705981D
:1025F000A06128B1811813462046FFF78BFF0DE03C
:10260000502080F31188BFF34F8FBFF36F8FFEE729
:1026100094F82C0010B9204600F02EFA002204A9EC
:10262000A86800F0AFFD0028A2D109B030BD0000BD
:10263000540000202DE9FC410F46054600F068FBE0
:1026400001A800F061F80446019818B100F0B8FF45
:10265000BDE8FC81224EAFB170680068A8B30027C6
:10266000291B3A46B06800F085FA00F0A9FF00285F
:10267000EED11C494FF080500860BFF34F8FBFF37D
:102680006F8FE5E7A542EBD800F09AFF3068274648
:10269000C068C468201D00F05FF9E069012810D10E
:1026A000A0692B4641193A462046FFF733FF40B157
:1026B00000200346014600902A46204601F012F809
:1026C00020B1616A20468847C2E707E0502080F3C6
:1026D0001188BFF34F8FBFF36F8FFEE70127BFE76E
:1026E0005400002004ED00E006484168096829B163
:1026F0004168C968C9684968016370474FF0FF3194
:10270000FAE700001800002070B5054600F076FEDC
:10271000064E04463069844203D200F009F80120D5
:1027200000E0002028602046346170BD5400002085
:10273000F8B5194D1FE0C068C4680668201D00F098
:102740000BF9616A20468847E069012813D1A06926
:102750003044B04206D924616060211D286800F031
:1027600033F908E000200346014600903246204637
:1027700000F0B8FF38B1286801680029DBD169682A
:10278000C5E90010F8BD502080F31188BFF34F8FCA
:10279000BFF36F8FFEE70000540000200848406838
:1027A000401C4FF0500080F3118804D0BFF34F8FCE
:1027B000BFF36F8FFEE7BFF34F8FBFF36F8FFEE75F
:1027C00084000020074C2068016841B1C0680021E6
:1027D000D0F80000FFF72EFFFFF7C6FEF3E7012158
:1027E0000020F7E7540000202DE9F041044600F0F6
:1027F0000FF994F9455004F1240609E0606A48B1E4
:10280000304600F0A5FE08B100F004FA6D1E6DB26E
:10281000002DF3DC4FF0FF3684F8456000F018F926
:1028200000F0F6F894F9445004F1100709E020692B
:1028300048B1384600F08CFE08B100F0EBF96D1E8F
:102840006DB2002DF3DC84F84460BDE8F04100F087
:10285000FFB800002DE9F0410546002700F058FAC6
:10286000314E306808B9FFF779FDF06805424BD169
:10287000C5B3083568070ED005F00700C0F10800A1
:102880000544680707D0502080F31188BFF34F8FAD
:10289000BFF36F8FFEE72DB37068854234D82248AE
:1028A000103001460C6801E020460C466168A942E0
:1028B00002D221680029F7D131688C4224D0076800
:1028C0002168016060680837411B10290FD9601921
:1028D000420708D0502080F31188BFF34F8FBFF319
:1028E0006F8FFEE710E041606560FFF7EDFD616806
:1028F0007068401A7060B268904200D2B060F068B0
:1029000001430020C4E9000100F05AFE780707D017
:10291000502080F31188BFF34F8FBFF36F8FFEE716
:102920003846BDE8F08100006C00002010B5031FA0
:102930004FF080741C601B1F21F001011960191FEA
:10294000044B0B6014390A60091F6FF0020244380F
:102950000A6010BD9D270008D0E9013201699A6024
:10296000D0E901235A604A68824201D182684A60F4
:10297000002202610868401E086008687047000075
:10298000034B036003F15C00086080201060704717
:10299000B0080020044B036003F15C0008604FF4B2
:1029A00080701060704700000C0B002000F10801DF
:1029B0004FF0FF32C0E90112C160016100210160E6
:1029C000704700210161704730B50B685A1C02D076
:1029D00000F1080202E0026904E02246546825681A
:1029E0009D42FAD953684B6099608A6051600861D2
:1029F0000168491C016030BD42684A6093688B6081
:102A000093685960916008610168491C01607047D2
:102A1000502080F31188BFF34F8FBFF36F8F0A49A7
:102A20004868401C486001280CD10848006810F034
:102A3000FF0F07D0502080F31188BFF34F8FBFF3F3
:102A40006F8FFEE7704700008400002004ED00E077
:102A50000849486828B1401E486001D180F31188B8
:102A60007047502080F31188BFF34F8FBFF36F8FF3
:102A7000FEE700008400002070B5002827D0144D28
:102A8000A0F108046168E868014207D1502080F392
:102A90001188BFF34F8FBFF36F8FFEE722683AB103
:102AA000502080F31188BFF34F8FBFF36F8FFEE785
:102AB0008143616000F02CF96068696808446860CF
:102AC0002046FFF701FDBDE8704000F079BD70BD04
:102AD0006C0000204FF0E020002101618161054978
:102AE0004FF47A720968B1FBF2F1491E4161072186
:102AF000016170471400002010B5FDF7ABFB1149D0
:102B000010280ED300F1E02090F8F0030A789042EC
:102B100007D2502080F31188BFF34F8FBFF36F8F20
:102B2000FEE709480068896800F4E060884207D938
:102B3000502080F31188BFF34F8FBFF36F8FFEE7F4
:102B400010BD0000840000200CED00E010B5084B23
:102B5000002200BF53F832401CB1521C082AF9D39E
:102B600010BD43F8321003EBC201486010BD0000F5
:102B70009402002070B515460E460446FFF748FF44
:102B800094F944100020491C01D184F8440094F9C0
:102B90004510491C01D184F84500FFF759FFA06B8F
:102BA00028B92A46314604F1240000F051F82046A5
:102BB000BDE87040FFF718BE10B5020014D00F48F2
:102BC000806B38B1502080F31188BFF34F8FBFF373
:102BD0006F8FFEE700F09CF800211046FFF798FA8F
:102BE00000F0EEFC002807D105494FF08050086046
:102BF000BFF34F8FBFF36F8F10BD00001800002090
:102C000004ED00E002498A6A026049694160704748
:102C10001800002001490120486270471800002078
:102C200010B50C4650B1094909681831FFF7CCFEC0
:102C30002046BDE810400121FFF76ABA502080F31A
:102C40001188BFF34F8FBFF36F8FFEE7180000208E
:102C500070B514460D4668B10A4909681831FFF786
:102C6000CBFE0CB14FF0FF3521462846BDE8704041
:102C7000FFF74EBA502080F31188BFF34F8FBFF398
:102C80006F8FFEE71800002030B587B00024039452
:102C900005AA04A903A80494FFF772FEDDE9030165
:102CA0000094CDE90110002315A11748059A00F002
:102CB0006CFB164D002868631FD000F0E3FC012870
:102CC00009D0401C19D1502080F31188BFF34F8FD9
:102CD000BFF36F8FFEE7502080F31188BFF34F8F53
:102CE000BFF36F8F4FF0FF3028630120E8616C6104
:102CF00007B0BDE8304000F045B807B030BD000077
:102D000049444C4500000000A92300081800002099
:102D10000248816B491C8163704700001800002045
:102D2000164810B5816B11B10121416210BD00211F
:102D300041628169124A01E0B9B1491E01EB810388
:102D400052F82330002BF7D001EB810302EB830212
:102D500002F1080453685B685360A34201D15B68C9
:102D60005360DA680260816110BD502080F31188E1
:102D7000BFF34F8FBFF36F8FFEE7000018000020F6
:102D8000D40200201CB537480168374A914207D168
:102D9000502080F31188BFF34F8FBFF36F8FFEE792
:102DA00000683149491E884207D1502080F31188BC
:102DB000BFF34F8FBFF36F8FFEE72C490878019068
:102DC000FF20087008788DF800009DF800009DF83D
:102DD000002000F0F000904207D0502080F31188CE
:102DE000BFF34F8FBFF36F8FFEE79DF80000204BBE
:102DF00000F0500018700720986005E09DF8002052
:102E000052008DF80020401E9DF800201206F5D4D7
:102E10009860032807D0502080F31188BFF34F8FAC
:102E2000BFF36F8FFEE74FF4407098600198087011
:102E30000C482030016841F470010160016841F0E4
:102E400070410160FFF746FE00205860FDF7CAF9A7
:102E50000848016841F040410160FDF7AFF90020EA
:102E60001CBD000000ED00E071C20F4100E400E075
:102E70008400002034EF00E038B5049D18B153B150
:102E8000CAB181B120E0502080F31188BFF34F8F89
:102E9000BFF36F8FFEE7502080F31188BFF34F8F91
:102EA000BFF36F8FFEE7502080F31188BFF34F8F81
:102EB000BFF36F8FFEE739B1502080F31188BFF365
:102EC0004F8FBFF36F8FFEE750241C46012384F819
:102ED00046302B460094FFF797FA204638BD000095
:102EE00070B50D46040025D0FFF792FDD4E90F2000
:102EF000216802FB001161600021A1632168A160CB
:102F00000A46D4E90F01401E00FB0121E160214681
:102F10004FF0FF3001F8440F487004F110008DB1FC
:102F2000FFF744FD04F12400FFF740FDFFF790FD9B
:102F3000012070BD502080F31188BFF34F8FBFF385
:102F40006F8FFEE721690029F0D000F001FB002817
:102F5000ECD004494FF080500860BFF34F8FBFF3AF
:102F60006F8FE3E704ED00E02DE9FF4782B01D46D7
:102F70008A464FF00008040003D0BAF1000F08D0D1
:102F800011E0502080F31188BFF34F8FBFF36F8F94
:102F9000FEE7206C38B1502080F31188BFF34F8FCB
:102FA000BFF36F8FFEE7022D0AD1E06B012807D037
:102FB000502080F31188BFF34F8FBFF36F8FFEE770
:102FC00000F00EFA3F4F4FF000094FF0805648B91D
:102FD000049838B1502080F31188BFF34F8FBFF3AE
:102FE0006F8FFEE7FFF714FDA06BE16B884207D3FC
:102FF000022D05D00498D0B1B8F1000F1AD01EE010
:103000002A4651462046FFF758F9616A19B104F182
:10301000240000F09DFA20B13E60BFF34F8FBFF354
:103020006F8FFFF715FD012006B0BDE8F087FFF7B1
:103030000FFD22E06846FFF7E5FD4FF00108FFF7BE
:1030400007FDFFF765FEFFF7E3FC94F94400401C21
:1030500001D184F8449094F94500401C01D184F8D2
:103060004590FFF7F5FC04A9684600F027F930B158
:103070002046FFF7B9FB00F0A3FA0020D4E7FFF7E2
:10308000C7FCA06BE16B884213D1FFF7E1FC04F1B0
:1030900010000499FFF7C4FD2046FFF7A5FB00F0E0
:1030A0008FFA00289ED13E60BFF34F8FBFF36F8F22
:1030B00098E7FFF7CDFC2046FFF796FB00F080FA7B
:1030C00090E7000004ED00E02DE9F0471F46904630
:1030D0008946040003D0B9F1000F08D011E0502058
:1030E00080F31188BFF34F8FBFF36F8FFEE7206C23
:1030F00038B1502080F31188BFF34F8FBFF36F8F2B
:10310000FEE7022F0AD1E06B012807D0502080F3A0
:103110001188BFF34F8FBFF36F8FFEE7FFF7ECFC13
:103120005020EFF3118680F31188BFF34F8FBFF368
:103130006F8FA06BE16B884206D3022F04D0002072
:1031400086F31188BDE8F08794F945503A46494620
:103150002046FFF7B2F8681C04D06D1C84F8455077
:103160000120EDE7606A0028FAD004F1240000F0A5
:10317000EFF90028F4D0B8F1000FF1D00121C8F820
:103180000010EDE72DE9F747002683B08A460400DA
:1031900003D0BAF1000F08D011E0502080F311885D
:1031A000BFF34F8FBFF36F8FFEE7206C38B1502015
:1031B00080F31188BFF34F8FBFF36F8FFEE700F0EE
:1031C0000FF9DFF8F4804FF000094FF0805748B94D
:1031D000059838B1502080F31188BFF34F8FBFF3AB
:1031E0006F8FFEE7FFF714FCA56BC5B15146204673
:1031F000FFF750F86D1EA563206950B104F110006F
:1032000000F0A6F928B1C8F80070BFF34F8FBFF3E4
:103210006F8FFFF71DFC012006B0BDE8F087059811
:1032200008B11EB106E0FFF713FC27E06846FFF780
:10323000E9FC0126FFF70CFCFFF76AFDFFF7E8FB4E
:1032400094F94400401C01D184F8449094F945005D
:10325000401C01D184F84590FFF7FAFB05A96846A8
:1032600000F02CF8002820460AD0FFF7BDFA00F045
:10327000A7F92046FFF76AF90028B3D00020CBE772
:10328000FFF764F990B104F124000599FFF7C8FC39
:103290002046FFF7A9FA00F093F90028A2D1C8F858
:1032A0000070BFF34F8FBFF36F8F9BE72046FFF790
:1032B0009BFA00F085F995E704ED00E02DE9F04177
:1032C0000C46050011D0C4B1FFF7A2FB174B5A6999
:1032D0006E682068911B471C17D02F689B6A9F421D
:1032E00019D0964217D8012410E0502080F311889D
:1032F000BFF34F8FBFF36F8FFEE7502080F311882D
:10330000BFF34F8FBFF36F8FFEE70024FFF7A0FBE3
:103310002046BDE8F081884205D9401A2060284641
:10332000FFF770FCF1E700202060DCE718000020C8
:103330002DE9FF5F8346DDE90E87994616468A46EA
:103340009000FFF787FA05001CD05C20FFF782FA97
:10335000040014D00020256384F85900CDE9024010
:10336000CDE900874B46324651465846FFF75DF897
:103370002046FEF7FBFE012004B0BDE8F09F284682
:10338000FFF77AFB4FF0FF30F6E7F0B585B0DDE9E7
:103390000B640A9DA6B1DCB15C2700972663022668
:1033A00084F85960002604AFCDE90246CDE9005704
:1033B000FFF73BF82046FEF7D9FE049805B0F0BDB4
:1033C000502080F31188BFF34F8FBFF36F8FFEE75C
:1033D000502080F31188BFF34F8FBFF36F8FFEE74C
:1033E0000548C16919B1806B18B1002070470120F0
:1033F0007047022070470000180000200148406913
:1034000070470000180000202DE9F0412E4C0027E5
:10341000A06B40B1206A401C2062606A00B10127A5
:103420003846BDE8F0816669761C666113D1606834
:10343000006838B1502080F31188BFF34F8FBFF37D
:103440006F8FFEE76068A1686160A060A06A401CA1
:10345000A062FFF749F9206BDFF87080864209D33C
:103460006068006880B16068C068C5686868864246
:103470000DD220632068C06A00EB800158F821005B
:103480000128CAD90127C8E74FF0FF30F1E7281D0E
:10349000FFF762FAA86A18B105F11800FFF75CFAA5
:1034A000E86AA169884200D9A06100EB800108EBBD
:1034B0008100291DFFF7A0FAE86A2168C96A8842DD
:1034C000CED30127CCE7000018000020D402002052
:1034D00070B504004FF0000133D01B4D28688442C2
:1034E00007D0502080F31188BFF34F8FBFF36F8F49
:1034F000FEE7206D38B1401E2065E36CE26A9A4217
:103500001FD040B11DE0502080F31188BFF34F8FD2
:10351000BFF36F8FFEE7201DFFF71EFAE06CE0623D
:10352000C0F13800A061E06AA969884200D9A861A9
:10353000064900EB800001EB8000211DFFF75CFADB
:103540000121084670BD000018000020D4020020B0
:1035500070B5C068C46854B104F118000646FFF79E
:10356000FBF9144DA86B50B13146134815E05020BB
:1035700080F31188BFF34F8FBFF36F8FFEE7201DDD
:10358000FFF7EAF9E06AA969884200D9A8610B4906
:1035900000EB800001EB8000211DFFF72DFAE06AAF
:1035A0002968C96A884202D90120686270BD00207A
:1035B00070BD0000180000205C070020D40200202D
:1035C0002DE9F0472C4D00242746A86B38B1FFF7B2
:1035D0001FFAA86B401EA863A86B40B146E05020BC
:1035E00080F31188BFF34F8FBFF36F8FFEE7296918
:1035F000224E0120D1B3A6F5916980463068E0B132
:10360000F068C46804F11800FFF7A6F9201DFFF761
:10361000A3F9E06AA969884200D9A86100EB80019A
:1036200009EB8100211DFFF7E7F9E06A2968C96A03
:103630008842E3D3C5F82480E0E70CB1FFF754F8E3
:103640002C6A4CB14FEA0806FFF7DEFE00B16E624D
:10365000641EF9D100202862686A38B10849012740
:1036600038070860BFF34F8FBFF36F8FFFF7F0F994
:103670003846BDE8F0870000180000205C070020F5
:1036800004ED00E010B586B0FEF7D8FD114CA0683F
:10369000B8B100200390049005AA04A903A8FFF77D
:1036A00079F9DDE9032102208DE8070000230AA152
:1036B0000B48059AFFF769FEE06010B106B00120E3
:1036C00010BD502080F31188BFF34F8FBFF36F8F71
:1036D000FEE7000054000020546D72205376630012
:1036E000C52700082DE9FF411E46134602000A9D2A
:1036F0004FF0000016D0144CA768002F0FD0CDE972
:1037000000130292062917DAFFF76AFE02284FF02B
:1037100000030FD000226946A068FFF725FC04B023
:10372000BDE8F081502080F31188BFF34F8FBFF3C5
:103730006F8FFEE72A46EEE7002332466946384699
:10374000FFF7C2FCEBE7000054000020A837000898
:103750000000000000000000000000000000000069
:1037600080000000180000000000000000000000C1
:1037700002030405060708090A0B0C0D0E0F1010B2
:103780000102030405060708090A0B0C0D0E0F10B1
:103790000000000000000000010203040607080901
:1037A000000000000102030464656661756C7454D6
:1037B00061736B00D4370008000000209000000007
:1037C0003A1F00086438000890000020D81E00004E
:1037D0004A1F000800000000000000000100000077
:1037E000100000000000000000127A00000000003D
:1037F00000000000000000000000000000000000C9
:1038000000000000000000000000000000000000B8
:1038100000000000000000000000000000000000A8
:103820000000000000000000000000000000000098
:103830000000000000000000000000000000000088
:103840000000000000000000000000000000000078
:10385000000000000000000000000000AAAAAAAAC0
:043860000000000064
:040000050800018965
:00000001FF
